{
	"contracts/1_Storage.sol": {
		"Function": {
			"abi": [
				{
					"inputs": [],
					"name": "destructuringAssignments",
					"outputs": [
						{
							"internalType": "uint256",
							"name": "",
							"type": "uint256"
						},
						{
							"internalType": "bool",
							"name": "",
							"type": "bool"
						},
						{
							"internalType": "uint256",
							"name": "",
							"type": "uint256"
						},
						{
							"internalType": "uint256",
							"name": "",
							"type": "uint256"
						},
						{
							"internalType": "uint256",
							"name": "",
							"type": "uint256"
						}
					],
					"stateMutability": "pure",
					"type": "function"
				},
				{
					"inputs": [],
					"name": "namedValuse",
					"outputs": [
						{
							"internalType": "uint256",
							"name": "x",
							"type": "uint256"
						},
						{
							"internalType": "bool",
							"name": "b",
							"type": "bool"
						},
						{
							"internalType": "uint256",
							"name": "y",
							"type": "uint256"
						}
					],
					"stateMutability": "pure",
					"type": "function"
				},
				{
					"inputs": [],
					"name": "returnmany",
					"outputs": [
						{
							"internalType": "uint16",
							"name": "",
							"type": "uint16"
						},
						{
							"internalType": "bool",
							"name": "",
							"type": "bool"
						},
						{
							"internalType": "uint256",
							"name": "",
							"type": "uint256"
						}
					],
					"stateMutability": "pure",
					"type": "function"
				}
			],
			"devdoc": {
				"kind": "dev",
				"methods": {},
				"version": 1
			},
			"evm": {
				"assembly": "    /* \"contracts/1_Storage.sol\":58:514  contract Function{... */\n  mstore(0x40, 0x80)\n  callvalue\n  dup1\n  iszero\n  tag_1\n  jumpi\n  revert(0x00, 0x00)\ntag_1:\n  pop\n  dataSize(sub_0)\n  dup1\n  dataOffset(sub_0)\n  0x00\n  codecopy\n  0x00\n  return\nstop\n\nsub_0: assembly {\n        /* \"contracts/1_Storage.sol\":58:514  contract Function{... */\n      mstore(0x40, 0x80)\n      callvalue\n      dup1\n      iszero\n      tag_1\n      jumpi\n      revert(0x00, 0x00)\n    tag_1:\n      pop\n      jumpi(tag_2, lt(calldatasize, 0x04))\n      shr(0xe0, calldataload(0x00))\n      dup1\n      0x2093fd93\n      eq\n      tag_3\n      jumpi\n      dup1\n      0x21319fee\n      eq\n      tag_4\n      jumpi\n      dup1\n      0x68873440\n      eq\n      tag_5\n      jumpi\n    tag_2:\n      revert(0x00, 0x00)\n        /* \"contracts/1_Storage.sol\":81:174  function returnmany() public pure returns(uint16,bool,uint){... */\n    tag_3:\n      tag_6\n      tag_7\n      jump\t// in\n    tag_6:\n      mload(0x40)\n      tag_8\n      swap4\n      swap3\n      swap2\n      swap1\n      tag_9\n      jump\t// in\n    tag_8:\n      mload(0x40)\n      dup1\n      swap2\n      sub\n      swap1\n      return\n        /* \"contracts/1_Storage.sol\":179:284  function namedValuse() public pure returns(uint x, bool b, uint y){... */\n    tag_4:\n      tag_10\n      tag_11\n      jump\t// in\n    tag_10:\n      mload(0x40)\n      tag_12\n      swap4\n      swap3\n      swap2\n      swap1\n      tag_13\n      jump\t// in\n    tag_12:\n      mload(0x40)\n      dup1\n      swap2\n      sub\n      swap1\n      return\n        /* \"contracts/1_Storage.sol\":290:512  function destructuringAssignments() ... */\n    tag_5:\n      tag_14\n      tag_15\n      jump\t// in\n    tag_14:\n      mload(0x40)\n      tag_16\n      swap6\n      swap5\n      swap4\n      swap3\n      swap2\n      swap1\n      tag_17\n      jump\t// in\n    tag_16:\n      mload(0x40)\n      dup1\n      swap2\n      sub\n      swap1\n      return\n        /* \"contracts/1_Storage.sol\":81:174  function returnmany() public pure returns(uint16,bool,uint){... */\n    tag_7:\n        /* \"contracts/1_Storage.sol\":123:129  uint16 */\n      0x00\n        /* \"contracts/1_Storage.sol\":130:134  bool */\n      0x00\n        /* \"contracts/1_Storage.sol\":135:139  uint */\n      0x00\n        /* \"contracts/1_Storage.sol\":158:159  1 */\n      0x01\n        /* \"contracts/1_Storage.sol\":160:164  true */\n      dup1\n        /* \"contracts/1_Storage.sol\":165:166  2 */\n      0x02\n        /* \"contracts/1_Storage.sol\":150:167  return (1,true,2) */\n      swap3\n      pop\n      swap3\n      pop\n      swap3\n      pop\n        /* \"contracts/1_Storage.sol\":81:174  function returnmany() public pure returns(uint16,bool,uint){... */\n      swap1\n      swap2\n      swap3\n      jump\t// out\n        /* \"contracts/1_Storage.sol\":179:284  function namedValuse() public pure returns(uint x, bool b, uint y){... */\n    tag_11:\n        /* \"contracts/1_Storage.sol\":222:228  uint x */\n      0x00\n        /* \"contracts/1_Storage.sol\":230:236  bool b */\n      0x00\n        /* \"contracts/1_Storage.sol\":238:244  uint y */\n      0x00\n        /* \"contracts/1_Storage.sol\":264:265  2 */\n      0x02\n        /* \"contracts/1_Storage.sol\":262:265  x=2 */\n      swap3\n      pop\n      dup3\n        /* \"contracts/1_Storage.sol\":268:272  true */\n      0x01\n        /* \"contracts/1_Storage.sol\":266:272  b=true */\n      swap3\n      pop\n      dup3\n        /* \"contracts/1_Storage.sol\":275:276  3 */\n      0x03\n        /* \"contracts/1_Storage.sol\":273:276  y=3 */\n      swap3\n      pop\n        /* \"contracts/1_Storage.sol\":255:277  return(x=2,b=true,y=3) */\n      swap3\n      pop\n      swap3\n      pop\n        /* \"contracts/1_Storage.sol\":179:284  function namedValuse() public pure returns(uint x, bool b, uint y){... */\n      swap1\n      swap2\n      swap3\n      jump\t// out\n        /* \"contracts/1_Storage.sol\":290:512  function destructuringAssignments() ... */\n    tag_15:\n        /* \"contracts/1_Storage.sol\":361:365  uint */\n      0x00\n        /* \"contracts/1_Storage.sol\":367:371  bool */\n      0x00\n        /* \"contracts/1_Storage.sol\":373:377  uint */\n      0x00\n        /* \"contracts/1_Storage.sol\":379:383  uint */\n      0x00\n        /* \"contracts/1_Storage.sol\":385:389  uint */\n      0x00\n        /* \"contracts/1_Storage.sol\":404:410  uint i */\n      0x00\n        /* \"contracts/1_Storage.sol\":412:418  bool b */\n      0x00\n        /* \"contracts/1_Storage.sol\":421:427  uint j */\n      0x00\n        /* \"contracts/1_Storage.sol\":429:441  returnmany() */\n      tag_21\n        /* \"contracts/1_Storage.sol\":429:439  returnmany */\n      tag_7\n        /* \"contracts/1_Storage.sol\":429:441  returnmany() */\n      jump\t// in\n    tag_21:\n        /* \"contracts/1_Storage.sol\":403:441  (uint i, bool b , uint j)=returnmany() */\n      swap3\n      pop\n      swap3\n      pop\n      0xffff\n      and\n      swap3\n      pop\n        /* \"contracts/1_Storage.sol\":451:457  uint x */\n      0x00\n        /* \"contracts/1_Storage.sol\":459:465  uint y */\n      0x00\n        /* \"contracts/1_Storage.sol\":468:469  4 */\n      0x04\n        /* \"contracts/1_Storage.sol\":470:471  5 */\n      0x05\n        /* \"contracts/1_Storage.sol\":472:473  6 */\n      0x06\n        /* \"contracts/1_Storage.sol\":450:474  (uint x,,uint y)=(4,5,6) */\n      swap3\n      pop\n      pop\n      swap2\n      pop\n        /* \"contracts/1_Storage.sol\":491:492  i */\n      dup5\n        /* \"contracts/1_Storage.sol\":494:495  b */\n      dup5\n        /* \"contracts/1_Storage.sol\":497:498  j */\n      dup5\n        /* \"contracts/1_Storage.sol\":499:500  x */\n      dup5\n        /* \"contracts/1_Storage.sol\":501:502  y */\n      dup5\n        /* \"contracts/1_Storage.sol\":483:503  return (i, b, j,x,y) */\n      swap10\n      pop\n      swap10\n      pop\n      swap10\n      pop\n      swap10\n      pop\n      swap10\n      pop\n      pop\n      pop\n      pop\n      pop\n      pop\n        /* \"contracts/1_Storage.sol\":290:512  function destructuringAssignments() ... */\n      swap1\n      swap2\n      swap3\n      swap4\n      swap5\n      jump\t// out\n        /* \"#utility.yul\":7:96   */\n    tag_22:\n        /* \"#utility.yul\":43:50   */\n      0x00\n        /* \"#utility.yul\":83:89   */\n      0xffff\n        /* \"#utility.yul\":76:81   */\n      dup3\n        /* \"#utility.yul\":72:90   */\n      and\n        /* \"#utility.yul\":61:90   */\n      swap1\n      pop\n        /* \"#utility.yul\":7:96   */\n      swap2\n      swap1\n      pop\n      jump\t// out\n        /* \"#utility.yul\":102:217   */\n    tag_23:\n        /* \"#utility.yul\":187:210   */\n      tag_31\n        /* \"#utility.yul\":204:209   */\n      dup2\n        /* \"#utility.yul\":187:210   */\n      tag_22\n      jump\t// in\n    tag_31:\n        /* \"#utility.yul\":182:185   */\n      dup3\n        /* \"#utility.yul\":175:211   */\n      mstore\n        /* \"#utility.yul\":102:217   */\n      pop\n      pop\n      jump\t// out\n        /* \"#utility.yul\":223:313   */\n    tag_24:\n        /* \"#utility.yul\":257:264   */\n      0x00\n        /* \"#utility.yul\":300:305   */\n      dup2\n        /* \"#utility.yul\":293:306   */\n      iszero\n        /* \"#utility.yul\":286:307   */\n      iszero\n        /* \"#utility.yul\":275:307   */\n      swap1\n      pop\n        /* \"#utility.yul\":223:313   */\n      swap2\n      swap1\n      pop\n      jump\t// out\n        /* \"#utility.yul\":319:428   */\n    tag_25:\n        /* \"#utility.yul\":400:421   */\n      tag_34\n        /* \"#utility.yul\":415:420   */\n      dup2\n        /* \"#utility.yul\":400:421   */\n      tag_24\n      jump\t// in\n    tag_34:\n        /* \"#utility.yul\":395:398   */\n      dup3\n        /* \"#utility.yul\":388:422   */\n      mstore\n        /* \"#utility.yul\":319:428   */\n      pop\n      pop\n      jump\t// out\n        /* \"#utility.yul\":434:511   */\n    tag_26:\n        /* \"#utility.yul\":471:478   */\n      0x00\n        /* \"#utility.yul\":500:505   */\n      dup2\n        /* \"#utility.yul\":489:505   */\n      swap1\n      pop\n        /* \"#utility.yul\":434:511   */\n      swap2\n      swap1\n      pop\n      jump\t// out\n        /* \"#utility.yul\":517:635   */\n    tag_27:\n        /* \"#utility.yul\":604:628   */\n      tag_37\n        /* \"#utility.yul\":622:627   */\n      dup2\n        /* \"#utility.yul\":604:628   */\n      tag_26\n      jump\t// in\n    tag_37:\n        /* \"#utility.yul\":599:602   */\n      dup3\n        /* \"#utility.yul\":592:629   */\n      mstore\n        /* \"#utility.yul\":517:635   */\n      pop\n      pop\n      jump\t// out\n        /* \"#utility.yul\":641:1067   */\n    tag_9:\n        /* \"#utility.yul\":782:786   */\n      0x00\n        /* \"#utility.yul\":820:822   */\n      0x60\n        /* \"#utility.yul\":809:818   */\n      dup3\n        /* \"#utility.yul\":805:823   */\n      add\n        /* \"#utility.yul\":797:823   */\n      swap1\n      pop\n        /* \"#utility.yul\":833:902   */\n      tag_39\n        /* \"#utility.yul\":899:900   */\n      0x00\n        /* \"#utility.yul\":888:897   */\n      dup4\n        /* \"#utility.yul\":884:901   */\n      add\n        /* \"#utility.yul\":875:881   */\n      dup7\n        /* \"#utility.yul\":833:902   */\n      tag_23\n      jump\t// in\n    tag_39:\n        /* \"#utility.yul\":912:978   */\n      tag_40\n        /* \"#utility.yul\":974:976   */\n      0x20\n        /* \"#utility.yul\":963:972   */\n      dup4\n        /* \"#utility.yul\":959:977   */\n      add\n        /* \"#utility.yul\":950:956   */\n      dup6\n        /* \"#utility.yul\":912:978   */\n      tag_25\n      jump\t// in\n    tag_40:\n        /* \"#utility.yul\":988:1060   */\n      tag_41\n        /* \"#utility.yul\":1056:1058   */\n      0x40\n        /* \"#utility.yul\":1045:1054   */\n      dup4\n        /* \"#utility.yul\":1041:1059   */\n      add\n        /* \"#utility.yul\":1032:1038   */\n      dup5\n        /* \"#utility.yul\":988:1060   */\n      tag_27\n      jump\t// in\n    tag_41:\n        /* \"#utility.yul\":641:1067   */\n      swap5\n      swap4\n      pop\n      pop\n      pop\n      pop\n      jump\t// out\n        /* \"#utility.yul\":1073:1503   */\n    tag_13:\n        /* \"#utility.yul\":1216:1220   */\n      0x00\n        /* \"#utility.yul\":1254:1256   */\n      0x60\n        /* \"#utility.yul\":1243:1252   */\n      dup3\n        /* \"#utility.yul\":1239:1257   */\n      add\n        /* \"#utility.yul\":1231:1257   */\n      swap1\n      pop\n        /* \"#utility.yul\":1267:1338   */\n      tag_43\n        /* \"#utility.yul\":1335:1336   */\n      0x00\n        /* \"#utility.yul\":1324:1333   */\n      dup4\n        /* \"#utility.yul\":1320:1337   */\n      add\n        /* \"#utility.yul\":1311:1317   */\n      dup7\n        /* \"#utility.yul\":1267:1338   */\n      tag_27\n      jump\t// in\n    tag_43:\n        /* \"#utility.yul\":1348:1414   */\n      tag_44\n        /* \"#utility.yul\":1410:1412   */\n      0x20\n        /* \"#utility.yul\":1399:1408   */\n      dup4\n        /* \"#utility.yul\":1395:1413   */\n      add\n        /* \"#utility.yul\":1386:1392   */\n      dup6\n        /* \"#utility.yul\":1348:1414   */\n      tag_25\n      jump\t// in\n    tag_44:\n        /* \"#utility.yul\":1424:1496   */\n      tag_45\n        /* \"#utility.yul\":1492:1494   */\n      0x40\n        /* \"#utility.yul\":1481:1490   */\n      dup4\n        /* \"#utility.yul\":1477:1495   */\n      add\n        /* \"#utility.yul\":1468:1474   */\n      dup5\n        /* \"#utility.yul\":1424:1496   */\n      tag_27\n      jump\t// in\n    tag_45:\n        /* \"#utility.yul\":1073:1503   */\n      swap5\n      swap4\n      pop\n      pop\n      pop\n      pop\n      jump\t// out\n        /* \"#utility.yul\":1509:2161   */\n    tag_17:\n        /* \"#utility.yul\":1708:1712   */\n      0x00\n        /* \"#utility.yul\":1746:1749   */\n      0xa0\n        /* \"#utility.yul\":1735:1744   */\n      dup3\n        /* \"#utility.yul\":1731:1750   */\n      add\n        /* \"#utility.yul\":1723:1750   */\n      swap1\n      pop\n        /* \"#utility.yul\":1760:1831   */\n      tag_47\n        /* \"#utility.yul\":1828:1829   */\n      0x00\n        /* \"#utility.yul\":1817:1826   */\n      dup4\n        /* \"#utility.yul\":1813:1830   */\n      add\n        /* \"#utility.yul\":1804:1810   */\n      dup9\n        /* \"#utility.yul\":1760:1831   */\n      tag_27\n      jump\t// in\n    tag_47:\n        /* \"#utility.yul\":1841:1907   */\n      tag_48\n        /* \"#utility.yul\":1903:1905   */\n      0x20\n        /* \"#utility.yul\":1892:1901   */\n      dup4\n        /* \"#utility.yul\":1888:1906   */\n      add\n        /* \"#utility.yul\":1879:1885   */\n      dup8\n        /* \"#utility.yul\":1841:1907   */\n      tag_25\n      jump\t// in\n    tag_48:\n        /* \"#utility.yul\":1917:1989   */\n      tag_49\n        /* \"#utility.yul\":1985:1987   */\n      0x40\n        /* \"#utility.yul\":1974:1983   */\n      dup4\n        /* \"#utility.yul\":1970:1988   */\n      add\n        /* \"#utility.yul\":1961:1967   */\n      dup7\n        /* \"#utility.yul\":1917:1989   */\n      tag_27\n      jump\t// in\n    tag_49:\n        /* \"#utility.yul\":1999:2071   */\n      tag_50\n        /* \"#utility.yul\":2067:2069   */\n      0x60\n        /* \"#utility.yul\":2056:2065   */\n      dup4\n        /* \"#utility.yul\":2052:2070   */\n      add\n        /* \"#utility.yul\":2043:2049   */\n      dup6\n        /* \"#utility.yul\":1999:2071   */\n      tag_27\n      jump\t// in\n    tag_50:\n        /* \"#utility.yul\":2081:2154   */\n      tag_51\n        /* \"#utility.yul\":2149:2152   */\n      0x80\n        /* \"#utility.yul\":2138:2147   */\n      dup4\n        /* \"#utility.yul\":2134:2153   */\n      add\n        /* \"#utility.yul\":2125:2131   */\n      dup5\n        /* \"#utility.yul\":2081:2154   */\n      tag_27\n      jump\t// in\n    tag_51:\n        /* \"#utility.yul\":1509:2161   */\n      swap7\n      swap6\n      pop\n      pop\n      pop\n      pop\n      pop\n      pop\n      jump\t// out\n\n    auxdata: 0xa26469706673582212206a15eb934a411bb45ca2146329730d847d8086b9e407a7db3883d6ae2401ee4064736f6c634300081c0033\n}\n",
				"bytecode": {
					"linkReferences": {},
					"object": "6080604052348015600e575f5ffd5b506102538061001c5f395ff3fe608060405234801561000f575f5ffd5b506004361061003f575f3560e01c80632093fd931461004357806321319fee146100635780636887344014610083575b5f5ffd5b61004b6100a5565b60405161005a93929190610162565b60405180910390f35b61006b6100b8565b60405161007a93929190610197565b60405180910390f35b61008b6100d2565b60405161009c9594939291906101cc565b60405180910390f35b5f5f5f6001806002925092509250909192565b5f5f5f600292508260019250826003925092509250909192565b5f5f5f5f5f5f5f5f6100e26100a5565b9250925061ffff1692505f5f600460056006925050915084848484849950995099509950995050505050509091929394565b5f61ffff82169050919050565b61012a81610114565b82525050565b5f8115159050919050565b61014481610130565b82525050565b5f819050919050565b61015c8161014a565b82525050565b5f6060820190506101755f830186610121565b610182602083018561013b565b61018f6040830184610153565b949350505050565b5f6060820190506101aa5f830186610153565b6101b7602083018561013b565b6101c46040830184610153565b949350505050565b5f60a0820190506101df5f830188610153565b6101ec602083018761013b565b6101f96040830186610153565b6102066060830185610153565b6102136080830184610153565b969550505050505056fea26469706673582212206a15eb934a411bb45ca2146329730d847d8086b9e407a7db3883d6ae2401ee4064736f6c634300081c0033",
					"opcodes": "PUSH1 0x80 PUSH1 0x40 MSTORE CALLVALUE DUP1 ISZERO PUSH1 0xE JUMPI PUSH0 PUSH0 REVERT JUMPDEST POP PUSH2 0x253 DUP1 PUSH2 0x1C PUSH0 CODECOPY PUSH0 RETURN INVALID PUSH1 0x80 PUSH1 0x40 MSTORE CALLVALUE DUP1 ISZERO PUSH2 0xF JUMPI PUSH0 PUSH0 REVERT JUMPDEST POP PUSH1 0x4 CALLDATASIZE LT PUSH2 0x3F JUMPI PUSH0 CALLDATALOAD PUSH1 0xE0 SHR DUP1 PUSH4 0x2093FD93 EQ PUSH2 0x43 JUMPI DUP1 PUSH4 0x21319FEE EQ PUSH2 0x63 JUMPI DUP1 PUSH4 0x68873440 EQ PUSH2 0x83 JUMPI JUMPDEST PUSH0 PUSH0 REVERT JUMPDEST PUSH2 0x4B PUSH2 0xA5 JUMP JUMPDEST PUSH1 0x40 MLOAD PUSH2 0x5A SWAP4 SWAP3 SWAP2 SWAP1 PUSH2 0x162 JUMP JUMPDEST PUSH1 0x40 MLOAD DUP1 SWAP2 SUB SWAP1 RETURN JUMPDEST PUSH2 0x6B PUSH2 0xB8 JUMP JUMPDEST PUSH1 0x40 MLOAD PUSH2 0x7A SWAP4 SWAP3 SWAP2 SWAP1 PUSH2 0x197 JUMP JUMPDEST PUSH1 0x40 MLOAD DUP1 SWAP2 SUB SWAP1 RETURN JUMPDEST PUSH2 0x8B PUSH2 0xD2 JUMP JUMPDEST PUSH1 0x40 MLOAD PUSH2 0x9C SWAP6 SWAP5 SWAP4 SWAP3 SWAP2 SWAP1 PUSH2 0x1CC JUMP JUMPDEST PUSH1 0x40 MLOAD DUP1 SWAP2 SUB SWAP1 RETURN JUMPDEST PUSH0 PUSH0 PUSH0 PUSH1 0x1 DUP1 PUSH1 0x2 SWAP3 POP SWAP3 POP SWAP3 POP SWAP1 SWAP2 SWAP3 JUMP JUMPDEST PUSH0 PUSH0 PUSH0 PUSH1 0x2 SWAP3 POP DUP3 PUSH1 0x1 SWAP3 POP DUP3 PUSH1 0x3 SWAP3 POP SWAP3 POP SWAP3 POP SWAP1 SWAP2 SWAP3 JUMP JUMPDEST PUSH0 PUSH0 PUSH0 PUSH0 PUSH0 PUSH0 PUSH0 PUSH0 PUSH2 0xE2 PUSH2 0xA5 JUMP JUMPDEST SWAP3 POP SWAP3 POP PUSH2 0xFFFF AND SWAP3 POP PUSH0 PUSH0 PUSH1 0x4 PUSH1 0x5 PUSH1 0x6 SWAP3 POP POP SWAP2 POP DUP5 DUP5 DUP5 DUP5 DUP5 SWAP10 POP SWAP10 POP SWAP10 POP SWAP10 POP SWAP10 POP POP POP POP POP POP SWAP1 SWAP2 SWAP3 SWAP4 SWAP5 JUMP JUMPDEST PUSH0 PUSH2 0xFFFF DUP3 AND SWAP1 POP SWAP2 SWAP1 POP JUMP JUMPDEST PUSH2 0x12A DUP2 PUSH2 0x114 JUMP JUMPDEST DUP3 MSTORE POP POP JUMP JUMPDEST PUSH0 DUP2 ISZERO ISZERO SWAP1 POP SWAP2 SWAP1 POP JUMP JUMPDEST PUSH2 0x144 DUP2 PUSH2 0x130 JUMP JUMPDEST DUP3 MSTORE POP POP JUMP JUMPDEST PUSH0 DUP2 SWAP1 POP SWAP2 SWAP1 POP JUMP JUMPDEST PUSH2 0x15C DUP2 PUSH2 0x14A JUMP JUMPDEST DUP3 MSTORE POP POP JUMP JUMPDEST PUSH0 PUSH1 0x60 DUP3 ADD SWAP1 POP PUSH2 0x175 PUSH0 DUP4 ADD DUP7 PUSH2 0x121 JUMP JUMPDEST PUSH2 0x182 PUSH1 0x20 DUP4 ADD DUP6 PUSH2 0x13B JUMP JUMPDEST PUSH2 0x18F PUSH1 0x40 DUP4 ADD DUP5 PUSH2 0x153 JUMP JUMPDEST SWAP5 SWAP4 POP POP POP POP JUMP JUMPDEST PUSH0 PUSH1 0x60 DUP3 ADD SWAP1 POP PUSH2 0x1AA PUSH0 DUP4 ADD DUP7 PUSH2 0x153 JUMP JUMPDEST PUSH2 0x1B7 PUSH1 0x20 DUP4 ADD DUP6 PUSH2 0x13B JUMP JUMPDEST PUSH2 0x1C4 PUSH1 0x40 DUP4 ADD DUP5 PUSH2 0x153 JUMP JUMPDEST SWAP5 SWAP4 POP POP POP POP JUMP JUMPDEST PUSH0 PUSH1 0xA0 DUP3 ADD SWAP1 POP PUSH2 0x1DF PUSH0 DUP4 ADD DUP9 PUSH2 0x153 JUMP JUMPDEST PUSH2 0x1EC PUSH1 0x20 DUP4 ADD DUP8 PUSH2 0x13B JUMP JUMPDEST PUSH2 0x1F9 PUSH1 0x40 DUP4 ADD DUP7 PUSH2 0x153 JUMP JUMPDEST PUSH2 0x206 PUSH1 0x60 DUP4 ADD DUP6 PUSH2 0x153 JUMP JUMPDEST PUSH2 0x213 PUSH1 0x80 DUP4 ADD DUP5 PUSH2 0x153 JUMP JUMPDEST SWAP7 SWAP6 POP POP POP POP POP POP JUMP INVALID LOG2 PUSH5 0x6970667358 0x22 SLT KECCAK256 PUSH11 0x15EB934A411BB45CA21463 0x29 PUSH20 0xD847D8086B9E407A7DB3883D6AE2401EE406473 PUSH16 0x6C634300081C00330000000000000000 "
				},
				"gasEstimates": {
					"creation": {
						"codeDepositCost": "119000",
						"executionCost": "163",
						"totalCost": "119163"
					},
					"external": {
						"destructuringAssignments()": "infinite",
						"namedValuse()": "infinite",
						"returnmany()": "546"
					}
				},
				"methodIdentifiers": {
					"destructuringAssignments()": "68873440",
					"namedValuse()": "21319fee",
					"returnmany()": "2093fd93"
				}
			},
			"storageLayout": {
				"storage": [],
				"types": null
			},
			"userdoc": {
				"kind": "user",
				"methods": {},
				"version": 1
			}
		}
	}
}