{
	"contracts/10_HouseBooking.sol": {
		"Hostel": {
			"abi": [
				{
					"inputs": [],
					"stateMutability": "nonpayable",
					"type": "constructor"
				},
				{
					"inputs": [
						{
							"internalType": "uint256",
							"name": "_i",
							"type": "uint256"
						},
						{
							"internalType": "uint256",
							"name": "_roomPrice",
							"type": "uint256"
						},
						{
							"internalType": "uint256",
							"name": "_roomCapacity",
							"type": "uint256"
						}
					],
					"name": "addRoom",
					"outputs": [],
					"stateMutability": "nonpayable",
					"type": "function"
				},
				{
					"inputs": [],
					"name": "availableRooms",
					"outputs": [
						{
							"internalType": "uint256",
							"name": "",
							"type": "uint256"
						}
					],
					"stateMutability": "view",
					"type": "function"
				},
				{
					"inputs": [
						{
							"internalType": "address",
							"name": "",
							"type": "address"
						}
					],
					"name": "balances",
					"outputs": [
						{
							"internalType": "uint256",
							"name": "",
							"type": "uint256"
						}
					],
					"stateMutability": "view",
					"type": "function"
				},
				{
					"inputs": [
						{
							"internalType": "uint256",
							"name": "_roomId",
							"type": "uint256"
						},
						{
							"internalType": "uint256",
							"name": "_stayDuration",
							"type": "uint256"
						}
					],
					"name": "bookRoom",
					"outputs": [],
					"stateMutability": "payable",
					"type": "function"
				},
				{
					"inputs": [
						{
							"internalType": "uint256",
							"name": "",
							"type": "uint256"
						}
					],
					"name": "bookings",
					"outputs": [
						{
							"internalType": "address",
							"name": "customer",
							"type": "address"
						},
						{
							"internalType": "uint256",
							"name": "roomId",
							"type": "uint256"
						},
						{
							"internalType": "uint256",
							"name": "amountPaid",
							"type": "uint256"
						},
						{
							"internalType": "bool",
							"name": "isConfiremd",
							"type": "bool"
						},
						{
							"internalType": "uint256",
							"name": "checkoutTime",
							"type": "uint256"
						},
						{
							"internalType": "uint256",
							"name": "checkInTime",
							"type": "uint256"
						}
					],
					"stateMutability": "view",
					"type": "function"
				},
				{
					"inputs": [],
					"name": "deposit",
					"outputs": [],
					"stateMutability": "payable",
					"type": "function"
				},
				{
					"inputs": [
						{
							"internalType": "uint256",
							"name": "_i",
							"type": "uint256"
						}
					],
					"name": "removeRoom",
					"outputs": [],
					"stateMutability": "nonpayable",
					"type": "function"
				},
				{
					"inputs": [
						{
							"internalType": "uint256",
							"name": "",
							"type": "uint256"
						}
					],
					"name": "rooms",
					"outputs": [
						{
							"internalType": "uint256",
							"name": "id",
							"type": "uint256"
						},
						{
							"internalType": "uint256",
							"name": "roomPrice",
							"type": "uint256"
						},
						{
							"internalType": "bool",
							"name": "isAvailable",
							"type": "bool"
						},
						{
							"internalType": "uint256",
							"name": "roomCapacity",
							"type": "uint256"
						}
					],
					"stateMutability": "view",
					"type": "function"
				},
				{
					"inputs": [
						{
							"internalType": "uint256",
							"name": "_key",
							"type": "uint256"
						},
						{
							"internalType": "uint256",
							"name": "_newPrice",
							"type": "uint256"
						},
						{
							"internalType": "bool",
							"name": "_isAvailable",
							"type": "bool"
						}
					],
					"name": "updateRooms",
					"outputs": [],
					"stateMutability": "nonpayable",
					"type": "function"
				},
				{
					"stateMutability": "payable",
					"type": "receive"
				}
			],
			"devdoc": {
				"kind": "dev",
				"methods": {},
				"version": 1
			},
			"evm": {
				"assembly": "    /* \"contracts/10_HouseBooking.sol\":58:2736  contract Hostel{... */\n  mstore(0x40, 0x80)\n    /* \"contracts/10_HouseBooking.sol\":136:137  0 */\n  0x00\n    /* \"contracts/10_HouseBooking.sol\":109:137  uint public availableRooms=0 */\n  0x01\n  sstore\n    /* \"contracts/10_HouseBooking.sol\":145:204  constructor(){... */\n  callvalue\n  dup1\n  iszero\n  tag_1\n  jumpi\n  revert(0x00, 0x00)\ntag_1:\n  pop\n    /* \"contracts/10_HouseBooking.sol\":186:196  msg.sender */\n  caller\n    /* \"contracts/10_HouseBooking.sol\":168:175  manager */\n  0x00\n  0x00\n    /* \"contracts/10_HouseBooking.sol\":168:197  manager= payable (msg.sender) */\n  0x0100\n  exp\n  dup2\n  sload\n  dup2\n  0xffffffffffffffffffffffffffffffffffffffff\n  mul\n  not\n  and\n  swap1\n  dup4\n  0xffffffffffffffffffffffffffffffffffffffff\n  and\n  mul\n  or\n  swap1\n  sstore\n  pop\n    /* \"contracts/10_HouseBooking.sol\":58:2736  contract Hostel{... */\n  dataSize(sub_0)\n  dup1\n  dataOffset(sub_0)\n  0x00\n  codecopy\n  0x00\n  return\nstop\n\nsub_0: assembly {\n        /* \"contracts/10_HouseBooking.sol\":58:2736  contract Hostel{... */\n      mstore(0x40, 0x80)\n      jumpi(tag_1, lt(calldatasize, 0x04))\n      shr(0xe0, calldataload(0x00))\n      dup1\n      0x461d60be\n      gt\n      tag_12\n      jumpi\n      dup1\n      0x461d60be\n      eq\n      tag_7\n      jumpi\n      dup1\n      0x70ca7b03\n      eq\n      tag_8\n      jumpi\n      dup1\n      0x8a3a1a18\n      eq\n      tag_9\n      jumpi\n      dup1\n      0xae3c0176\n      eq\n      tag_10\n      jumpi\n      dup1\n      0xd0e30db0\n      eq\n      tag_11\n      jumpi\n      jump(tag_2)\n    tag_12:\n      dup1\n      0x1bae0ac8\n      eq\n      tag_3\n      jumpi\n      dup1\n      0x1dab301e\n      eq\n      tag_4\n      jumpi\n      dup1\n      0x27e235e3\n      eq\n      tag_5\n      jumpi\n      dup1\n      0x2c73ca76\n      eq\n      tag_6\n      jumpi\n      jump(tag_2)\n    tag_1:\n      jumpi(tag_2, calldatasize)\n      stop\n    tag_2:\n      revert(0x00, 0x00)\n        /* \"contracts/10_HouseBooking.sol\":340:376  mapping (uint => Room ) public rooms */\n    tag_3:\n      callvalue\n      dup1\n      iszero\n      tag_15\n      jumpi\n      revert(0x00, 0x00)\n    tag_15:\n      pop\n      tag_16\n      0x04\n      dup1\n      calldatasize\n      sub\n      dup2\n      add\n      swap1\n      tag_17\n      swap2\n      swap1\n      tag_18\n      jump\t// in\n    tag_17:\n      tag_19\n      jump\t// in\n    tag_16:\n      mload(0x40)\n      tag_20\n      swap5\n      swap4\n      swap3\n      swap2\n      swap1\n      tag_21\n      jump\t// in\n    tag_20:\n      mload(0x40)\n      dup1\n      swap2\n      sub\n      swap1\n      return\n        /* \"contracts/10_HouseBooking.sol\":585:626  mapping (uint => Booking) public bookings */\n    tag_4:\n      callvalue\n      dup1\n      iszero\n      tag_22\n      jumpi\n      revert(0x00, 0x00)\n    tag_22:\n      pop\n      tag_23\n      0x04\n      dup1\n      calldatasize\n      sub\n      dup2\n      add\n      swap1\n      tag_24\n      swap2\n      swap1\n      tag_18\n      jump\t// in\n    tag_24:\n      tag_25\n      jump\t// in\n    tag_23:\n      mload(0x40)\n      tag_26\n      swap7\n      swap6\n      swap5\n      swap4\n      swap3\n      swap2\n      swap1\n      tag_27\n      jump\t// in\n    tag_26:\n      mload(0x40)\n      dup1\n      swap2\n      sub\n      swap1\n      return\n        /* \"contracts/10_HouseBooking.sol\":632:673  mapping (address => uint) public balances */\n    tag_5:\n      callvalue\n      dup1\n      iszero\n      tag_28\n      jumpi\n      revert(0x00, 0x00)\n    tag_28:\n      pop\n      tag_29\n      0x04\n      dup1\n      calldatasize\n      sub\n      dup2\n      add\n      swap1\n      tag_30\n      swap2\n      swap1\n      tag_31\n      jump\t// in\n    tag_30:\n      tag_32\n      jump\t// in\n    tag_29:\n      mload(0x40)\n      tag_33\n      swap2\n      swap1\n      tag_34\n      jump\t// in\n    tag_33:\n      mload(0x40)\n      dup1\n      swap2\n      sub\n      swap1\n      return\n        /* \"contracts/10_HouseBooking.sol\":1159:1304  function addRoom(uint _i, uint _roomPrice,uint _roomCapacity) public onlyOwner{... */\n    tag_6:\n      callvalue\n      dup1\n      iszero\n      tag_35\n      jumpi\n      revert(0x00, 0x00)\n    tag_35:\n      pop\n      tag_36\n      0x04\n      dup1\n      calldatasize\n      sub\n      dup2\n      add\n      swap1\n      tag_37\n      swap2\n      swap1\n      tag_38\n      jump\t// in\n    tag_37:\n      tag_39\n      jump\t// in\n    tag_36:\n      stop\n        /* \"contracts/10_HouseBooking.sol\":1343:1421  function removeRoom(uint _i) public onlyOwner{... */\n    tag_7:\n      callvalue\n      dup1\n      iszero\n      tag_40\n      jumpi\n      revert(0x00, 0x00)\n    tag_40:\n      pop\n      tag_41\n      0x04\n      dup1\n      calldatasize\n      sub\n      dup2\n      add\n      swap1\n      tag_42\n      swap2\n      swap1\n      tag_18\n      jump\t// in\n    tag_42:\n      tag_43\n      jump\t// in\n    tag_41:\n      stop\n        /* \"contracts/10_HouseBooking.sol\":1493:1672  function updateRooms(uint _key, uint _newPrice, bool _isAvailable ) public  onlyOwner{... */\n    tag_8:\n      callvalue\n      dup1\n      iszero\n      tag_44\n      jumpi\n      revert(0x00, 0x00)\n    tag_44:\n      pop\n      tag_45\n      0x04\n      dup1\n      calldatasize\n      sub\n      dup2\n      add\n      swap1\n      tag_46\n      swap2\n      swap1\n      tag_47\n      jump\t// in\n    tag_46:\n      tag_48\n      jump\t// in\n    tag_45:\n      stop\n        /* \"contracts/10_HouseBooking.sol\":1715:2451  function bookRoom(uint _roomId, uint _stayDuration ) public payable notOwners roomAvailable(_roomId) {... */\n    tag_9:\n      tag_49\n      0x04\n      dup1\n      calldatasize\n      sub\n      dup2\n      add\n      swap1\n      tag_50\n      swap2\n      swap1\n      tag_51\n      jump\t// in\n    tag_50:\n      tag_52\n      jump\t// in\n    tag_49:\n      stop\n        /* \"contracts/10_HouseBooking.sol\":109:137  uint public availableRooms=0 */\n    tag_10:\n      callvalue\n      dup1\n      iszero\n      tag_53\n      jumpi\n      revert(0x00, 0x00)\n    tag_53:\n      pop\n      tag_54\n      tag_55\n      jump\t// in\n    tag_54:\n      mload(0x40)\n      tag_56\n      swap2\n      swap1\n      tag_34\n      jump\t// in\n    tag_56:\n      mload(0x40)\n      dup1\n      swap2\n      sub\n      swap1\n      return\n        /* \"contracts/10_HouseBooking.sol\":2483:2629  function deposit() public payable {... */\n    tag_11:\n      tag_57\n      tag_58\n      jump\t// in\n    tag_57:\n      stop\n        /* \"contracts/10_HouseBooking.sol\":340:376  mapping (uint => Room ) public rooms */\n    tag_19:\n      mstore(0x20, 0x02)\n      dup1\n      0x00\n      mstore\n      keccak256(0x00, 0x40)\n      0x00\n      swap2\n      pop\n      swap1\n      pop\n      dup1\n      0x00\n      add\n      sload\n      swap1\n      dup1\n      0x01\n      add\n      sload\n      swap1\n      dup1\n      0x02\n      add\n      0x00\n      swap1\n      sload\n      swap1\n      0x0100\n      exp\n      swap1\n      div\n      0xff\n      and\n      swap1\n      dup1\n      0x03\n      add\n      sload\n      swap1\n      pop\n      dup5\n      jump\t// out\n        /* \"contracts/10_HouseBooking.sol\":585:626  mapping (uint => Booking) public bookings */\n    tag_25:\n      mstore(0x20, 0x03)\n      dup1\n      0x00\n      mstore\n      keccak256(0x00, 0x40)\n      0x00\n      swap2\n      pop\n      swap1\n      pop\n      dup1\n      0x00\n      add\n      0x00\n      swap1\n      sload\n      swap1\n      0x0100\n      exp\n      swap1\n      div\n      0xffffffffffffffffffffffffffffffffffffffff\n      and\n      swap1\n      dup1\n      0x01\n      add\n      sload\n      swap1\n      dup1\n      0x02\n      add\n      sload\n      swap1\n      dup1\n      0x03\n      add\n      0x00\n      swap1\n      sload\n      swap1\n      0x0100\n      exp\n      swap1\n      div\n      0xff\n      and\n      swap1\n      dup1\n      0x04\n      add\n      sload\n      swap1\n      dup1\n      0x05\n      add\n      sload\n      swap1\n      pop\n      dup7\n      jump\t// out\n        /* \"contracts/10_HouseBooking.sol\":632:673  mapping (address => uint) public balances */\n    tag_32:\n      mstore(0x20, 0x04)\n      dup1\n      0x00\n      mstore\n      keccak256(0x00, 0x40)\n      0x00\n      swap2\n      pop\n      swap1\n      pop\n      sload\n      dup2\n      jump\t// out\n        /* \"contracts/10_HouseBooking.sol\":1159:1304  function addRoom(uint _i, uint _roomPrice,uint _roomCapacity) public onlyOwner{... */\n    tag_39:\n        /* \"contracts/10_HouseBooking.sol\":765:772  manager */\n      0x00\n      0x00\n      swap1\n      sload\n      swap1\n      0x0100\n      exp\n      swap1\n      div\n      0xffffffffffffffffffffffffffffffffffffffff\n      and\n        /* \"contracts/10_HouseBooking.sol\":751:772  msg.sender == manager */\n      0xffffffffffffffffffffffffffffffffffffffff\n      and\n        /* \"contracts/10_HouseBooking.sol\":751:761  msg.sender */\n      caller\n        /* \"contracts/10_HouseBooking.sol\":751:772  msg.sender == manager */\n      0xffffffffffffffffffffffffffffffffffffffff\n      and\n      eq\n        /* \"contracts/10_HouseBooking.sol\":743:792  require(msg.sender == manager, \"Not the manager\") */\n      tag_60\n      jumpi\n      mload(0x40)\n      0x08c379a000000000000000000000000000000000000000000000000000000000\n      dup2\n      mstore\n      0x04\n      add\n      tag_61\n      swap1\n      tag_62\n      jump\t// in\n    tag_61:\n      mload(0x40)\n      dup1\n      swap2\n      sub\n      swap1\n      revert\n    tag_60:\n        /* \"contracts/10_HouseBooking.sol\":1258:1297  Room(_i,_roomPrice,false,_roomCapacity) */\n      mload(0x40)\n      dup1\n      0x80\n      add\n      0x40\n      mstore\n      dup1\n        /* \"contracts/10_HouseBooking.sol\":1263:1265  _i */\n      dup5\n        /* \"contracts/10_HouseBooking.sol\":1258:1297  Room(_i,_roomPrice,false,_roomCapacity) */\n      dup2\n      mstore\n      0x20\n      add\n        /* \"contracts/10_HouseBooking.sol\":1266:1276  _roomPrice */\n      dup4\n        /* \"contracts/10_HouseBooking.sol\":1258:1297  Room(_i,_roomPrice,false,_roomCapacity) */\n      dup2\n      mstore\n      0x20\n      add\n        /* \"contracts/10_HouseBooking.sol\":1277:1282  false */\n      0x00\n        /* \"contracts/10_HouseBooking.sol\":1258:1297  Room(_i,_roomPrice,false,_roomCapacity) */\n      iszero\n      iszero\n      dup2\n      mstore\n      0x20\n      add\n        /* \"contracts/10_HouseBooking.sol\":1283:1296  _roomCapacity */\n      dup3\n        /* \"contracts/10_HouseBooking.sol\":1258:1297  Room(_i,_roomPrice,false,_roomCapacity) */\n      dup2\n      mstore\n      pop\n        /* \"contracts/10_HouseBooking.sol\":1248:1253  rooms */\n      0x02\n        /* \"contracts/10_HouseBooking.sol\":1248:1257  rooms[_i] */\n      0x00\n        /* \"contracts/10_HouseBooking.sol\":1254:1256  _i */\n      dup6\n        /* \"contracts/10_HouseBooking.sol\":1248:1257  rooms[_i] */\n      dup2\n      mstore\n      0x20\n      add\n      swap1\n      dup2\n      mstore\n      0x20\n      add\n      0x00\n      keccak256\n        /* \"contracts/10_HouseBooking.sol\":1248:1297  rooms[_i]=Room(_i,_roomPrice,false,_roomCapacity) */\n      0x00\n      dup3\n      add\n      mload\n      dup2\n      0x00\n      add\n      sstore\n      0x20\n      dup3\n      add\n      mload\n      dup2\n      0x01\n      add\n      sstore\n      0x40\n      dup3\n      add\n      mload\n      dup2\n      0x02\n      add\n      exp(0x0100, 0x00)\n      dup2\n      sload\n      dup2\n      0xff\n      mul\n      not\n      and\n      swap1\n      dup4\n      iszero\n      iszero\n      mul\n      or\n      swap1\n      sstore\n      pop\n      0x60\n      dup3\n      add\n      mload\n      dup2\n      0x03\n      add\n      sstore\n      swap1\n      pop\n      pop\n        /* \"contracts/10_HouseBooking.sol\":1159:1304  function addRoom(uint _i, uint _roomPrice,uint _roomCapacity) public onlyOwner{... */\n      pop\n      pop\n      pop\n      jump\t// out\n        /* \"contracts/10_HouseBooking.sol\":1343:1421  function removeRoom(uint _i) public onlyOwner{... */\n    tag_43:\n        /* \"contracts/10_HouseBooking.sol\":765:772  manager */\n      0x00\n      0x00\n      swap1\n      sload\n      swap1\n      0x0100\n      exp\n      swap1\n      div\n      0xffffffffffffffffffffffffffffffffffffffff\n      and\n        /* \"contracts/10_HouseBooking.sol\":751:772  msg.sender == manager */\n      0xffffffffffffffffffffffffffffffffffffffff\n      and\n        /* \"contracts/10_HouseBooking.sol\":751:761  msg.sender */\n      caller\n        /* \"contracts/10_HouseBooking.sol\":751:772  msg.sender == manager */\n      0xffffffffffffffffffffffffffffffffffffffff\n      and\n      eq\n        /* \"contracts/10_HouseBooking.sol\":743:792  require(msg.sender == manager, \"Not the manager\") */\n      tag_65\n      jumpi\n      mload(0x40)\n      0x08c379a000000000000000000000000000000000000000000000000000000000\n      dup2\n      mstore\n      0x04\n      add\n      tag_66\n      swap1\n      tag_62\n      jump\t// in\n    tag_66:\n      mload(0x40)\n      dup1\n      swap2\n      sub\n      swap1\n      revert\n    tag_65:\n        /* \"contracts/10_HouseBooking.sol\":1405:1410  rooms */\n      0x02\n        /* \"contracts/10_HouseBooking.sol\":1405:1414  rooms[_i] */\n      0x00\n        /* \"contracts/10_HouseBooking.sol\":1411:1413  _i */\n      dup3\n        /* \"contracts/10_HouseBooking.sol\":1405:1414  rooms[_i] */\n      dup2\n      mstore\n      0x20\n      add\n      swap1\n      dup2\n      mstore\n      0x20\n      add\n      0x00\n      keccak256\n      0x00\n        /* \"contracts/10_HouseBooking.sol\":1398:1414  delete rooms[_i] */\n      0x00\n      dup3\n      add\n      0x00\n      swap1\n      sstore\n      0x01\n      dup3\n      add\n      0x00\n      swap1\n      sstore\n      0x02\n      dup3\n      add\n      exp(0x0100, 0x00)\n      dup2\n      sload\n      swap1\n      0xff\n      mul\n      not\n      and\n      swap1\n      sstore\n      0x03\n      dup3\n      add\n      0x00\n      swap1\n      sstore\n      pop\n      pop\n        /* \"contracts/10_HouseBooking.sol\":1343:1421  function removeRoom(uint _i) public onlyOwner{... */\n      pop\n      jump\t// out\n        /* \"contracts/10_HouseBooking.sol\":1493:1672  function updateRooms(uint _key, uint _newPrice, bool _isAvailable ) public  onlyOwner{... */\n    tag_48:\n        /* \"contracts/10_HouseBooking.sol\":765:772  manager */\n      0x00\n      0x00\n      swap1\n      sload\n      swap1\n      0x0100\n      exp\n      swap1\n      div\n      0xffffffffffffffffffffffffffffffffffffffff\n      and\n        /* \"contracts/10_HouseBooking.sol\":751:772  msg.sender == manager */\n      0xffffffffffffffffffffffffffffffffffffffff\n      and\n        /* \"contracts/10_HouseBooking.sol\":751:761  msg.sender */\n      caller\n        /* \"contracts/10_HouseBooking.sol\":751:772  msg.sender == manager */\n      0xffffffffffffffffffffffffffffffffffffffff\n      and\n      eq\n        /* \"contracts/10_HouseBooking.sol\":743:792  require(msg.sender == manager, \"Not the manager\") */\n      tag_69\n      jumpi\n      mload(0x40)\n      0x08c379a000000000000000000000000000000000000000000000000000000000\n      dup2\n      mstore\n      0x04\n      add\n      tag_70\n      swap1\n      tag_62\n      jump\t// in\n    tag_70:\n      mload(0x40)\n      dup1\n      swap2\n      sub\n      swap1\n      revert\n    tag_69:\n        /* \"contracts/10_HouseBooking.sol\":1610:1619  _newPrice */\n      dup2\n        /* \"contracts/10_HouseBooking.sol\":1588:1593  rooms */\n      0x02\n        /* \"contracts/10_HouseBooking.sol\":1588:1599  rooms[_key] */\n      0x00\n        /* \"contracts/10_HouseBooking.sol\":1594:1598  _key */\n      dup6\n        /* \"contracts/10_HouseBooking.sol\":1588:1599  rooms[_key] */\n      dup2\n      mstore\n      0x20\n      add\n      swap1\n      dup2\n      mstore\n      0x20\n      add\n      0x00\n      keccak256\n        /* \"contracts/10_HouseBooking.sol\":1588:1609  rooms[_key].roomPrice */\n      0x01\n      add\n        /* \"contracts/10_HouseBooking.sol\":1588:1619  rooms[_key].roomPrice=_newPrice */\n      dup2\n      swap1\n      sstore\n      pop\n        /* \"contracts/10_HouseBooking.sol\":1653:1665  _isAvailable */\n      dup1\n        /* \"contracts/10_HouseBooking.sol\":1629:1634  rooms */\n      0x02\n        /* \"contracts/10_HouseBooking.sol\":1629:1640  rooms[_key] */\n      0x00\n        /* \"contracts/10_HouseBooking.sol\":1635:1639  _key */\n      dup6\n        /* \"contracts/10_HouseBooking.sol\":1629:1640  rooms[_key] */\n      dup2\n      mstore\n      0x20\n      add\n      swap1\n      dup2\n      mstore\n      0x20\n      add\n      0x00\n      keccak256\n        /* \"contracts/10_HouseBooking.sol\":1629:1652  rooms[_key].isAvailable */\n      0x02\n      add\n      0x00\n        /* \"contracts/10_HouseBooking.sol\":1629:1665  rooms[_key].isAvailable=_isAvailable */\n      0x0100\n      exp\n      dup2\n      sload\n      dup2\n      0xff\n      mul\n      not\n      and\n      swap1\n      dup4\n      iszero\n      iszero\n      mul\n      or\n      swap1\n      sstore\n      pop\n        /* \"contracts/10_HouseBooking.sol\":1493:1672  function updateRooms(uint _key, uint _newPrice, bool _isAvailable ) public  onlyOwner{... */\n      pop\n      pop\n      pop\n      jump\t// out\n        /* \"contracts/10_HouseBooking.sol\":1715:2451  function bookRoom(uint _roomId, uint _stayDuration ) public payable notOwners roomAvailable(_roomId) {... */\n    tag_52:\n        /* \"contracts/10_HouseBooking.sol\":891:898  manager */\n      0x00\n      0x00\n      swap1\n      sload\n      swap1\n      0x0100\n      exp\n      swap1\n      div\n      0xffffffffffffffffffffffffffffffffffffffff\n      and\n        /* \"contracts/10_HouseBooking.sol\":877:898  msg.sender != manager */\n      0xffffffffffffffffffffffffffffffffffffffff\n      and\n        /* \"contracts/10_HouseBooking.sol\":877:887  msg.sender */\n      caller\n        /* \"contracts/10_HouseBooking.sol\":877:898  msg.sender != manager */\n      0xffffffffffffffffffffffffffffffffffffffff\n      and\n      sub\n        /* \"contracts/10_HouseBooking.sol\":869:913  require(msg.sender != manager, \"Not owners\") */\n      tag_73\n      jumpi\n      mload(0x40)\n      0x08c379a000000000000000000000000000000000000000000000000000000000\n      dup2\n      mstore\n      0x04\n      add\n      tag_74\n      swap1\n      tag_75\n      jump\t// in\n    tag_74:\n      mload(0x40)\n      dup1\n      swap2\n      sub\n      swap1\n      revert\n    tag_73:\n        /* \"contracts/10_HouseBooking.sol\":1807:1814  _roomId */\n      dup2\n        /* \"contracts/10_HouseBooking.sol\":1058:1062  true */\n      0x01\n        /* \"contracts/10_HouseBooking.sol\":1028:1062  rooms[_roomId].isAvailable == true */\n      iszero\n      iszero\n        /* \"contracts/10_HouseBooking.sol\":1028:1033  rooms */\n      0x02\n        /* \"contracts/10_HouseBooking.sol\":1028:1042  rooms[_roomId] */\n      0x00\n        /* \"contracts/10_HouseBooking.sol\":1034:1041  _roomId */\n      dup4\n        /* \"contracts/10_HouseBooking.sol\":1028:1042  rooms[_roomId] */\n      dup2\n      mstore\n      0x20\n      add\n      swap1\n      dup2\n      mstore\n      0x20\n      add\n      0x00\n      keccak256\n        /* \"contracts/10_HouseBooking.sol\":1028:1054  rooms[_roomId].isAvailable */\n      0x02\n      add\n      0x00\n      swap1\n      sload\n      swap1\n      0x0100\n      exp\n      swap1\n      div\n      0xff\n      and\n        /* \"contracts/10_HouseBooking.sol\":1028:1062  rooms[_roomId].isAvailable == true */\n      iszero\n      iszero\n      eq\n        /* \"contracts/10_HouseBooking.sol\":1020:1084  require(rooms[_roomId].isAvailable == true,\"Room not available\") */\n      tag_77\n      jumpi\n      mload(0x40)\n      0x08c379a000000000000000000000000000000000000000000000000000000000\n      dup2\n      mstore\n      0x04\n      add\n      tag_78\n      swap1\n      tag_79\n      jump\t// in\n    tag_78:\n      mload(0x40)\n      dup1\n      swap2\n      sub\n      swap1\n      revert\n    tag_77:\n        /* \"contracts/10_HouseBooking.sol\":1849:1854  rooms */\n      0x02\n        /* \"contracts/10_HouseBooking.sol\":1849:1863  rooms[_roomId] */\n      0x00\n        /* \"contracts/10_HouseBooking.sol\":1855:1862  _roomId */\n      dup5\n        /* \"contracts/10_HouseBooking.sol\":1849:1863  rooms[_roomId] */\n      dup2\n      mstore\n      0x20\n      add\n      swap1\n      dup2\n      mstore\n      0x20\n      add\n      0x00\n      keccak256\n        /* \"contracts/10_HouseBooking.sol\":1849:1873  rooms[_roomId].roomPrice */\n      0x01\n      add\n      sload\n        /* \"contracts/10_HouseBooking.sol\":1836:1845  msg.value */\n      callvalue\n        /* \"contracts/10_HouseBooking.sol\":1836:1873  msg.value >= rooms[_roomId].roomPrice */\n      lt\n      iszero\n        /* \"contracts/10_HouseBooking.sol\":1828:1895  require(msg.value >= rooms[_roomId].roomPrice,\"Insuficient ethers\") */\n      tag_81\n      jumpi\n      mload(0x40)\n      0x08c379a000000000000000000000000000000000000000000000000000000000\n      dup2\n      mstore\n      0x04\n      add\n      tag_82\n      swap1\n      tag_83\n      jump\t// in\n    tag_82:\n      mload(0x40)\n      dup1\n      swap2\n      sub\n      swap1\n      revert\n    tag_81:\n        /* \"contracts/10_HouseBooking.sol\":1978:1983  false */\n      0x00\n        /* \"contracts/10_HouseBooking.sol\":1951:1956  rooms */\n      0x02\n        /* \"contracts/10_HouseBooking.sol\":1951:1965  rooms[_roomId] */\n      0x00\n        /* \"contracts/10_HouseBooking.sol\":1957:1964  _roomId */\n      dup6\n        /* \"contracts/10_HouseBooking.sol\":1951:1965  rooms[_roomId] */\n      dup2\n      mstore\n      0x20\n      add\n      swap1\n      dup2\n      mstore\n      0x20\n      add\n      0x00\n      keccak256\n        /* \"contracts/10_HouseBooking.sol\":1951:1977  rooms[_roomId].isAvailable */\n      0x02\n      add\n      0x00\n        /* \"contracts/10_HouseBooking.sol\":1951:1983  rooms[_roomId].isAvailable=false */\n      0x0100\n      exp\n      dup2\n      sload\n      dup2\n      0xff\n      mul\n      not\n      and\n      swap1\n      dup4\n      iszero\n      iszero\n      mul\n      or\n      swap1\n      sstore\n      pop\n        /* \"contracts/10_HouseBooking.sol\":2036:2052  uint checkInTime */\n      0x00\n        /* \"contracts/10_HouseBooking.sol\":2053:2068  block.timestamp */\n      timestamp\n        /* \"contracts/10_HouseBooking.sol\":2036:2068  uint checkInTime=block.timestamp */\n      swap1\n      pop\n        /* \"contracts/10_HouseBooking.sol\":2108:2125  uint checkOutTime */\n      0x00\n        /* \"contracts/10_HouseBooking.sol\":2156:2162  1 days */\n      0x015180\n        /* \"contracts/10_HouseBooking.sol\":2140:2153  _stayDuration */\n      dup5\n        /* \"contracts/10_HouseBooking.sol\":2140:2162  _stayDuration * 1 days */\n      tag_84\n      swap2\n      swap1\n      tag_85\n      jump\t// in\n    tag_84:\n        /* \"contracts/10_HouseBooking.sol\":2126:2137  checkInTime */\n      dup3\n        /* \"contracts/10_HouseBooking.sol\":2126:2162  checkInTime + _stayDuration * 1 days */\n      tag_86\n      swap2\n      swap1\n      tag_87\n      jump\t// in\n    tag_86:\n        /* \"contracts/10_HouseBooking.sol\":2108:2162  uint checkOutTime=checkInTime + _stayDuration * 1 days */\n      swap1\n      pop\n        /* \"contracts/10_HouseBooking.sol\":2195:2443  Booking({... */\n      mload(0x40)\n      dup1\n      0xc0\n      add\n      0x40\n      mstore\n      dup1\n        /* \"contracts/10_HouseBooking.sol\":2230:2240  msg.sender */\n      caller\n        /* \"contracts/10_HouseBooking.sol\":2195:2443  Booking({... */\n      0xffffffffffffffffffffffffffffffffffffffff\n      and\n      dup2\n      mstore\n      0x20\n      add\n        /* \"contracts/10_HouseBooking.sol\":2265:2272  _roomId */\n      dup7\n        /* \"contracts/10_HouseBooking.sol\":2195:2443  Booking({... */\n      dup2\n      mstore\n      0x20\n      add\n        /* \"contracts/10_HouseBooking.sol\":2301:2310  msg.value */\n      callvalue\n        /* \"contracts/10_HouseBooking.sol\":2195:2443  Booking({... */\n      dup2\n      mstore\n      0x20\n      add\n        /* \"contracts/10_HouseBooking.sol\":2340:2344  true */\n      0x01\n        /* \"contracts/10_HouseBooking.sol\":2195:2443  Booking({... */\n      iszero\n      iszero\n      dup2\n      mstore\n      0x20\n      add\n        /* \"contracts/10_HouseBooking.sol\":2376:2388  checkOutTime */\n      dup3\n        /* \"contracts/10_HouseBooking.sol\":2195:2443  Booking({... */\n      dup2\n      mstore\n      0x20\n      add\n        /* \"contracts/10_HouseBooking.sol\":2419:2430  checkInTime */\n      dup4\n        /* \"contracts/10_HouseBooking.sol\":2195:2443  Booking({... */\n      dup2\n      mstore\n      pop\n        /* \"contracts/10_HouseBooking.sol\":2175:2183  bookings */\n      0x03\n        /* \"contracts/10_HouseBooking.sol\":2175:2192  bookings[_roomId] */\n      0x00\n        /* \"contracts/10_HouseBooking.sol\":2184:2191  _roomId */\n      dup8\n        /* \"contracts/10_HouseBooking.sol\":2175:2192  bookings[_roomId] */\n      dup2\n      mstore\n      0x20\n      add\n      swap1\n      dup2\n      mstore\n      0x20\n      add\n      0x00\n      keccak256\n        /* \"contracts/10_HouseBooking.sol\":2175:2443  bookings[_roomId] = Booking({... */\n      0x00\n      dup3\n      add\n      mload\n      dup2\n      0x00\n      add\n      exp(0x0100, 0x00)\n      dup2\n      sload\n      dup2\n      0xffffffffffffffffffffffffffffffffffffffff\n      mul\n      not\n      and\n      swap1\n      dup4\n      0xffffffffffffffffffffffffffffffffffffffff\n      and\n      mul\n      or\n      swap1\n      sstore\n      pop\n      0x20\n      dup3\n      add\n      mload\n      dup2\n      0x01\n      add\n      sstore\n      0x40\n      dup3\n      add\n      mload\n      dup2\n      0x02\n      add\n      sstore\n      0x60\n      dup3\n      add\n      mload\n      dup2\n      0x03\n      add\n      exp(0x0100, 0x00)\n      dup2\n      sload\n      dup2\n      0xff\n      mul\n      not\n      and\n      swap1\n      dup4\n      iszero\n      iszero\n      mul\n      or\n      swap1\n      sstore\n      pop\n      0x80\n      dup3\n      add\n      mload\n      dup2\n      0x04\n      add\n      sstore\n      0xa0\n      dup3\n      add\n      mload\n      dup2\n      0x05\n      add\n      sstore\n      swap1\n      pop\n      pop\n        /* \"contracts/10_HouseBooking.sol\":1816:2451  {... */\n      pop\n      pop\n        /* \"contracts/10_HouseBooking.sol\":923:924  _ */\n      pop\n        /* \"contracts/10_HouseBooking.sol\":1715:2451  function bookRoom(uint _roomId, uint _stayDuration ) public payable notOwners roomAvailable(_roomId) {... */\n      pop\n      pop\n      jump\t// out\n        /* \"contracts/10_HouseBooking.sol\":109:137  uint public availableRooms=0 */\n    tag_55:\n      sload(0x01)\n      dup2\n      jump\t// out\n        /* \"contracts/10_HouseBooking.sol\":2483:2629  function deposit() public payable {... */\n    tag_58:\n        /* \"contracts/10_HouseBooking.sol\":2546:2547  0 */\n      0x00\n        /* \"contracts/10_HouseBooking.sol\":2534:2543  msg.value */\n      callvalue\n        /* \"contracts/10_HouseBooking.sol\":2534:2547  msg.value > 0 */\n      gt\n        /* \"contracts/10_HouseBooking.sol\":2526:2580  require(msg.value > 0, \"value must be greater than 0\") */\n      tag_89\n      jumpi\n      mload(0x40)\n      0x08c379a000000000000000000000000000000000000000000000000000000000\n      dup2\n      mstore\n      0x04\n      add\n      tag_90\n      swap1\n      tag_91\n      jump\t// in\n    tag_90:\n      mload(0x40)\n      dup1\n      swap2\n      sub\n      swap1\n      revert\n    tag_89:\n        /* \"contracts/10_HouseBooking.sol\":2613:2622  msg.value */\n      callvalue\n        /* \"contracts/10_HouseBooking.sol\":2589:2597  balances */\n      0x04\n        /* \"contracts/10_HouseBooking.sol\":2589:2609  balances[msg.sender] */\n      0x00\n        /* \"contracts/10_HouseBooking.sol\":2598:2608  msg.sender */\n      caller\n        /* \"contracts/10_HouseBooking.sol\":2589:2609  balances[msg.sender] */\n      0xffffffffffffffffffffffffffffffffffffffff\n      and\n      0xffffffffffffffffffffffffffffffffffffffff\n      and\n      dup2\n      mstore\n      0x20\n      add\n      swap1\n      dup2\n      mstore\n      0x20\n      add\n      0x00\n      keccak256\n      0x00\n        /* \"contracts/10_HouseBooking.sol\":2589:2622  balances[msg.sender] += msg.value */\n      dup3\n      dup3\n      sload\n      tag_92\n      swap2\n      swap1\n      tag_87\n      jump\t// in\n    tag_92:\n      swap3\n      pop\n      pop\n      dup2\n      swap1\n      sstore\n      pop\n        /* \"contracts/10_HouseBooking.sol\":2483:2629  function deposit() public payable {... */\n      jump\t// out\n        /* \"#utility.yul\":88:205   */\n    tag_94:\n        /* \"#utility.yul\":197:198   */\n      0x00\n        /* \"#utility.yul\":194:195   */\n      0x00\n        /* \"#utility.yul\":187:199   */\n      revert\n        /* \"#utility.yul\":334:411   */\n    tag_96:\n        /* \"#utility.yul\":371:378   */\n      0x00\n        /* \"#utility.yul\":400:405   */\n      dup2\n        /* \"#utility.yul\":389:405   */\n      swap1\n      pop\n        /* \"#utility.yul\":334:411   */\n      swap2\n      swap1\n      pop\n      jump\t// out\n        /* \"#utility.yul\":417:539   */\n    tag_97:\n        /* \"#utility.yul\":490:514   */\n      tag_127\n        /* \"#utility.yul\":508:513   */\n      dup2\n        /* \"#utility.yul\":490:514   */\n      tag_96\n      jump\t// in\n    tag_127:\n        /* \"#utility.yul\":483:488   */\n      dup2\n        /* \"#utility.yul\":480:515   */\n      eq\n        /* \"#utility.yul\":470:533   */\n      tag_128\n      jumpi\n        /* \"#utility.yul\":529:530   */\n      0x00\n        /* \"#utility.yul\":526:527   */\n      0x00\n        /* \"#utility.yul\":519:531   */\n      revert\n        /* \"#utility.yul\":470:533   */\n    tag_128:\n        /* \"#utility.yul\":417:539   */\n      pop\n      jump\t// out\n        /* \"#utility.yul\":545:684   */\n    tag_98:\n        /* \"#utility.yul\":591:596   */\n      0x00\n        /* \"#utility.yul\":629:635   */\n      dup2\n        /* \"#utility.yul\":616:636   */\n      calldataload\n        /* \"#utility.yul\":607:636   */\n      swap1\n      pop\n        /* \"#utility.yul\":645:678   */\n      tag_130\n        /* \"#utility.yul\":672:677   */\n      dup2\n        /* \"#utility.yul\":645:678   */\n      tag_97\n      jump\t// in\n    tag_130:\n        /* \"#utility.yul\":545:684   */\n      swap3\n      swap2\n      pop\n      pop\n      jump\t// out\n        /* \"#utility.yul\":690:1019   */\n    tag_18:\n        /* \"#utility.yul\":749:755   */\n      0x00\n        /* \"#utility.yul\":798:800   */\n      0x20\n        /* \"#utility.yul\":786:795   */\n      dup3\n        /* \"#utility.yul\":777:784   */\n      dup5\n        /* \"#utility.yul\":773:796   */\n      sub\n        /* \"#utility.yul\":769:801   */\n      slt\n        /* \"#utility.yul\":766:885   */\n      iszero\n      tag_132\n      jumpi\n        /* \"#utility.yul\":804:883   */\n      tag_133\n      tag_94\n      jump\t// in\n    tag_133:\n        /* \"#utility.yul\":766:885   */\n    tag_132:\n        /* \"#utility.yul\":924:925   */\n      0x00\n        /* \"#utility.yul\":949:1002   */\n      tag_134\n        /* \"#utility.yul\":994:1001   */\n      dup5\n        /* \"#utility.yul\":985:991   */\n      dup3\n        /* \"#utility.yul\":974:983   */\n      dup6\n        /* \"#utility.yul\":970:992   */\n      add\n        /* \"#utility.yul\":949:1002   */\n      tag_98\n      jump\t// in\n    tag_134:\n        /* \"#utility.yul\":939:1002   */\n      swap2\n      pop\n        /* \"#utility.yul\":895:1012   */\n      pop\n        /* \"#utility.yul\":690:1019   */\n      swap3\n      swap2\n      pop\n      pop\n      jump\t// out\n        /* \"#utility.yul\":1025:1143   */\n    tag_99:\n        /* \"#utility.yul\":1112:1136   */\n      tag_136\n        /* \"#utility.yul\":1130:1135   */\n      dup2\n        /* \"#utility.yul\":1112:1136   */\n      tag_96\n      jump\t// in\n    tag_136:\n        /* \"#utility.yul\":1107:1110   */\n      dup3\n        /* \"#utility.yul\":1100:1137   */\n      mstore\n        /* \"#utility.yul\":1025:1143   */\n      pop\n      pop\n      jump\t// out\n        /* \"#utility.yul\":1149:1239   */\n    tag_100:\n        /* \"#utility.yul\":1183:1190   */\n      0x00\n        /* \"#utility.yul\":1226:1231   */\n      dup2\n        /* \"#utility.yul\":1219:1232   */\n      iszero\n        /* \"#utility.yul\":1212:1233   */\n      iszero\n        /* \"#utility.yul\":1201:1233   */\n      swap1\n      pop\n        /* \"#utility.yul\":1149:1239   */\n      swap2\n      swap1\n      pop\n      jump\t// out\n        /* \"#utility.yul\":1245:1354   */\n    tag_101:\n        /* \"#utility.yul\":1326:1347   */\n      tag_139\n        /* \"#utility.yul\":1341:1346   */\n      dup2\n        /* \"#utility.yul\":1326:1347   */\n      tag_100\n      jump\t// in\n    tag_139:\n        /* \"#utility.yul\":1321:1324   */\n      dup3\n        /* \"#utility.yul\":1314:1348   */\n      mstore\n        /* \"#utility.yul\":1245:1354   */\n      pop\n      pop\n      jump\t// out\n        /* \"#utility.yul\":1360:1901   */\n    tag_21:\n        /* \"#utility.yul\":1531:1535   */\n      0x00\n        /* \"#utility.yul\":1569:1572   */\n      0x80\n        /* \"#utility.yul\":1558:1567   */\n      dup3\n        /* \"#utility.yul\":1554:1573   */\n      add\n        /* \"#utility.yul\":1546:1573   */\n      swap1\n      pop\n        /* \"#utility.yul\":1583:1654   */\n      tag_141\n        /* \"#utility.yul\":1651:1652   */\n      0x00\n        /* \"#utility.yul\":1640:1649   */\n      dup4\n        /* \"#utility.yul\":1636:1653   */\n      add\n        /* \"#utility.yul\":1627:1633   */\n      dup8\n        /* \"#utility.yul\":1583:1654   */\n      tag_99\n      jump\t// in\n    tag_141:\n        /* \"#utility.yul\":1664:1736   */\n      tag_142\n        /* \"#utility.yul\":1732:1734   */\n      0x20\n        /* \"#utility.yul\":1721:1730   */\n      dup4\n        /* \"#utility.yul\":1717:1735   */\n      add\n        /* \"#utility.yul\":1708:1714   */\n      dup7\n        /* \"#utility.yul\":1664:1736   */\n      tag_99\n      jump\t// in\n    tag_142:\n        /* \"#utility.yul\":1746:1812   */\n      tag_143\n        /* \"#utility.yul\":1808:1810   */\n      0x40\n        /* \"#utility.yul\":1797:1806   */\n      dup4\n        /* \"#utility.yul\":1793:1811   */\n      add\n        /* \"#utility.yul\":1784:1790   */\n      dup6\n        /* \"#utility.yul\":1746:1812   */\n      tag_101\n      jump\t// in\n    tag_143:\n        /* \"#utility.yul\":1822:1894   */\n      tag_144\n        /* \"#utility.yul\":1890:1892   */\n      0x60\n        /* \"#utility.yul\":1879:1888   */\n      dup4\n        /* \"#utility.yul\":1875:1893   */\n      add\n        /* \"#utility.yul\":1866:1872   */\n      dup5\n        /* \"#utility.yul\":1822:1894   */\n      tag_99\n      jump\t// in\n    tag_144:\n        /* \"#utility.yul\":1360:1901   */\n      swap6\n      swap5\n      pop\n      pop\n      pop\n      pop\n      pop\n      jump\t// out\n        /* \"#utility.yul\":1907:2033   */\n    tag_102:\n        /* \"#utility.yul\":1944:1951   */\n      0x00\n        /* \"#utility.yul\":1984:2026   */\n      0xffffffffffffffffffffffffffffffffffffffff\n        /* \"#utility.yul\":1977:1982   */\n      dup3\n        /* \"#utility.yul\":1973:2027   */\n      and\n        /* \"#utility.yul\":1962:2027   */\n      swap1\n      pop\n        /* \"#utility.yul\":1907:2033   */\n      swap2\n      swap1\n      pop\n      jump\t// out\n        /* \"#utility.yul\":2039:2135   */\n    tag_103:\n        /* \"#utility.yul\":2076:2083   */\n      0x00\n        /* \"#utility.yul\":2105:2129   */\n      tag_147\n        /* \"#utility.yul\":2123:2128   */\n      dup3\n        /* \"#utility.yul\":2105:2129   */\n      tag_102\n      jump\t// in\n    tag_147:\n        /* \"#utility.yul\":2094:2129   */\n      swap1\n      pop\n        /* \"#utility.yul\":2039:2135   */\n      swap2\n      swap1\n      pop\n      jump\t// out\n        /* \"#utility.yul\":2141:2259   */\n    tag_104:\n        /* \"#utility.yul\":2228:2252   */\n      tag_149\n        /* \"#utility.yul\":2246:2251   */\n      dup2\n        /* \"#utility.yul\":2228:2252   */\n      tag_103\n      jump\t// in\n    tag_149:\n        /* \"#utility.yul\":2223:2226   */\n      dup3\n        /* \"#utility.yul\":2216:2253   */\n      mstore\n        /* \"#utility.yul\":2141:2259   */\n      pop\n      pop\n      jump\t// out\n        /* \"#utility.yul\":2265:3028   */\n    tag_27:\n        /* \"#utility.yul\":2492:2496   */\n      0x00\n        /* \"#utility.yul\":2530:2533   */\n      0xc0\n        /* \"#utility.yul\":2519:2528   */\n      dup3\n        /* \"#utility.yul\":2515:2534   */\n      add\n        /* \"#utility.yul\":2507:2534   */\n      swap1\n      pop\n        /* \"#utility.yul\":2544:2615   */\n      tag_151\n        /* \"#utility.yul\":2612:2613   */\n      0x00\n        /* \"#utility.yul\":2601:2610   */\n      dup4\n        /* \"#utility.yul\":2597:2614   */\n      add\n        /* \"#utility.yul\":2588:2594   */\n      dup10\n        /* \"#utility.yul\":2544:2615   */\n      tag_104\n      jump\t// in\n    tag_151:\n        /* \"#utility.yul\":2625:2697   */\n      tag_152\n        /* \"#utility.yul\":2693:2695   */\n      0x20\n        /* \"#utility.yul\":2682:2691   */\n      dup4\n        /* \"#utility.yul\":2678:2696   */\n      add\n        /* \"#utility.yul\":2669:2675   */\n      dup9\n        /* \"#utility.yul\":2625:2697   */\n      tag_99\n      jump\t// in\n    tag_152:\n        /* \"#utility.yul\":2707:2779   */\n      tag_153\n        /* \"#utility.yul\":2775:2777   */\n      0x40\n        /* \"#utility.yul\":2764:2773   */\n      dup4\n        /* \"#utility.yul\":2760:2778   */\n      add\n        /* \"#utility.yul\":2751:2757   */\n      dup8\n        /* \"#utility.yul\":2707:2779   */\n      tag_99\n      jump\t// in\n    tag_153:\n        /* \"#utility.yul\":2789:2855   */\n      tag_154\n        /* \"#utility.yul\":2851:2853   */\n      0x60\n        /* \"#utility.yul\":2840:2849   */\n      dup4\n        /* \"#utility.yul\":2836:2854   */\n      add\n        /* \"#utility.yul\":2827:2833   */\n      dup7\n        /* \"#utility.yul\":2789:2855   */\n      tag_101\n      jump\t// in\n    tag_154:\n        /* \"#utility.yul\":2865:2938   */\n      tag_155\n        /* \"#utility.yul\":2933:2936   */\n      0x80\n        /* \"#utility.yul\":2922:2931   */\n      dup4\n        /* \"#utility.yul\":2918:2937   */\n      add\n        /* \"#utility.yul\":2909:2915   */\n      dup6\n        /* \"#utility.yul\":2865:2938   */\n      tag_99\n      jump\t// in\n    tag_155:\n        /* \"#utility.yul\":2948:3021   */\n      tag_156\n        /* \"#utility.yul\":3016:3019   */\n      0xa0\n        /* \"#utility.yul\":3005:3014   */\n      dup4\n        /* \"#utility.yul\":3001:3020   */\n      add\n        /* \"#utility.yul\":2992:2998   */\n      dup5\n        /* \"#utility.yul\":2948:3021   */\n      tag_99\n      jump\t// in\n    tag_156:\n        /* \"#utility.yul\":2265:3028   */\n      swap8\n      swap7\n      pop\n      pop\n      pop\n      pop\n      pop\n      pop\n      pop\n      jump\t// out\n        /* \"#utility.yul\":3034:3156   */\n    tag_105:\n        /* \"#utility.yul\":3107:3131   */\n      tag_158\n        /* \"#utility.yul\":3125:3130   */\n      dup2\n        /* \"#utility.yul\":3107:3131   */\n      tag_103\n      jump\t// in\n    tag_158:\n        /* \"#utility.yul\":3100:3105   */\n      dup2\n        /* \"#utility.yul\":3097:3132   */\n      eq\n        /* \"#utility.yul\":3087:3150   */\n      tag_159\n      jumpi\n        /* \"#utility.yul\":3146:3147   */\n      0x00\n        /* \"#utility.yul\":3143:3144   */\n      0x00\n        /* \"#utility.yul\":3136:3148   */\n      revert\n        /* \"#utility.yul\":3087:3150   */\n    tag_159:\n        /* \"#utility.yul\":3034:3156   */\n      pop\n      jump\t// out\n        /* \"#utility.yul\":3162:3301   */\n    tag_106:\n        /* \"#utility.yul\":3208:3213   */\n      0x00\n        /* \"#utility.yul\":3246:3252   */\n      dup2\n        /* \"#utility.yul\":3233:3253   */\n      calldataload\n        /* \"#utility.yul\":3224:3253   */\n      swap1\n      pop\n        /* \"#utility.yul\":3262:3295   */\n      tag_161\n        /* \"#utility.yul\":3289:3294   */\n      dup2\n        /* \"#utility.yul\":3262:3295   */\n      tag_105\n      jump\t// in\n    tag_161:\n        /* \"#utility.yul\":3162:3301   */\n      swap3\n      swap2\n      pop\n      pop\n      jump\t// out\n        /* \"#utility.yul\":3307:3636   */\n    tag_31:\n        /* \"#utility.yul\":3366:3372   */\n      0x00\n        /* \"#utility.yul\":3415:3417   */\n      0x20\n        /* \"#utility.yul\":3403:3412   */\n      dup3\n        /* \"#utility.yul\":3394:3401   */\n      dup5\n        /* \"#utility.yul\":3390:3413   */\n      sub\n        /* \"#utility.yul\":3386:3418   */\n      slt\n        /* \"#utility.yul\":3383:3502   */\n      iszero\n      tag_163\n      jumpi\n        /* \"#utility.yul\":3421:3500   */\n      tag_164\n      tag_94\n      jump\t// in\n    tag_164:\n        /* \"#utility.yul\":3383:3502   */\n    tag_163:\n        /* \"#utility.yul\":3541:3542   */\n      0x00\n        /* \"#utility.yul\":3566:3619   */\n      tag_165\n        /* \"#utility.yul\":3611:3618   */\n      dup5\n        /* \"#utility.yul\":3602:3608   */\n      dup3\n        /* \"#utility.yul\":3591:3600   */\n      dup6\n        /* \"#utility.yul\":3587:3609   */\n      add\n        /* \"#utility.yul\":3566:3619   */\n      tag_106\n      jump\t// in\n    tag_165:\n        /* \"#utility.yul\":3556:3619   */\n      swap2\n      pop\n        /* \"#utility.yul\":3512:3629   */\n      pop\n        /* \"#utility.yul\":3307:3636   */\n      swap3\n      swap2\n      pop\n      pop\n      jump\t// out\n        /* \"#utility.yul\":3642:3864   */\n    tag_34:\n        /* \"#utility.yul\":3735:3739   */\n      0x00\n        /* \"#utility.yul\":3773:3775   */\n      0x20\n        /* \"#utility.yul\":3762:3771   */\n      dup3\n        /* \"#utility.yul\":3758:3776   */\n      add\n        /* \"#utility.yul\":3750:3776   */\n      swap1\n      pop\n        /* \"#utility.yul\":3786:3857   */\n      tag_167\n        /* \"#utility.yul\":3854:3855   */\n      0x00\n        /* \"#utility.yul\":3843:3852   */\n      dup4\n        /* \"#utility.yul\":3839:3856   */\n      add\n        /* \"#utility.yul\":3830:3836   */\n      dup5\n        /* \"#utility.yul\":3786:3857   */\n      tag_99\n      jump\t// in\n    tag_167:\n        /* \"#utility.yul\":3642:3864   */\n      swap3\n      swap2\n      pop\n      pop\n      jump\t// out\n        /* \"#utility.yul\":3870:4489   */\n    tag_38:\n        /* \"#utility.yul\":3947:3953   */\n      0x00\n        /* \"#utility.yul\":3955:3961   */\n      0x00\n        /* \"#utility.yul\":3963:3969   */\n      0x00\n        /* \"#utility.yul\":4012:4014   */\n      0x60\n        /* \"#utility.yul\":4000:4009   */\n      dup5\n        /* \"#utility.yul\":3991:3998   */\n      dup7\n        /* \"#utility.yul\":3987:4010   */\n      sub\n        /* \"#utility.yul\":3983:4015   */\n      slt\n        /* \"#utility.yul\":3980:4099   */\n      iszero\n      tag_169\n      jumpi\n        /* \"#utility.yul\":4018:4097   */\n      tag_170\n      tag_94\n      jump\t// in\n    tag_170:\n        /* \"#utility.yul\":3980:4099   */\n    tag_169:\n        /* \"#utility.yul\":4138:4139   */\n      0x00\n        /* \"#utility.yul\":4163:4216   */\n      tag_171\n        /* \"#utility.yul\":4208:4215   */\n      dup7\n        /* \"#utility.yul\":4199:4205   */\n      dup3\n        /* \"#utility.yul\":4188:4197   */\n      dup8\n        /* \"#utility.yul\":4184:4206   */\n      add\n        /* \"#utility.yul\":4163:4216   */\n      tag_98\n      jump\t// in\n    tag_171:\n        /* \"#utility.yul\":4153:4216   */\n      swap4\n      pop\n        /* \"#utility.yul\":4109:4226   */\n      pop\n        /* \"#utility.yul\":4265:4267   */\n      0x20\n        /* \"#utility.yul\":4291:4344   */\n      tag_172\n        /* \"#utility.yul\":4336:4343   */\n      dup7\n        /* \"#utility.yul\":4327:4333   */\n      dup3\n        /* \"#utility.yul\":4316:4325   */\n      dup8\n        /* \"#utility.yul\":4312:4334   */\n      add\n        /* \"#utility.yul\":4291:4344   */\n      tag_98\n      jump\t// in\n    tag_172:\n        /* \"#utility.yul\":4281:4344   */\n      swap3\n      pop\n        /* \"#utility.yul\":4236:4354   */\n      pop\n        /* \"#utility.yul\":4393:4395   */\n      0x40\n        /* \"#utility.yul\":4419:4472   */\n      tag_173\n        /* \"#utility.yul\":4464:4471   */\n      dup7\n        /* \"#utility.yul\":4455:4461   */\n      dup3\n        /* \"#utility.yul\":4444:4453   */\n      dup8\n        /* \"#utility.yul\":4440:4462   */\n      add\n        /* \"#utility.yul\":4419:4472   */\n      tag_98\n      jump\t// in\n    tag_173:\n        /* \"#utility.yul\":4409:4472   */\n      swap2\n      pop\n        /* \"#utility.yul\":4364:4482   */\n      pop\n        /* \"#utility.yul\":3870:4489   */\n      swap3\n      pop\n      swap3\n      pop\n      swap3\n      jump\t// out\n        /* \"#utility.yul\":4495:4611   */\n    tag_107:\n        /* \"#utility.yul\":4565:4586   */\n      tag_175\n        /* \"#utility.yul\":4580:4585   */\n      dup2\n        /* \"#utility.yul\":4565:4586   */\n      tag_100\n      jump\t// in\n    tag_175:\n        /* \"#utility.yul\":4558:4563   */\n      dup2\n        /* \"#utility.yul\":4555:4587   */\n      eq\n        /* \"#utility.yul\":4545:4605   */\n      tag_176\n      jumpi\n        /* \"#utility.yul\":4601:4602   */\n      0x00\n        /* \"#utility.yul\":4598:4599   */\n      0x00\n        /* \"#utility.yul\":4591:4603   */\n      revert\n        /* \"#utility.yul\":4545:4605   */\n    tag_176:\n        /* \"#utility.yul\":4495:4611   */\n      pop\n      jump\t// out\n        /* \"#utility.yul\":4617:4750   */\n    tag_108:\n        /* \"#utility.yul\":4660:4665   */\n      0x00\n        /* \"#utility.yul\":4698:4704   */\n      dup2\n        /* \"#utility.yul\":4685:4705   */\n      calldataload\n        /* \"#utility.yul\":4676:4705   */\n      swap1\n      pop\n        /* \"#utility.yul\":4714:4744   */\n      tag_178\n        /* \"#utility.yul\":4738:4743   */\n      dup2\n        /* \"#utility.yul\":4714:4744   */\n      tag_107\n      jump\t// in\n    tag_178:\n        /* \"#utility.yul\":4617:4750   */\n      swap3\n      swap2\n      pop\n      pop\n      jump\t// out\n        /* \"#utility.yul\":4756:5369   */\n    tag_47:\n        /* \"#utility.yul\":4830:4836   */\n      0x00\n        /* \"#utility.yul\":4838:4844   */\n      0x00\n        /* \"#utility.yul\":4846:4852   */\n      0x00\n        /* \"#utility.yul\":4895:4897   */\n      0x60\n        /* \"#utility.yul\":4883:4892   */\n      dup5\n        /* \"#utility.yul\":4874:4881   */\n      dup7\n        /* \"#utility.yul\":4870:4893   */\n      sub\n        /* \"#utility.yul\":4866:4898   */\n      slt\n        /* \"#utility.yul\":4863:4982   */\n      iszero\n      tag_180\n      jumpi\n        /* \"#utility.yul\":4901:4980   */\n      tag_181\n      tag_94\n      jump\t// in\n    tag_181:\n        /* \"#utility.yul\":4863:4982   */\n    tag_180:\n        /* \"#utility.yul\":5021:5022   */\n      0x00\n        /* \"#utility.yul\":5046:5099   */\n      tag_182\n        /* \"#utility.yul\":5091:5098   */\n      dup7\n        /* \"#utility.yul\":5082:5088   */\n      dup3\n        /* \"#utility.yul\":5071:5080   */\n      dup8\n        /* \"#utility.yul\":5067:5089   */\n      add\n        /* \"#utility.yul\":5046:5099   */\n      tag_98\n      jump\t// in\n    tag_182:\n        /* \"#utility.yul\":5036:5099   */\n      swap4\n      pop\n        /* \"#utility.yul\":4992:5109   */\n      pop\n        /* \"#utility.yul\":5148:5150   */\n      0x20\n        /* \"#utility.yul\":5174:5227   */\n      tag_183\n        /* \"#utility.yul\":5219:5226   */\n      dup7\n        /* \"#utility.yul\":5210:5216   */\n      dup3\n        /* \"#utility.yul\":5199:5208   */\n      dup8\n        /* \"#utility.yul\":5195:5217   */\n      add\n        /* \"#utility.yul\":5174:5227   */\n      tag_98\n      jump\t// in\n    tag_183:\n        /* \"#utility.yul\":5164:5227   */\n      swap3\n      pop\n        /* \"#utility.yul\":5119:5237   */\n      pop\n        /* \"#utility.yul\":5276:5278   */\n      0x40\n        /* \"#utility.yul\":5302:5352   */\n      tag_184\n        /* \"#utility.yul\":5344:5351   */\n      dup7\n        /* \"#utility.yul\":5335:5341   */\n      dup3\n        /* \"#utility.yul\":5324:5333   */\n      dup8\n        /* \"#utility.yul\":5320:5342   */\n      add\n        /* \"#utility.yul\":5302:5352   */\n      tag_108\n      jump\t// in\n    tag_184:\n        /* \"#utility.yul\":5292:5352   */\n      swap2\n      pop\n        /* \"#utility.yul\":5247:5362   */\n      pop\n        /* \"#utility.yul\":4756:5369   */\n      swap3\n      pop\n      swap3\n      pop\n      swap3\n      jump\t// out\n        /* \"#utility.yul\":5375:5849   */\n    tag_51:\n        /* \"#utility.yul\":5443:5449   */\n      0x00\n        /* \"#utility.yul\":5451:5457   */\n      0x00\n        /* \"#utility.yul\":5500:5502   */\n      0x40\n        /* \"#utility.yul\":5488:5497   */\n      dup4\n        /* \"#utility.yul\":5479:5486   */\n      dup6\n        /* \"#utility.yul\":5475:5498   */\n      sub\n        /* \"#utility.yul\":5471:5503   */\n      slt\n        /* \"#utility.yul\":5468:5587   */\n      iszero\n      tag_186\n      jumpi\n        /* \"#utility.yul\":5506:5585   */\n      tag_187\n      tag_94\n      jump\t// in\n    tag_187:\n        /* \"#utility.yul\":5468:5587   */\n    tag_186:\n        /* \"#utility.yul\":5626:5627   */\n      0x00\n        /* \"#utility.yul\":5651:5704   */\n      tag_188\n        /* \"#utility.yul\":5696:5703   */\n      dup6\n        /* \"#utility.yul\":5687:5693   */\n      dup3\n        /* \"#utility.yul\":5676:5685   */\n      dup7\n        /* \"#utility.yul\":5672:5694   */\n      add\n        /* \"#utility.yul\":5651:5704   */\n      tag_98\n      jump\t// in\n    tag_188:\n        /* \"#utility.yul\":5641:5704   */\n      swap3\n      pop\n        /* \"#utility.yul\":5597:5714   */\n      pop\n        /* \"#utility.yul\":5753:5755   */\n      0x20\n        /* \"#utility.yul\":5779:5832   */\n      tag_189\n        /* \"#utility.yul\":5824:5831   */\n      dup6\n        /* \"#utility.yul\":5815:5821   */\n      dup3\n        /* \"#utility.yul\":5804:5813   */\n      dup7\n        /* \"#utility.yul\":5800:5822   */\n      add\n        /* \"#utility.yul\":5779:5832   */\n      tag_98\n      jump\t// in\n    tag_189:\n        /* \"#utility.yul\":5769:5832   */\n      swap2\n      pop\n        /* \"#utility.yul\":5724:5842   */\n      pop\n        /* \"#utility.yul\":5375:5849   */\n      swap3\n      pop\n      swap3\n      swap1\n      pop\n      jump\t// out\n        /* \"#utility.yul\":5855:6024   */\n    tag_109:\n        /* \"#utility.yul\":5939:5950   */\n      0x00\n        /* \"#utility.yul\":5973:5979   */\n      dup3\n        /* \"#utility.yul\":5968:5971   */\n      dup3\n        /* \"#utility.yul\":5961:5980   */\n      mstore\n        /* \"#utility.yul\":6013:6017   */\n      0x20\n        /* \"#utility.yul\":6008:6011   */\n      dup3\n        /* \"#utility.yul\":6004:6018   */\n      add\n        /* \"#utility.yul\":5989:6018   */\n      swap1\n      pop\n        /* \"#utility.yul\":5855:6024   */\n      swap3\n      swap2\n      pop\n      pop\n      jump\t// out\n        /* \"#utility.yul\":6030:6195   */\n    tag_110:\n        /* \"#utility.yul\":6170:6187   */\n      0x4e6f7420746865206d616e616765720000000000000000000000000000000000\n        /* \"#utility.yul\":6166:6167   */\n      0x00\n        /* \"#utility.yul\":6158:6164   */\n      dup3\n        /* \"#utility.yul\":6154:6168   */\n      add\n        /* \"#utility.yul\":6147:6188   */\n      mstore\n        /* \"#utility.yul\":6030:6195   */\n      pop\n      jump\t// out\n        /* \"#utility.yul\":6201:6567   */\n    tag_111:\n        /* \"#utility.yul\":6343:6346   */\n      0x00\n        /* \"#utility.yul\":6364:6431   */\n      tag_193\n        /* \"#utility.yul\":6428:6430   */\n      0x0f\n        /* \"#utility.yul\":6423:6426   */\n      dup4\n        /* \"#utility.yul\":6364:6431   */\n      tag_109\n      jump\t// in\n    tag_193:\n        /* \"#utility.yul\":6357:6431   */\n      swap2\n      pop\n        /* \"#utility.yul\":6440:6533   */\n      tag_194\n        /* \"#utility.yul\":6529:6532   */\n      dup3\n        /* \"#utility.yul\":6440:6533   */\n      tag_110\n      jump\t// in\n    tag_194:\n        /* \"#utility.yul\":6558:6560   */\n      0x20\n        /* \"#utility.yul\":6553:6556   */\n      dup3\n        /* \"#utility.yul\":6549:6561   */\n      add\n        /* \"#utility.yul\":6542:6561   */\n      swap1\n      pop\n        /* \"#utility.yul\":6201:6567   */\n      swap2\n      swap1\n      pop\n      jump\t// out\n        /* \"#utility.yul\":6573:6992   */\n    tag_62:\n        /* \"#utility.yul\":6739:6743   */\n      0x00\n        /* \"#utility.yul\":6777:6779   */\n      0x20\n        /* \"#utility.yul\":6766:6775   */\n      dup3\n        /* \"#utility.yul\":6762:6780   */\n      add\n        /* \"#utility.yul\":6754:6780   */\n      swap1\n      pop\n        /* \"#utility.yul\":6826:6835   */\n      dup2\n        /* \"#utility.yul\":6820:6824   */\n      dup2\n        /* \"#utility.yul\":6816:6836   */\n      sub\n        /* \"#utility.yul\":6812:6813   */\n      0x00\n        /* \"#utility.yul\":6801:6810   */\n      dup4\n        /* \"#utility.yul\":6797:6814   */\n      add\n        /* \"#utility.yul\":6790:6837   */\n      mstore\n        /* \"#utility.yul\":6854:6985   */\n      tag_196\n        /* \"#utility.yul\":6980:6984   */\n      dup2\n        /* \"#utility.yul\":6854:6985   */\n      tag_111\n      jump\t// in\n    tag_196:\n        /* \"#utility.yul\":6846:6985   */\n      swap1\n      pop\n        /* \"#utility.yul\":6573:6992   */\n      swap2\n      swap1\n      pop\n      jump\t// out\n        /* \"#utility.yul\":6998:7158   */\n    tag_112:\n        /* \"#utility.yul\":7138:7150   */\n      0x4e6f74206f776e65727300000000000000000000000000000000000000000000\n        /* \"#utility.yul\":7134:7135   */\n      0x00\n        /* \"#utility.yul\":7126:7132   */\n      dup3\n        /* \"#utility.yul\":7122:7136   */\n      add\n        /* \"#utility.yul\":7115:7151   */\n      mstore\n        /* \"#utility.yul\":6998:7158   */\n      pop\n      jump\t// out\n        /* \"#utility.yul\":7164:7530   */\n    tag_113:\n        /* \"#utility.yul\":7306:7309   */\n      0x00\n        /* \"#utility.yul\":7327:7394   */\n      tag_199\n        /* \"#utility.yul\":7391:7393   */\n      0x0a\n        /* \"#utility.yul\":7386:7389   */\n      dup4\n        /* \"#utility.yul\":7327:7394   */\n      tag_109\n      jump\t// in\n    tag_199:\n        /* \"#utility.yul\":7320:7394   */\n      swap2\n      pop\n        /* \"#utility.yul\":7403:7496   */\n      tag_200\n        /* \"#utility.yul\":7492:7495   */\n      dup3\n        /* \"#utility.yul\":7403:7496   */\n      tag_112\n      jump\t// in\n    tag_200:\n        /* \"#utility.yul\":7521:7523   */\n      0x20\n        /* \"#utility.yul\":7516:7519   */\n      dup3\n        /* \"#utility.yul\":7512:7524   */\n      add\n        /* \"#utility.yul\":7505:7524   */\n      swap1\n      pop\n        /* \"#utility.yul\":7164:7530   */\n      swap2\n      swap1\n      pop\n      jump\t// out\n        /* \"#utility.yul\":7536:7955   */\n    tag_75:\n        /* \"#utility.yul\":7702:7706   */\n      0x00\n        /* \"#utility.yul\":7740:7742   */\n      0x20\n        /* \"#utility.yul\":7729:7738   */\n      dup3\n        /* \"#utility.yul\":7725:7743   */\n      add\n        /* \"#utility.yul\":7717:7743   */\n      swap1\n      pop\n        /* \"#utility.yul\":7789:7798   */\n      dup2\n        /* \"#utility.yul\":7783:7787   */\n      dup2\n        /* \"#utility.yul\":7779:7799   */\n      sub\n        /* \"#utility.yul\":7775:7776   */\n      0x00\n        /* \"#utility.yul\":7764:7773   */\n      dup4\n        /* \"#utility.yul\":7760:7777   */\n      add\n        /* \"#utility.yul\":7753:7800   */\n      mstore\n        /* \"#utility.yul\":7817:7948   */\n      tag_202\n        /* \"#utility.yul\":7943:7947   */\n      dup2\n        /* \"#utility.yul\":7817:7948   */\n      tag_113\n      jump\t// in\n    tag_202:\n        /* \"#utility.yul\":7809:7948   */\n      swap1\n      pop\n        /* \"#utility.yul\":7536:7955   */\n      swap2\n      swap1\n      pop\n      jump\t// out\n        /* \"#utility.yul\":7961:8129   */\n    tag_114:\n        /* \"#utility.yul\":8101:8121   */\n      0x526f6f6d206e6f7420617661696c61626c650000000000000000000000000000\n        /* \"#utility.yul\":8097:8098   */\n      0x00\n        /* \"#utility.yul\":8089:8095   */\n      dup3\n        /* \"#utility.yul\":8085:8099   */\n      add\n        /* \"#utility.yul\":8078:8122   */\n      mstore\n        /* \"#utility.yul\":7961:8129   */\n      pop\n      jump\t// out\n        /* \"#utility.yul\":8135:8501   */\n    tag_115:\n        /* \"#utility.yul\":8277:8280   */\n      0x00\n        /* \"#utility.yul\":8298:8365   */\n      tag_205\n        /* \"#utility.yul\":8362:8364   */\n      0x12\n        /* \"#utility.yul\":8357:8360   */\n      dup4\n        /* \"#utility.yul\":8298:8365   */\n      tag_109\n      jump\t// in\n    tag_205:\n        /* \"#utility.yul\":8291:8365   */\n      swap2\n      pop\n        /* \"#utility.yul\":8374:8467   */\n      tag_206\n        /* \"#utility.yul\":8463:8466   */\n      dup3\n        /* \"#utility.yul\":8374:8467   */\n      tag_114\n      jump\t// in\n    tag_206:\n        /* \"#utility.yul\":8492:8494   */\n      0x20\n        /* \"#utility.yul\":8487:8490   */\n      dup3\n        /* \"#utility.yul\":8483:8495   */\n      add\n        /* \"#utility.yul\":8476:8495   */\n      swap1\n      pop\n        /* \"#utility.yul\":8135:8501   */\n      swap2\n      swap1\n      pop\n      jump\t// out\n        /* \"#utility.yul\":8507:8926   */\n    tag_79:\n        /* \"#utility.yul\":8673:8677   */\n      0x00\n        /* \"#utility.yul\":8711:8713   */\n      0x20\n        /* \"#utility.yul\":8700:8709   */\n      dup3\n        /* \"#utility.yul\":8696:8714   */\n      add\n        /* \"#utility.yul\":8688:8714   */\n      swap1\n      pop\n        /* \"#utility.yul\":8760:8769   */\n      dup2\n        /* \"#utility.yul\":8754:8758   */\n      dup2\n        /* \"#utility.yul\":8750:8770   */\n      sub\n        /* \"#utility.yul\":8746:8747   */\n      0x00\n        /* \"#utility.yul\":8735:8744   */\n      dup4\n        /* \"#utility.yul\":8731:8748   */\n      add\n        /* \"#utility.yul\":8724:8771   */\n      mstore\n        /* \"#utility.yul\":8788:8919   */\n      tag_208\n        /* \"#utility.yul\":8914:8918   */\n      dup2\n        /* \"#utility.yul\":8788:8919   */\n      tag_115\n      jump\t// in\n    tag_208:\n        /* \"#utility.yul\":8780:8919   */\n      swap1\n      pop\n        /* \"#utility.yul\":8507:8926   */\n      swap2\n      swap1\n      pop\n      jump\t// out\n        /* \"#utility.yul\":8932:9100   */\n    tag_116:\n        /* \"#utility.yul\":9072:9092   */\n      0x496e737566696369656e74206574686572730000000000000000000000000000\n        /* \"#utility.yul\":9068:9069   */\n      0x00\n        /* \"#utility.yul\":9060:9066   */\n      dup3\n        /* \"#utility.yul\":9056:9070   */\n      add\n        /* \"#utility.yul\":9049:9093   */\n      mstore\n        /* \"#utility.yul\":8932:9100   */\n      pop\n      jump\t// out\n        /* \"#utility.yul\":9106:9472   */\n    tag_117:\n        /* \"#utility.yul\":9248:9251   */\n      0x00\n        /* \"#utility.yul\":9269:9336   */\n      tag_211\n        /* \"#utility.yul\":9333:9335   */\n      0x12\n        /* \"#utility.yul\":9328:9331   */\n      dup4\n        /* \"#utility.yul\":9269:9336   */\n      tag_109\n      jump\t// in\n    tag_211:\n        /* \"#utility.yul\":9262:9336   */\n      swap2\n      pop\n        /* \"#utility.yul\":9345:9438   */\n      tag_212\n        /* \"#utility.yul\":9434:9437   */\n      dup3\n        /* \"#utility.yul\":9345:9438   */\n      tag_116\n      jump\t// in\n    tag_212:\n        /* \"#utility.yul\":9463:9465   */\n      0x20\n        /* \"#utility.yul\":9458:9461   */\n      dup3\n        /* \"#utility.yul\":9454:9466   */\n      add\n        /* \"#utility.yul\":9447:9466   */\n      swap1\n      pop\n        /* \"#utility.yul\":9106:9472   */\n      swap2\n      swap1\n      pop\n      jump\t// out\n        /* \"#utility.yul\":9478:9897   */\n    tag_83:\n        /* \"#utility.yul\":9644:9648   */\n      0x00\n        /* \"#utility.yul\":9682:9684   */\n      0x20\n        /* \"#utility.yul\":9671:9680   */\n      dup3\n        /* \"#utility.yul\":9667:9685   */\n      add\n        /* \"#utility.yul\":9659:9685   */\n      swap1\n      pop\n        /* \"#utility.yul\":9731:9740   */\n      dup2\n        /* \"#utility.yul\":9725:9729   */\n      dup2\n        /* \"#utility.yul\":9721:9741   */\n      sub\n        /* \"#utility.yul\":9717:9718   */\n      0x00\n        /* \"#utility.yul\":9706:9715   */\n      dup4\n        /* \"#utility.yul\":9702:9719   */\n      add\n        /* \"#utility.yul\":9695:9742   */\n      mstore\n        /* \"#utility.yul\":9759:9890   */\n      tag_214\n        /* \"#utility.yul\":9885:9889   */\n      dup2\n        /* \"#utility.yul\":9759:9890   */\n      tag_117\n      jump\t// in\n    tag_214:\n        /* \"#utility.yul\":9751:9890   */\n      swap1\n      pop\n        /* \"#utility.yul\":9478:9897   */\n      swap2\n      swap1\n      pop\n      jump\t// out\n        /* \"#utility.yul\":9903:10083   */\n    tag_118:\n        /* \"#utility.yul\":9951:10028   */\n      0x4e487b7100000000000000000000000000000000000000000000000000000000\n        /* \"#utility.yul\":9948:9949   */\n      0x00\n        /* \"#utility.yul\":9941:10029   */\n      mstore\n        /* \"#utility.yul\":10048:10052   */\n      0x11\n        /* \"#utility.yul\":10045:10046   */\n      0x04\n        /* \"#utility.yul\":10038:10053   */\n      mstore\n        /* \"#utility.yul\":10072:10076   */\n      0x24\n        /* \"#utility.yul\":10069:10070   */\n      0x00\n        /* \"#utility.yul\":10062:10077   */\n      revert\n        /* \"#utility.yul\":10089:10499   */\n    tag_85:\n        /* \"#utility.yul\":10129:10136   */\n      0x00\n        /* \"#utility.yul\":10152:10172   */\n      tag_217\n        /* \"#utility.yul\":10170:10171   */\n      dup3\n        /* \"#utility.yul\":10152:10172   */\n      tag_96\n      jump\t// in\n    tag_217:\n        /* \"#utility.yul\":10147:10172   */\n      swap2\n      pop\n        /* \"#utility.yul\":10186:10206   */\n      tag_218\n        /* \"#utility.yul\":10204:10205   */\n      dup4\n        /* \"#utility.yul\":10186:10206   */\n      tag_96\n      jump\t// in\n    tag_218:\n        /* \"#utility.yul\":10181:10206   */\n      swap3\n      pop\n        /* \"#utility.yul\":10241:10242   */\n      dup3\n        /* \"#utility.yul\":10238:10239   */\n      dup3\n        /* \"#utility.yul\":10234:10243   */\n      mul\n        /* \"#utility.yul\":10263:10293   */\n      tag_219\n        /* \"#utility.yul\":10281:10292   */\n      dup2\n        /* \"#utility.yul\":10263:10293   */\n      tag_96\n      jump\t// in\n    tag_219:\n        /* \"#utility.yul\":10252:10293   */\n      swap2\n      pop\n        /* \"#utility.yul\":10442:10443   */\n      dup3\n        /* \"#utility.yul\":10433:10440   */\n      dup3\n        /* \"#utility.yul\":10429:10444   */\n      div\n        /* \"#utility.yul\":10426:10427   */\n      dup5\n        /* \"#utility.yul\":10423:10445   */\n      eq\n        /* \"#utility.yul\":10403:10404   */\n      dup4\n        /* \"#utility.yul\":10396:10405   */\n      iszero\n        /* \"#utility.yul\":10376:10459   */\n      or\n        /* \"#utility.yul\":10353:10492   */\n      tag_220\n      jumpi\n        /* \"#utility.yul\":10472:10490   */\n      tag_221\n      tag_118\n      jump\t// in\n    tag_221:\n        /* \"#utility.yul\":10353:10492   */\n    tag_220:\n        /* \"#utility.yul\":10137:10499   */\n      pop\n        /* \"#utility.yul\":10089:10499   */\n      swap3\n      swap2\n      pop\n      pop\n      jump\t// out\n        /* \"#utility.yul\":10505:10696   */\n    tag_87:\n        /* \"#utility.yul\":10545:10548   */\n      0x00\n        /* \"#utility.yul\":10564:10584   */\n      tag_223\n        /* \"#utility.yul\":10582:10583   */\n      dup3\n        /* \"#utility.yul\":10564:10584   */\n      tag_96\n      jump\t// in\n    tag_223:\n        /* \"#utility.yul\":10559:10584   */\n      swap2\n      pop\n        /* \"#utility.yul\":10598:10618   */\n      tag_224\n        /* \"#utility.yul\":10616:10617   */\n      dup4\n        /* \"#utility.yul\":10598:10618   */\n      tag_96\n      jump\t// in\n    tag_224:\n        /* \"#utility.yul\":10593:10618   */\n      swap3\n      pop\n        /* \"#utility.yul\":10641:10642   */\n      dup3\n        /* \"#utility.yul\":10638:10639   */\n      dup3\n        /* \"#utility.yul\":10634:10643   */\n      add\n        /* \"#utility.yul\":10627:10643   */\n      swap1\n      pop\n        /* \"#utility.yul\":10662:10665   */\n      dup1\n        /* \"#utility.yul\":10659:10660   */\n      dup3\n        /* \"#utility.yul\":10656:10666   */\n      gt\n        /* \"#utility.yul\":10653:10689   */\n      iszero\n      tag_225\n      jumpi\n        /* \"#utility.yul\":10669:10687   */\n      tag_226\n      tag_118\n      jump\t// in\n    tag_226:\n        /* \"#utility.yul\":10653:10689   */\n    tag_225:\n        /* \"#utility.yul\":10505:10696   */\n      swap3\n      swap2\n      pop\n      pop\n      jump\t// out\n        /* \"#utility.yul\":10702:10880   */\n    tag_119:\n        /* \"#utility.yul\":10842:10872   */\n      0x76616c7565206d7573742062652067726561746572207468616e203000000000\n        /* \"#utility.yul\":10838:10839   */\n      0x00\n        /* \"#utility.yul\":10830:10836   */\n      dup3\n        /* \"#utility.yul\":10826:10840   */\n      add\n        /* \"#utility.yul\":10819:10873   */\n      mstore\n        /* \"#utility.yul\":10702:10880   */\n      pop\n      jump\t// out\n        /* \"#utility.yul\":10886:11252   */\n    tag_120:\n        /* \"#utility.yul\":11028:11031   */\n      0x00\n        /* \"#utility.yul\":11049:11116   */\n      tag_229\n        /* \"#utility.yul\":11113:11115   */\n      0x1c\n        /* \"#utility.yul\":11108:11111   */\n      dup4\n        /* \"#utility.yul\":11049:11116   */\n      tag_109\n      jump\t// in\n    tag_229:\n        /* \"#utility.yul\":11042:11116   */\n      swap2\n      pop\n        /* \"#utility.yul\":11125:11218   */\n      tag_230\n        /* \"#utility.yul\":11214:11217   */\n      dup3\n        /* \"#utility.yul\":11125:11218   */\n      tag_119\n      jump\t// in\n    tag_230:\n        /* \"#utility.yul\":11243:11245   */\n      0x20\n        /* \"#utility.yul\":11238:11241   */\n      dup3\n        /* \"#utility.yul\":11234:11246   */\n      add\n        /* \"#utility.yul\":11227:11246   */\n      swap1\n      pop\n        /* \"#utility.yul\":10886:11252   */\n      swap2\n      swap1\n      pop\n      jump\t// out\n        /* \"#utility.yul\":11258:11677   */\n    tag_91:\n        /* \"#utility.yul\":11424:11428   */\n      0x00\n        /* \"#utility.yul\":11462:11464   */\n      0x20\n        /* \"#utility.yul\":11451:11460   */\n      dup3\n        /* \"#utility.yul\":11447:11465   */\n      add\n        /* \"#utility.yul\":11439:11465   */\n      swap1\n      pop\n        /* \"#utility.yul\":11511:11520   */\n      dup2\n        /* \"#utility.yul\":11505:11509   */\n      dup2\n        /* \"#utility.yul\":11501:11521   */\n      sub\n        /* \"#utility.yul\":11497:11498   */\n      0x00\n        /* \"#utility.yul\":11486:11495   */\n      dup4\n        /* \"#utility.yul\":11482:11499   */\n      add\n        /* \"#utility.yul\":11475:11522   */\n      mstore\n        /* \"#utility.yul\":11539:11670   */\n      tag_232\n        /* \"#utility.yul\":11665:11669   */\n      dup2\n        /* \"#utility.yul\":11539:11670   */\n      tag_120\n      jump\t// in\n    tag_232:\n        /* \"#utility.yul\":11531:11670   */\n      swap1\n      pop\n        /* \"#utility.yul\":11258:11677   */\n      swap2\n      swap1\n      pop\n      jump\t// out\n\n    auxdata: 0xa26469706673582212209ead90d8df99aa66fbb55d7d9ee07e5f5d3f7769f7f6fada899aae01d0450cc964736f6c634300081c0033\n}\n",
				"bytecode": {
					"linkReferences": {},
					"object": "60806040525f6001553480156012575f5ffd5b50335f5f6101000a81548173ffffffffffffffffffffffffffffffffffffffff021916908373ffffffffffffffffffffffffffffffffffffffff160217905550610e638061005f5f395ff3fe608060405260043610610089575f3560e01c8063461d60be11610058578063461d60be1461017857806370ca7b03146101a05780638a3a1a18146101c8578063ae3c0176146101e4578063d0e30db01461020e57610090565b80631bae0ac8146100945780631dab301e146100d357806327e235e3146101145780632c73ca761461015057610090565b3661009057005b5f5ffd5b34801561009f575f5ffd5b506100ba60048036038101906100b591906108c9565b610218565b6040516100ca949392919061091d565b60405180910390f35b3480156100de575f5ffd5b506100f960048036038101906100f491906108c9565b610250565b60405161010b9695949392919061099f565b60405180910390f35b34801561011f575f5ffd5b5061013a60048036038101906101359190610a28565b6102b3565b6040516101479190610a53565b60405180910390f35b34801561015b575f5ffd5b5061017660048036038101906101719190610a6c565b6102c8565b005b348015610183575f5ffd5b5061019e600480360381019061019991906108c9565b6103cd565b005b3480156101ab575f5ffd5b506101c660048036038101906101c19190610ae6565b610499565b005b6101e260048036038101906101dd9190610b36565b610570565b005b3480156101ef575f5ffd5b506101f86107f5565b6040516102059190610a53565b60405180910390f35b6102166107fb565b005b6002602052805f5260405f205f91509050805f015490806001015490806002015f9054906101000a900460ff16908060030154905084565b6003602052805f5260405f205f91509050805f015f9054906101000a900473ffffffffffffffffffffffffffffffffffffffff1690806001015490806002015490806003015f9054906101000a900460ff16908060040154908060050154905086565b6004602052805f5260405f205f915090505481565b5f5f9054906101000a900473ffffffffffffffffffffffffffffffffffffffff1673ffffffffffffffffffffffffffffffffffffffff163373ffffffffffffffffffffffffffffffffffffffff1614610356576040517f08c379a000000000000000000000000000000000000000000000000000000000815260040161034d90610bce565b60405180910390fd5b60405180608001604052808481526020018381526020015f151581526020018281525060025f8581526020019081526020015f205f820151815f0155602082015181600101556040820151816002015f6101000a81548160ff02191690831515021790555060608201518160030155905050505050565b5f5f9054906101000a900473ffffffffffffffffffffffffffffffffffffffff1673ffffffffffffffffffffffffffffffffffffffff163373ffffffffffffffffffffffffffffffffffffffff161461045b576040517f08c379a000000000000000000000000000000000000000000000000000000000815260040161045290610bce565b60405180910390fd5b60025f8281526020019081526020015f205f5f82015f9055600182015f9055600282015f6101000a81549060ff0219169055600382015f9055505050565b5f5f9054906101000a900473ffffffffffffffffffffffffffffffffffffffff1673ffffffffffffffffffffffffffffffffffffffff163373ffffffffffffffffffffffffffffffffffffffff1614610527576040517f08c379a000000000000000000000000000000000000000000000000000000000815260040161051e90610bce565b60405180910390fd5b8160025f8581526020019081526020015f20600101819055508060025f8581526020019081526020015f206002015f6101000a81548160ff021916908315150217905550505050565b5f5f9054906101000a900473ffffffffffffffffffffffffffffffffffffffff1673ffffffffffffffffffffffffffffffffffffffff163373ffffffffffffffffffffffffffffffffffffffff16036105fe576040517f08c379a00000000000000000000000000000000000000000000000000000000081526004016105f590610c36565b60405180910390fd5b816001151560025f8381526020019081526020015f206002015f9054906101000a900460ff16151514610666576040517f08c379a000000000000000000000000000000000000000000000000000000000815260040161065d90610c9e565b60405180910390fd5b60025f8481526020019081526020015f20600101543410156106bd576040517f08c379a00000000000000000000000000000000000000000000000000000000081526004016106b490610d06565b60405180910390fd5b5f60025f8581526020019081526020015f206002015f6101000a81548160ff0219169083151502179055505f4290505f62015180846106fc9190610d51565b826107079190610d92565b90506040518060c001604052803373ffffffffffffffffffffffffffffffffffffffff1681526020018681526020013481526020016001151581526020018281526020018381525060035f8781526020019081526020015f205f820151815f015f6101000a81548173ffffffffffffffffffffffffffffffffffffffff021916908373ffffffffffffffffffffffffffffffffffffffff16021790555060208201518160010155604082015181600201556060820151816003015f6101000a81548160ff0219169083151502179055506080820151816004015560a082015181600501559050505050505050565b60015481565b5f341161083d576040517f08c379a000000000000000000000000000000000000000000000000000000000815260040161083490610e0f565b60405180910390fd5b3460045f3373ffffffffffffffffffffffffffffffffffffffff1673ffffffffffffffffffffffffffffffffffffffff1681526020019081526020015f205f8282546108899190610d92565b92505081905550565b5f5ffd5b5f819050919050565b6108a881610896565b81146108b2575f5ffd5b50565b5f813590506108c38161089f565b92915050565b5f602082840312156108de576108dd610892565b5b5f6108eb848285016108b5565b91505092915050565b6108fd81610896565b82525050565b5f8115159050919050565b61091781610903565b82525050565b5f6080820190506109305f8301876108f4565b61093d60208301866108f4565b61094a604083018561090e565b61095760608301846108f4565b95945050505050565b5f73ffffffffffffffffffffffffffffffffffffffff82169050919050565b5f61098982610960565b9050919050565b6109998161097f565b82525050565b5f60c0820190506109b25f830189610990565b6109bf60208301886108f4565b6109cc60408301876108f4565b6109d9606083018661090e565b6109e660808301856108f4565b6109f360a08301846108f4565b979650505050505050565b610a078161097f565b8114610a11575f5ffd5b50565b5f81359050610a22816109fe565b92915050565b5f60208284031215610a3d57610a3c610892565b5b5f610a4a84828501610a14565b91505092915050565b5f602082019050610a665f8301846108f4565b92915050565b5f5f5f60608486031215610a8357610a82610892565b5b5f610a90868287016108b5565b9350506020610aa1868287016108b5565b9250506040610ab2868287016108b5565b9150509250925092565b610ac581610903565b8114610acf575f5ffd5b50565b5f81359050610ae081610abc565b92915050565b5f5f5f60608486031215610afd57610afc610892565b5b5f610b0a868287016108b5565b9350506020610b1b868287016108b5565b9250506040610b2c86828701610ad2565b9150509250925092565b5f5f60408385031215610b4c57610b4b610892565b5b5f610b59858286016108b5565b9250506020610b6a858286016108b5565b9150509250929050565b5f82825260208201905092915050565b7f4e6f7420746865206d616e6167657200000000000000000000000000000000005f82015250565b5f610bb8600f83610b74565b9150610bc382610b84565b602082019050919050565b5f6020820190508181035f830152610be581610bac565b9050919050565b7f4e6f74206f776e657273000000000000000000000000000000000000000000005f82015250565b5f610c20600a83610b74565b9150610c2b82610bec565b602082019050919050565b5f6020820190508181035f830152610c4d81610c14565b9050919050565b7f526f6f6d206e6f7420617661696c61626c6500000000000000000000000000005f82015250565b5f610c88601283610b74565b9150610c9382610c54565b602082019050919050565b5f6020820190508181035f830152610cb581610c7c565b9050919050565b7f496e737566696369656e742065746865727300000000000000000000000000005f82015250565b5f610cf0601283610b74565b9150610cfb82610cbc565b602082019050919050565b5f6020820190508181035f830152610d1d81610ce4565b9050919050565b7f4e487b71000000000000000000000000000000000000000000000000000000005f52601160045260245ffd5b5f610d5b82610896565b9150610d6683610896565b9250828202610d7481610896565b91508282048414831517610d8b57610d8a610d24565b5b5092915050565b5f610d9c82610896565b9150610da783610896565b9250828201905080821115610dbf57610dbe610d24565b5b92915050565b7f76616c7565206d7573742062652067726561746572207468616e2030000000005f82015250565b5f610df9601c83610b74565b9150610e0482610dc5565b602082019050919050565b5f6020820190508181035f830152610e2681610ded565b905091905056fea26469706673582212209ead90d8df99aa66fbb55d7d9ee07e5f5d3f7769f7f6fada899aae01d0450cc964736f6c634300081c0033",
					"opcodes": "PUSH1 0x80 PUSH1 0x40 MSTORE PUSH0 PUSH1 0x1 SSTORE CALLVALUE DUP1 ISZERO PUSH1 0x12 JUMPI PUSH0 PUSH0 REVERT JUMPDEST POP CALLER PUSH0 PUSH0 PUSH2 0x100 EXP DUP2 SLOAD DUP2 PUSH20 0xFFFFFFFFFFFFFFFFFFFFFFFFFFFFFFFFFFFFFFFF MUL NOT AND SWAP1 DUP4 PUSH20 0xFFFFFFFFFFFFFFFFFFFFFFFFFFFFFFFFFFFFFFFF AND MUL OR SWAP1 SSTORE POP PUSH2 0xE63 DUP1 PUSH2 0x5F PUSH0 CODECOPY PUSH0 RETURN INVALID PUSH1 0x80 PUSH1 0x40 MSTORE PUSH1 0x4 CALLDATASIZE LT PUSH2 0x89 JUMPI PUSH0 CALLDATALOAD PUSH1 0xE0 SHR DUP1 PUSH4 0x461D60BE GT PUSH2 0x58 JUMPI DUP1 PUSH4 0x461D60BE EQ PUSH2 0x178 JUMPI DUP1 PUSH4 0x70CA7B03 EQ PUSH2 0x1A0 JUMPI DUP1 PUSH4 0x8A3A1A18 EQ PUSH2 0x1C8 JUMPI DUP1 PUSH4 0xAE3C0176 EQ PUSH2 0x1E4 JUMPI DUP1 PUSH4 0xD0E30DB0 EQ PUSH2 0x20E JUMPI PUSH2 0x90 JUMP JUMPDEST DUP1 PUSH4 0x1BAE0AC8 EQ PUSH2 0x94 JUMPI DUP1 PUSH4 0x1DAB301E EQ PUSH2 0xD3 JUMPI DUP1 PUSH4 0x27E235E3 EQ PUSH2 0x114 JUMPI DUP1 PUSH4 0x2C73CA76 EQ PUSH2 0x150 JUMPI PUSH2 0x90 JUMP JUMPDEST CALLDATASIZE PUSH2 0x90 JUMPI STOP JUMPDEST PUSH0 PUSH0 REVERT JUMPDEST CALLVALUE DUP1 ISZERO PUSH2 0x9F JUMPI PUSH0 PUSH0 REVERT JUMPDEST POP PUSH2 0xBA PUSH1 0x4 DUP1 CALLDATASIZE SUB DUP2 ADD SWAP1 PUSH2 0xB5 SWAP2 SWAP1 PUSH2 0x8C9 JUMP JUMPDEST PUSH2 0x218 JUMP JUMPDEST PUSH1 0x40 MLOAD PUSH2 0xCA SWAP5 SWAP4 SWAP3 SWAP2 SWAP1 PUSH2 0x91D JUMP JUMPDEST PUSH1 0x40 MLOAD DUP1 SWAP2 SUB SWAP1 RETURN JUMPDEST CALLVALUE DUP1 ISZERO PUSH2 0xDE JUMPI PUSH0 PUSH0 REVERT JUMPDEST POP PUSH2 0xF9 PUSH1 0x4 DUP1 CALLDATASIZE SUB DUP2 ADD SWAP1 PUSH2 0xF4 SWAP2 SWAP1 PUSH2 0x8C9 JUMP JUMPDEST PUSH2 0x250 JUMP JUMPDEST PUSH1 0x40 MLOAD PUSH2 0x10B SWAP7 SWAP6 SWAP5 SWAP4 SWAP3 SWAP2 SWAP1 PUSH2 0x99F JUMP JUMPDEST PUSH1 0x40 MLOAD DUP1 SWAP2 SUB SWAP1 RETURN JUMPDEST CALLVALUE DUP1 ISZERO PUSH2 0x11F JUMPI PUSH0 PUSH0 REVERT JUMPDEST POP PUSH2 0x13A PUSH1 0x4 DUP1 CALLDATASIZE SUB DUP2 ADD SWAP1 PUSH2 0x135 SWAP2 SWAP1 PUSH2 0xA28 JUMP JUMPDEST PUSH2 0x2B3 JUMP JUMPDEST PUSH1 0x40 MLOAD PUSH2 0x147 SWAP2 SWAP1 PUSH2 0xA53 JUMP JUMPDEST PUSH1 0x40 MLOAD DUP1 SWAP2 SUB SWAP1 RETURN JUMPDEST CALLVALUE DUP1 ISZERO PUSH2 0x15B JUMPI PUSH0 PUSH0 REVERT JUMPDEST POP PUSH2 0x176 PUSH1 0x4 DUP1 CALLDATASIZE SUB DUP2 ADD SWAP1 PUSH2 0x171 SWAP2 SWAP1 PUSH2 0xA6C JUMP JUMPDEST PUSH2 0x2C8 JUMP JUMPDEST STOP JUMPDEST CALLVALUE DUP1 ISZERO PUSH2 0x183 JUMPI PUSH0 PUSH0 REVERT JUMPDEST POP PUSH2 0x19E PUSH1 0x4 DUP1 CALLDATASIZE SUB DUP2 ADD SWAP1 PUSH2 0x199 SWAP2 SWAP1 PUSH2 0x8C9 JUMP JUMPDEST PUSH2 0x3CD JUMP JUMPDEST STOP JUMPDEST CALLVALUE DUP1 ISZERO PUSH2 0x1AB JUMPI PUSH0 PUSH0 REVERT JUMPDEST POP PUSH2 0x1C6 PUSH1 0x4 DUP1 CALLDATASIZE SUB DUP2 ADD SWAP1 PUSH2 0x1C1 SWAP2 SWAP1 PUSH2 0xAE6 JUMP JUMPDEST PUSH2 0x499 JUMP JUMPDEST STOP JUMPDEST PUSH2 0x1E2 PUSH1 0x4 DUP1 CALLDATASIZE SUB DUP2 ADD SWAP1 PUSH2 0x1DD SWAP2 SWAP1 PUSH2 0xB36 JUMP JUMPDEST PUSH2 0x570 JUMP JUMPDEST STOP JUMPDEST CALLVALUE DUP1 ISZERO PUSH2 0x1EF JUMPI PUSH0 PUSH0 REVERT JUMPDEST POP PUSH2 0x1F8 PUSH2 0x7F5 JUMP JUMPDEST PUSH1 0x40 MLOAD PUSH2 0x205 SWAP2 SWAP1 PUSH2 0xA53 JUMP JUMPDEST PUSH1 0x40 MLOAD DUP1 SWAP2 SUB SWAP1 RETURN JUMPDEST PUSH2 0x216 PUSH2 0x7FB JUMP JUMPDEST STOP JUMPDEST PUSH1 0x2 PUSH1 0x20 MSTORE DUP1 PUSH0 MSTORE PUSH1 0x40 PUSH0 KECCAK256 PUSH0 SWAP2 POP SWAP1 POP DUP1 PUSH0 ADD SLOAD SWAP1 DUP1 PUSH1 0x1 ADD SLOAD SWAP1 DUP1 PUSH1 0x2 ADD PUSH0 SWAP1 SLOAD SWAP1 PUSH2 0x100 EXP SWAP1 DIV PUSH1 0xFF AND SWAP1 DUP1 PUSH1 0x3 ADD SLOAD SWAP1 POP DUP5 JUMP JUMPDEST PUSH1 0x3 PUSH1 0x20 MSTORE DUP1 PUSH0 MSTORE PUSH1 0x40 PUSH0 KECCAK256 PUSH0 SWAP2 POP SWAP1 POP DUP1 PUSH0 ADD PUSH0 SWAP1 SLOAD SWAP1 PUSH2 0x100 EXP SWAP1 DIV PUSH20 0xFFFFFFFFFFFFFFFFFFFFFFFFFFFFFFFFFFFFFFFF AND SWAP1 DUP1 PUSH1 0x1 ADD SLOAD SWAP1 DUP1 PUSH1 0x2 ADD SLOAD SWAP1 DUP1 PUSH1 0x3 ADD PUSH0 SWAP1 SLOAD SWAP1 PUSH2 0x100 EXP SWAP1 DIV PUSH1 0xFF AND SWAP1 DUP1 PUSH1 0x4 ADD SLOAD SWAP1 DUP1 PUSH1 0x5 ADD SLOAD SWAP1 POP DUP7 JUMP JUMPDEST PUSH1 0x4 PUSH1 0x20 MSTORE DUP1 PUSH0 MSTORE PUSH1 0x40 PUSH0 KECCAK256 PUSH0 SWAP2 POP SWAP1 POP SLOAD DUP2 JUMP JUMPDEST PUSH0 PUSH0 SWAP1 SLOAD SWAP1 PUSH2 0x100 EXP SWAP1 DIV PUSH20 0xFFFFFFFFFFFFFFFFFFFFFFFFFFFFFFFFFFFFFFFF AND PUSH20 0xFFFFFFFFFFFFFFFFFFFFFFFFFFFFFFFFFFFFFFFF AND CALLER PUSH20 0xFFFFFFFFFFFFFFFFFFFFFFFFFFFFFFFFFFFFFFFF AND EQ PUSH2 0x356 JUMPI PUSH1 0x40 MLOAD PUSH32 0x8C379A000000000000000000000000000000000000000000000000000000000 DUP2 MSTORE PUSH1 0x4 ADD PUSH2 0x34D SWAP1 PUSH2 0xBCE JUMP JUMPDEST PUSH1 0x40 MLOAD DUP1 SWAP2 SUB SWAP1 REVERT JUMPDEST PUSH1 0x40 MLOAD DUP1 PUSH1 0x80 ADD PUSH1 0x40 MSTORE DUP1 DUP5 DUP2 MSTORE PUSH1 0x20 ADD DUP4 DUP2 MSTORE PUSH1 0x20 ADD PUSH0 ISZERO ISZERO DUP2 MSTORE PUSH1 0x20 ADD DUP3 DUP2 MSTORE POP PUSH1 0x2 PUSH0 DUP6 DUP2 MSTORE PUSH1 0x20 ADD SWAP1 DUP2 MSTORE PUSH1 0x20 ADD PUSH0 KECCAK256 PUSH0 DUP3 ADD MLOAD DUP2 PUSH0 ADD SSTORE PUSH1 0x20 DUP3 ADD MLOAD DUP2 PUSH1 0x1 ADD SSTORE PUSH1 0x40 DUP3 ADD MLOAD DUP2 PUSH1 0x2 ADD PUSH0 PUSH2 0x100 EXP DUP2 SLOAD DUP2 PUSH1 0xFF MUL NOT AND SWAP1 DUP4 ISZERO ISZERO MUL OR SWAP1 SSTORE POP PUSH1 0x60 DUP3 ADD MLOAD DUP2 PUSH1 0x3 ADD SSTORE SWAP1 POP POP POP POP POP JUMP JUMPDEST PUSH0 PUSH0 SWAP1 SLOAD SWAP1 PUSH2 0x100 EXP SWAP1 DIV PUSH20 0xFFFFFFFFFFFFFFFFFFFFFFFFFFFFFFFFFFFFFFFF AND PUSH20 0xFFFFFFFFFFFFFFFFFFFFFFFFFFFFFFFFFFFFFFFF AND CALLER PUSH20 0xFFFFFFFFFFFFFFFFFFFFFFFFFFFFFFFFFFFFFFFF AND EQ PUSH2 0x45B JUMPI PUSH1 0x40 MLOAD PUSH32 0x8C379A000000000000000000000000000000000000000000000000000000000 DUP2 MSTORE PUSH1 0x4 ADD PUSH2 0x452 SWAP1 PUSH2 0xBCE JUMP JUMPDEST PUSH1 0x40 MLOAD DUP1 SWAP2 SUB SWAP1 REVERT JUMPDEST PUSH1 0x2 PUSH0 DUP3 DUP2 MSTORE PUSH1 0x20 ADD SWAP1 DUP2 MSTORE PUSH1 0x20 ADD PUSH0 KECCAK256 PUSH0 PUSH0 DUP3 ADD PUSH0 SWAP1 SSTORE PUSH1 0x1 DUP3 ADD PUSH0 SWAP1 SSTORE PUSH1 0x2 DUP3 ADD PUSH0 PUSH2 0x100 EXP DUP2 SLOAD SWAP1 PUSH1 0xFF MUL NOT AND SWAP1 SSTORE PUSH1 0x3 DUP3 ADD PUSH0 SWAP1 SSTORE POP POP POP JUMP JUMPDEST PUSH0 PUSH0 SWAP1 SLOAD SWAP1 PUSH2 0x100 EXP SWAP1 DIV PUSH20 0xFFFFFFFFFFFFFFFFFFFFFFFFFFFFFFFFFFFFFFFF AND PUSH20 0xFFFFFFFFFFFFFFFFFFFFFFFFFFFFFFFFFFFFFFFF AND CALLER PUSH20 0xFFFFFFFFFFFFFFFFFFFFFFFFFFFFFFFFFFFFFFFF AND EQ PUSH2 0x527 JUMPI PUSH1 0x40 MLOAD PUSH32 0x8C379A000000000000000000000000000000000000000000000000000000000 DUP2 MSTORE PUSH1 0x4 ADD PUSH2 0x51E SWAP1 PUSH2 0xBCE JUMP JUMPDEST PUSH1 0x40 MLOAD DUP1 SWAP2 SUB SWAP1 REVERT JUMPDEST DUP2 PUSH1 0x2 PUSH0 DUP6 DUP2 MSTORE PUSH1 0x20 ADD SWAP1 DUP2 MSTORE PUSH1 0x20 ADD PUSH0 KECCAK256 PUSH1 0x1 ADD DUP2 SWAP1 SSTORE POP DUP1 PUSH1 0x2 PUSH0 DUP6 DUP2 MSTORE PUSH1 0x20 ADD SWAP1 DUP2 MSTORE PUSH1 0x20 ADD PUSH0 KECCAK256 PUSH1 0x2 ADD PUSH0 PUSH2 0x100 EXP DUP2 SLOAD DUP2 PUSH1 0xFF MUL NOT AND SWAP1 DUP4 ISZERO ISZERO MUL OR SWAP1 SSTORE POP POP POP POP JUMP JUMPDEST PUSH0 PUSH0 SWAP1 SLOAD SWAP1 PUSH2 0x100 EXP SWAP1 DIV PUSH20 0xFFFFFFFFFFFFFFFFFFFFFFFFFFFFFFFFFFFFFFFF AND PUSH20 0xFFFFFFFFFFFFFFFFFFFFFFFFFFFFFFFFFFFFFFFF AND CALLER PUSH20 0xFFFFFFFFFFFFFFFFFFFFFFFFFFFFFFFFFFFFFFFF AND SUB PUSH2 0x5FE JUMPI PUSH1 0x40 MLOAD PUSH32 0x8C379A000000000000000000000000000000000000000000000000000000000 DUP2 MSTORE PUSH1 0x4 ADD PUSH2 0x5F5 SWAP1 PUSH2 0xC36 JUMP JUMPDEST PUSH1 0x40 MLOAD DUP1 SWAP2 SUB SWAP1 REVERT JUMPDEST DUP2 PUSH1 0x1 ISZERO ISZERO PUSH1 0x2 PUSH0 DUP4 DUP2 MSTORE PUSH1 0x20 ADD SWAP1 DUP2 MSTORE PUSH1 0x20 ADD PUSH0 KECCAK256 PUSH1 0x2 ADD PUSH0 SWAP1 SLOAD SWAP1 PUSH2 0x100 EXP SWAP1 DIV PUSH1 0xFF AND ISZERO ISZERO EQ PUSH2 0x666 JUMPI PUSH1 0x40 MLOAD PUSH32 0x8C379A000000000000000000000000000000000000000000000000000000000 DUP2 MSTORE PUSH1 0x4 ADD PUSH2 0x65D SWAP1 PUSH2 0xC9E JUMP JUMPDEST PUSH1 0x40 MLOAD DUP1 SWAP2 SUB SWAP1 REVERT JUMPDEST PUSH1 0x2 PUSH0 DUP5 DUP2 MSTORE PUSH1 0x20 ADD SWAP1 DUP2 MSTORE PUSH1 0x20 ADD PUSH0 KECCAK256 PUSH1 0x1 ADD SLOAD CALLVALUE LT ISZERO PUSH2 0x6BD JUMPI PUSH1 0x40 MLOAD PUSH32 0x8C379A000000000000000000000000000000000000000000000000000000000 DUP2 MSTORE PUSH1 0x4 ADD PUSH2 0x6B4 SWAP1 PUSH2 0xD06 JUMP JUMPDEST PUSH1 0x40 MLOAD DUP1 SWAP2 SUB SWAP1 REVERT JUMPDEST PUSH0 PUSH1 0x2 PUSH0 DUP6 DUP2 MSTORE PUSH1 0x20 ADD SWAP1 DUP2 MSTORE PUSH1 0x20 ADD PUSH0 KECCAK256 PUSH1 0x2 ADD PUSH0 PUSH2 0x100 EXP DUP2 SLOAD DUP2 PUSH1 0xFF MUL NOT AND SWAP1 DUP4 ISZERO ISZERO MUL OR SWAP1 SSTORE POP PUSH0 TIMESTAMP SWAP1 POP PUSH0 PUSH3 0x15180 DUP5 PUSH2 0x6FC SWAP2 SWAP1 PUSH2 0xD51 JUMP JUMPDEST DUP3 PUSH2 0x707 SWAP2 SWAP1 PUSH2 0xD92 JUMP JUMPDEST SWAP1 POP PUSH1 0x40 MLOAD DUP1 PUSH1 0xC0 ADD PUSH1 0x40 MSTORE DUP1 CALLER PUSH20 0xFFFFFFFFFFFFFFFFFFFFFFFFFFFFFFFFFFFFFFFF AND DUP2 MSTORE PUSH1 0x20 ADD DUP7 DUP2 MSTORE PUSH1 0x20 ADD CALLVALUE DUP2 MSTORE PUSH1 0x20 ADD PUSH1 0x1 ISZERO ISZERO DUP2 MSTORE PUSH1 0x20 ADD DUP3 DUP2 MSTORE PUSH1 0x20 ADD DUP4 DUP2 MSTORE POP PUSH1 0x3 PUSH0 DUP8 DUP2 MSTORE PUSH1 0x20 ADD SWAP1 DUP2 MSTORE PUSH1 0x20 ADD PUSH0 KECCAK256 PUSH0 DUP3 ADD MLOAD DUP2 PUSH0 ADD PUSH0 PUSH2 0x100 EXP DUP2 SLOAD DUP2 PUSH20 0xFFFFFFFFFFFFFFFFFFFFFFFFFFFFFFFFFFFFFFFF MUL NOT AND SWAP1 DUP4 PUSH20 0xFFFFFFFFFFFFFFFFFFFFFFFFFFFFFFFFFFFFFFFF AND MUL OR SWAP1 SSTORE POP PUSH1 0x20 DUP3 ADD MLOAD DUP2 PUSH1 0x1 ADD SSTORE PUSH1 0x40 DUP3 ADD MLOAD DUP2 PUSH1 0x2 ADD SSTORE PUSH1 0x60 DUP3 ADD MLOAD DUP2 PUSH1 0x3 ADD PUSH0 PUSH2 0x100 EXP DUP2 SLOAD DUP2 PUSH1 0xFF MUL NOT AND SWAP1 DUP4 ISZERO ISZERO MUL OR SWAP1 SSTORE POP PUSH1 0x80 DUP3 ADD MLOAD DUP2 PUSH1 0x4 ADD SSTORE PUSH1 0xA0 DUP3 ADD MLOAD DUP2 PUSH1 0x5 ADD SSTORE SWAP1 POP POP POP POP POP POP POP JUMP JUMPDEST PUSH1 0x1 SLOAD DUP2 JUMP JUMPDEST PUSH0 CALLVALUE GT PUSH2 0x83D JUMPI PUSH1 0x40 MLOAD PUSH32 0x8C379A000000000000000000000000000000000000000000000000000000000 DUP2 MSTORE PUSH1 0x4 ADD PUSH2 0x834 SWAP1 PUSH2 0xE0F JUMP JUMPDEST PUSH1 0x40 MLOAD DUP1 SWAP2 SUB SWAP1 REVERT JUMPDEST CALLVALUE PUSH1 0x4 PUSH0 CALLER PUSH20 0xFFFFFFFFFFFFFFFFFFFFFFFFFFFFFFFFFFFFFFFF AND PUSH20 0xFFFFFFFFFFFFFFFFFFFFFFFFFFFFFFFFFFFFFFFF AND DUP2 MSTORE PUSH1 0x20 ADD SWAP1 DUP2 MSTORE PUSH1 0x20 ADD PUSH0 KECCAK256 PUSH0 DUP3 DUP3 SLOAD PUSH2 0x889 SWAP2 SWAP1 PUSH2 0xD92 JUMP JUMPDEST SWAP3 POP POP DUP2 SWAP1 SSTORE POP JUMP JUMPDEST PUSH0 PUSH0 REVERT JUMPDEST PUSH0 DUP2 SWAP1 POP SWAP2 SWAP1 POP JUMP JUMPDEST PUSH2 0x8A8 DUP2 PUSH2 0x896 JUMP JUMPDEST DUP2 EQ PUSH2 0x8B2 JUMPI PUSH0 PUSH0 REVERT JUMPDEST POP JUMP JUMPDEST PUSH0 DUP2 CALLDATALOAD SWAP1 POP PUSH2 0x8C3 DUP2 PUSH2 0x89F JUMP JUMPDEST SWAP3 SWAP2 POP POP JUMP JUMPDEST PUSH0 PUSH1 0x20 DUP3 DUP5 SUB SLT ISZERO PUSH2 0x8DE JUMPI PUSH2 0x8DD PUSH2 0x892 JUMP JUMPDEST JUMPDEST PUSH0 PUSH2 0x8EB DUP5 DUP3 DUP6 ADD PUSH2 0x8B5 JUMP JUMPDEST SWAP2 POP POP SWAP3 SWAP2 POP POP JUMP JUMPDEST PUSH2 0x8FD DUP2 PUSH2 0x896 JUMP JUMPDEST DUP3 MSTORE POP POP JUMP JUMPDEST PUSH0 DUP2 ISZERO ISZERO SWAP1 POP SWAP2 SWAP1 POP JUMP JUMPDEST PUSH2 0x917 DUP2 PUSH2 0x903 JUMP JUMPDEST DUP3 MSTORE POP POP JUMP JUMPDEST PUSH0 PUSH1 0x80 DUP3 ADD SWAP1 POP PUSH2 0x930 PUSH0 DUP4 ADD DUP8 PUSH2 0x8F4 JUMP JUMPDEST PUSH2 0x93D PUSH1 0x20 DUP4 ADD DUP7 PUSH2 0x8F4 JUMP JUMPDEST PUSH2 0x94A PUSH1 0x40 DUP4 ADD DUP6 PUSH2 0x90E JUMP JUMPDEST PUSH2 0x957 PUSH1 0x60 DUP4 ADD DUP5 PUSH2 0x8F4 JUMP JUMPDEST SWAP6 SWAP5 POP POP POP POP POP JUMP JUMPDEST PUSH0 PUSH20 0xFFFFFFFFFFFFFFFFFFFFFFFFFFFFFFFFFFFFFFFF DUP3 AND SWAP1 POP SWAP2 SWAP1 POP JUMP JUMPDEST PUSH0 PUSH2 0x989 DUP3 PUSH2 0x960 JUMP JUMPDEST SWAP1 POP SWAP2 SWAP1 POP JUMP JUMPDEST PUSH2 0x999 DUP2 PUSH2 0x97F JUMP JUMPDEST DUP3 MSTORE POP POP JUMP JUMPDEST PUSH0 PUSH1 0xC0 DUP3 ADD SWAP1 POP PUSH2 0x9B2 PUSH0 DUP4 ADD DUP10 PUSH2 0x990 JUMP JUMPDEST PUSH2 0x9BF PUSH1 0x20 DUP4 ADD DUP9 PUSH2 0x8F4 JUMP JUMPDEST PUSH2 0x9CC PUSH1 0x40 DUP4 ADD DUP8 PUSH2 0x8F4 JUMP JUMPDEST PUSH2 0x9D9 PUSH1 0x60 DUP4 ADD DUP7 PUSH2 0x90E JUMP JUMPDEST PUSH2 0x9E6 PUSH1 0x80 DUP4 ADD DUP6 PUSH2 0x8F4 JUMP JUMPDEST PUSH2 0x9F3 PUSH1 0xA0 DUP4 ADD DUP5 PUSH2 0x8F4 JUMP JUMPDEST SWAP8 SWAP7 POP POP POP POP POP POP POP JUMP JUMPDEST PUSH2 0xA07 DUP2 PUSH2 0x97F JUMP JUMPDEST DUP2 EQ PUSH2 0xA11 JUMPI PUSH0 PUSH0 REVERT JUMPDEST POP JUMP JUMPDEST PUSH0 DUP2 CALLDATALOAD SWAP1 POP PUSH2 0xA22 DUP2 PUSH2 0x9FE JUMP JUMPDEST SWAP3 SWAP2 POP POP JUMP JUMPDEST PUSH0 PUSH1 0x20 DUP3 DUP5 SUB SLT ISZERO PUSH2 0xA3D JUMPI PUSH2 0xA3C PUSH2 0x892 JUMP JUMPDEST JUMPDEST PUSH0 PUSH2 0xA4A DUP5 DUP3 DUP6 ADD PUSH2 0xA14 JUMP JUMPDEST SWAP2 POP POP SWAP3 SWAP2 POP POP JUMP JUMPDEST PUSH0 PUSH1 0x20 DUP3 ADD SWAP1 POP PUSH2 0xA66 PUSH0 DUP4 ADD DUP5 PUSH2 0x8F4 JUMP JUMPDEST SWAP3 SWAP2 POP POP JUMP JUMPDEST PUSH0 PUSH0 PUSH0 PUSH1 0x60 DUP5 DUP7 SUB SLT ISZERO PUSH2 0xA83 JUMPI PUSH2 0xA82 PUSH2 0x892 JUMP JUMPDEST JUMPDEST PUSH0 PUSH2 0xA90 DUP7 DUP3 DUP8 ADD PUSH2 0x8B5 JUMP JUMPDEST SWAP4 POP POP PUSH1 0x20 PUSH2 0xAA1 DUP7 DUP3 DUP8 ADD PUSH2 0x8B5 JUMP JUMPDEST SWAP3 POP POP PUSH1 0x40 PUSH2 0xAB2 DUP7 DUP3 DUP8 ADD PUSH2 0x8B5 JUMP JUMPDEST SWAP2 POP POP SWAP3 POP SWAP3 POP SWAP3 JUMP JUMPDEST PUSH2 0xAC5 DUP2 PUSH2 0x903 JUMP JUMPDEST DUP2 EQ PUSH2 0xACF JUMPI PUSH0 PUSH0 REVERT JUMPDEST POP JUMP JUMPDEST PUSH0 DUP2 CALLDATALOAD SWAP1 POP PUSH2 0xAE0 DUP2 PUSH2 0xABC JUMP JUMPDEST SWAP3 SWAP2 POP POP JUMP JUMPDEST PUSH0 PUSH0 PUSH0 PUSH1 0x60 DUP5 DUP7 SUB SLT ISZERO PUSH2 0xAFD JUMPI PUSH2 0xAFC PUSH2 0x892 JUMP JUMPDEST JUMPDEST PUSH0 PUSH2 0xB0A DUP7 DUP3 DUP8 ADD PUSH2 0x8B5 JUMP JUMPDEST SWAP4 POP POP PUSH1 0x20 PUSH2 0xB1B DUP7 DUP3 DUP8 ADD PUSH2 0x8B5 JUMP JUMPDEST SWAP3 POP POP PUSH1 0x40 PUSH2 0xB2C DUP7 DUP3 DUP8 ADD PUSH2 0xAD2 JUMP JUMPDEST SWAP2 POP POP SWAP3 POP SWAP3 POP SWAP3 JUMP JUMPDEST PUSH0 PUSH0 PUSH1 0x40 DUP4 DUP6 SUB SLT ISZERO PUSH2 0xB4C JUMPI PUSH2 0xB4B PUSH2 0x892 JUMP JUMPDEST JUMPDEST PUSH0 PUSH2 0xB59 DUP6 DUP3 DUP7 ADD PUSH2 0x8B5 JUMP JUMPDEST SWAP3 POP POP PUSH1 0x20 PUSH2 0xB6A DUP6 DUP3 DUP7 ADD PUSH2 0x8B5 JUMP JUMPDEST SWAP2 POP POP SWAP3 POP SWAP3 SWAP1 POP JUMP JUMPDEST PUSH0 DUP3 DUP3 MSTORE PUSH1 0x20 DUP3 ADD SWAP1 POP SWAP3 SWAP2 POP POP JUMP JUMPDEST PUSH32 0x4E6F7420746865206D616E616765720000000000000000000000000000000000 PUSH0 DUP3 ADD MSTORE POP JUMP JUMPDEST PUSH0 PUSH2 0xBB8 PUSH1 0xF DUP4 PUSH2 0xB74 JUMP JUMPDEST SWAP2 POP PUSH2 0xBC3 DUP3 PUSH2 0xB84 JUMP JUMPDEST PUSH1 0x20 DUP3 ADD SWAP1 POP SWAP2 SWAP1 POP JUMP JUMPDEST PUSH0 PUSH1 0x20 DUP3 ADD SWAP1 POP DUP2 DUP2 SUB PUSH0 DUP4 ADD MSTORE PUSH2 0xBE5 DUP2 PUSH2 0xBAC JUMP JUMPDEST SWAP1 POP SWAP2 SWAP1 POP JUMP JUMPDEST PUSH32 0x4E6F74206F776E65727300000000000000000000000000000000000000000000 PUSH0 DUP3 ADD MSTORE POP JUMP JUMPDEST PUSH0 PUSH2 0xC20 PUSH1 0xA DUP4 PUSH2 0xB74 JUMP JUMPDEST SWAP2 POP PUSH2 0xC2B DUP3 PUSH2 0xBEC JUMP JUMPDEST PUSH1 0x20 DUP3 ADD SWAP1 POP SWAP2 SWAP1 POP JUMP JUMPDEST PUSH0 PUSH1 0x20 DUP3 ADD SWAP1 POP DUP2 DUP2 SUB PUSH0 DUP4 ADD MSTORE PUSH2 0xC4D DUP2 PUSH2 0xC14 JUMP JUMPDEST SWAP1 POP SWAP2 SWAP1 POP JUMP JUMPDEST PUSH32 0x526F6F6D206E6F7420617661696C61626C650000000000000000000000000000 PUSH0 DUP3 ADD MSTORE POP JUMP JUMPDEST PUSH0 PUSH2 0xC88 PUSH1 0x12 DUP4 PUSH2 0xB74 JUMP JUMPDEST SWAP2 POP PUSH2 0xC93 DUP3 PUSH2 0xC54 JUMP JUMPDEST PUSH1 0x20 DUP3 ADD SWAP1 POP SWAP2 SWAP1 POP JUMP JUMPDEST PUSH0 PUSH1 0x20 DUP3 ADD SWAP1 POP DUP2 DUP2 SUB PUSH0 DUP4 ADD MSTORE PUSH2 0xCB5 DUP2 PUSH2 0xC7C JUMP JUMPDEST SWAP1 POP SWAP2 SWAP1 POP JUMP JUMPDEST PUSH32 0x496E737566696369656E74206574686572730000000000000000000000000000 PUSH0 DUP3 ADD MSTORE POP JUMP JUMPDEST PUSH0 PUSH2 0xCF0 PUSH1 0x12 DUP4 PUSH2 0xB74 JUMP JUMPDEST SWAP2 POP PUSH2 0xCFB DUP3 PUSH2 0xCBC JUMP JUMPDEST PUSH1 0x20 DUP3 ADD SWAP1 POP SWAP2 SWAP1 POP JUMP JUMPDEST PUSH0 PUSH1 0x20 DUP3 ADD SWAP1 POP DUP2 DUP2 SUB PUSH0 DUP4 ADD MSTORE PUSH2 0xD1D DUP2 PUSH2 0xCE4 JUMP JUMPDEST SWAP1 POP SWAP2 SWAP1 POP JUMP JUMPDEST PUSH32 0x4E487B7100000000000000000000000000000000000000000000000000000000 PUSH0 MSTORE PUSH1 0x11 PUSH1 0x4 MSTORE PUSH1 0x24 PUSH0 REVERT JUMPDEST PUSH0 PUSH2 0xD5B DUP3 PUSH2 0x896 JUMP JUMPDEST SWAP2 POP PUSH2 0xD66 DUP4 PUSH2 0x896 JUMP JUMPDEST SWAP3 POP DUP3 DUP3 MUL PUSH2 0xD74 DUP2 PUSH2 0x896 JUMP JUMPDEST SWAP2 POP DUP3 DUP3 DIV DUP5 EQ DUP4 ISZERO OR PUSH2 0xD8B JUMPI PUSH2 0xD8A PUSH2 0xD24 JUMP JUMPDEST JUMPDEST POP SWAP3 SWAP2 POP POP JUMP JUMPDEST PUSH0 PUSH2 0xD9C DUP3 PUSH2 0x896 JUMP JUMPDEST SWAP2 POP PUSH2 0xDA7 DUP4 PUSH2 0x896 JUMP JUMPDEST SWAP3 POP DUP3 DUP3 ADD SWAP1 POP DUP1 DUP3 GT ISZERO PUSH2 0xDBF JUMPI PUSH2 0xDBE PUSH2 0xD24 JUMP JUMPDEST JUMPDEST SWAP3 SWAP2 POP POP JUMP JUMPDEST PUSH32 0x76616C7565206D7573742062652067726561746572207468616E203000000000 PUSH0 DUP3 ADD MSTORE POP JUMP JUMPDEST PUSH0 PUSH2 0xDF9 PUSH1 0x1C DUP4 PUSH2 0xB74 JUMP JUMPDEST SWAP2 POP PUSH2 0xE04 DUP3 PUSH2 0xDC5 JUMP JUMPDEST PUSH1 0x20 DUP3 ADD SWAP1 POP SWAP2 SWAP1 POP JUMP JUMPDEST PUSH0 PUSH1 0x20 DUP3 ADD SWAP1 POP DUP2 DUP2 SUB PUSH0 DUP4 ADD MSTORE PUSH2 0xE26 DUP2 PUSH2 0xDED JUMP JUMPDEST SWAP1 POP SWAP2 SWAP1 POP JUMP INVALID LOG2 PUSH5 0x6970667358 0x22 SLT KECCAK256 SWAP15 0xAD SWAP1 0xD8 0xDF SWAP10 0xAA PUSH7 0xFBB55D7D9EE07E PUSH0 TSTORE EXTCODEHASH PUSH24 0x69F7F6FADA899AAE01D0450CC964736F6C634300081C0033 "
				},
				"gasEstimates": {
					"creation": {
						"codeDepositCost": "736600",
						"executionCost": "30040",
						"totalCost": "766640"
					},
					"external": {
						"addRoom(uint256,uint256,uint256)": "infinite",
						"availableRooms()": "2491",
						"balances(address)": "2847",
						"bookRoom(uint256,uint256)": "infinite",
						"bookings(uint256)": "infinite",
						"deposit()": "infinite",
						"removeRoom(uint256)": "41942",
						"rooms(uint256)": "infinite",
						"updateRooms(uint256,uint256,bool)": "infinite"
					}
				},
				"methodIdentifiers": {
					"addRoom(uint256,uint256,uint256)": "2c73ca76",
					"availableRooms()": "ae3c0176",
					"balances(address)": "27e235e3",
					"bookRoom(uint256,uint256)": "8a3a1a18",
					"bookings(uint256)": "1dab301e",
					"deposit()": "d0e30db0",
					"removeRoom(uint256)": "461d60be",
					"rooms(uint256)": "1bae0ac8",
					"updateRooms(uint256,uint256,bool)": "70ca7b03"
				}
			},
			"storageLayout": {
				"storage": [
					{
						"astId": 3,
						"contract": "contracts/10_HouseBooking.sol:Hostel",
						"label": "manager",
						"offset": 0,
						"slot": "0",
						"type": "t_address_payable"
					},
					{
						"astId": 6,
						"contract": "contracts/10_HouseBooking.sol:Hostel",
						"label": "availableRooms",
						"offset": 0,
						"slot": "1",
						"type": "t_uint256"
					},
					{
						"astId": 32,
						"contract": "contracts/10_HouseBooking.sol:Hostel",
						"label": "rooms",
						"offset": 0,
						"slot": "2",
						"type": "t_mapping(t_uint256,t_struct(Room)27_storage)"
					},
					{
						"astId": 50,
						"contract": "contracts/10_HouseBooking.sol:Hostel",
						"label": "bookings",
						"offset": 0,
						"slot": "3",
						"type": "t_mapping(t_uint256,t_struct(Booking)45_storage)"
					},
					{
						"astId": 54,
						"contract": "contracts/10_HouseBooking.sol:Hostel",
						"label": "balances",
						"offset": 0,
						"slot": "4",
						"type": "t_mapping(t_address,t_uint256)"
					}
				],
				"types": {
					"t_address": {
						"encoding": "inplace",
						"label": "address",
						"numberOfBytes": "20"
					},
					"t_address_payable": {
						"encoding": "inplace",
						"label": "address payable",
						"numberOfBytes": "20"
					},
					"t_bool": {
						"encoding": "inplace",
						"label": "bool",
						"numberOfBytes": "1"
					},
					"t_mapping(t_address,t_uint256)": {
						"encoding": "mapping",
						"key": "t_address",
						"label": "mapping(address => uint256)",
						"numberOfBytes": "32",
						"value": "t_uint256"
					},
					"t_mapping(t_uint256,t_struct(Booking)45_storage)": {
						"encoding": "mapping",
						"key": "t_uint256",
						"label": "mapping(uint256 => struct Hostel.Booking)",
						"numberOfBytes": "32",
						"value": "t_struct(Booking)45_storage"
					},
					"t_mapping(t_uint256,t_struct(Room)27_storage)": {
						"encoding": "mapping",
						"key": "t_uint256",
						"label": "mapping(uint256 => struct Hostel.Room)",
						"numberOfBytes": "32",
						"value": "t_struct(Room)27_storage"
					},
					"t_struct(Booking)45_storage": {
						"encoding": "inplace",
						"label": "struct Hostel.Booking",
						"members": [
							{
								"astId": 34,
								"contract": "contracts/10_HouseBooking.sol:Hostel",
								"label": "customer",
								"offset": 0,
								"slot": "0",
								"type": "t_address"
							},
							{
								"astId": 36,
								"contract": "contracts/10_HouseBooking.sol:Hostel",
								"label": "roomId",
								"offset": 0,
								"slot": "1",
								"type": "t_uint256"
							},
							{
								"astId": 38,
								"contract": "contracts/10_HouseBooking.sol:Hostel",
								"label": "amountPaid",
								"offset": 0,
								"slot": "2",
								"type": "t_uint256"
							},
							{
								"astId": 40,
								"contract": "contracts/10_HouseBooking.sol:Hostel",
								"label": "isConfiremd",
								"offset": 0,
								"slot": "3",
								"type": "t_bool"
							},
							{
								"astId": 42,
								"contract": "contracts/10_HouseBooking.sol:Hostel",
								"label": "checkoutTime",
								"offset": 0,
								"slot": "4",
								"type": "t_uint256"
							},
							{
								"astId": 44,
								"contract": "contracts/10_HouseBooking.sol:Hostel",
								"label": "checkInTime",
								"offset": 0,
								"slot": "5",
								"type": "t_uint256"
							}
						],
						"numberOfBytes": "192"
					},
					"t_struct(Room)27_storage": {
						"encoding": "inplace",
						"label": "struct Hostel.Room",
						"members": [
							{
								"astId": 20,
								"contract": "contracts/10_HouseBooking.sol:Hostel",
								"label": "id",
								"offset": 0,
								"slot": "0",
								"type": "t_uint256"
							},
							{
								"astId": 22,
								"contract": "contracts/10_HouseBooking.sol:Hostel",
								"label": "roomPrice",
								"offset": 0,
								"slot": "1",
								"type": "t_uint256"
							},
							{
								"astId": 24,
								"contract": "contracts/10_HouseBooking.sol:Hostel",
								"label": "isAvailable",
								"offset": 0,
								"slot": "2",
								"type": "t_bool"
							},
							{
								"astId": 26,
								"contract": "contracts/10_HouseBooking.sol:Hostel",
								"label": "roomCapacity",
								"offset": 0,
								"slot": "3",
								"type": "t_uint256"
							}
						],
						"numberOfBytes": "128"
					},
					"t_uint256": {
						"encoding": "inplace",
						"label": "uint256",
						"numberOfBytes": "32"
					}
				}
			},
			"userdoc": {
				"kind": "user",
				"methods": {},
				"version": 1
			}
		}
	}
}