{
	"contracts/18_SendingEthers.sol": {
		"Caller": {
			"abi": [
				{
					"anonymous": false,
					"inputs": [
						{
							"indexed": false,
							"internalType": "bool",
							"name": "success",
							"type": "bool"
						},
						{
							"indexed": false,
							"internalType": "bytes",
							"name": "data",
							"type": "bytes"
						}
					],
					"name": "Response",
					"type": "event"
				},
				{
					"inputs": [
						{
							"internalType": "address payable",
							"name": "_addr",
							"type": "address"
						}
					],
					"name": "testCallFoo",
					"outputs": [],
					"stateMutability": "payable",
					"type": "function"
				}
			],
			"devdoc": {
				"kind": "dev",
				"methods": {},
				"version": 1
			},
			"evm": {
				"assembly": "    /* \"contracts/18_SendingEthers.sol\":2009:2358  contract Caller{... */\n  mstore(0x40, 0x80)\n  callvalue\n  dup1\n  iszero\n  tag_1\n  jumpi\n  0x00\n  dup1\n  revert\ntag_1:\n  pop\n  dataSize(sub_0)\n  dup1\n  dataOffset(sub_0)\n  0x00\n  codecopy\n  0x00\n  return\nstop\n\nsub_0: assembly {\n        /* \"contracts/18_SendingEthers.sol\":2009:2358  contract Caller{... */\n      mstore(0x40, 0x80)\n      jumpi(tag_1, lt(calldatasize, 0x04))\n      shr(0xe0, calldataload(0x00))\n      dup1\n      0x87ba6179\n      eq\n      tag_2\n      jumpi\n    tag_1:\n      0x00\n      dup1\n      revert\n        /* \"contracts/18_SendingEthers.sol\":2076:2349  function testCallFoo(address payable _addr) public payable {... */\n    tag_2:\n      tag_3\n      0x04\n      dup1\n      calldatasize\n      sub\n      dup2\n      add\n      swap1\n      tag_4\n      swap2\n      swap1\n      tag_5\n      jump\t// in\n    tag_4:\n      tag_6\n      jump\t// in\n    tag_3:\n      stop\n    tag_6:\n        /* \"contracts/18_SendingEthers.sol\":2146:2158  bool success */\n      0x00\n        /* \"contracts/18_SendingEthers.sol\":2160:2177  bytes memory data */\n      dup1\n        /* \"contracts/18_SendingEthers.sol\":2179:2184  _addr */\n      dup3\n        /* \"contracts/18_SendingEthers.sol\":2179:2189  _addr.call */\n      0xffffffffffffffffffffffffffffffffffffffff\n      and\n        /* \"contracts/18_SendingEthers.sol\":2196:2205  msg.value */\n      callvalue\n        /* \"contracts/18_SendingEthers.sol\":2211:2215  5000 */\n      0x1388\n        /* \"contracts/18_SendingEthers.sol\":2179:2304  _addr.call{value:msg.value, gas:5000}(... */\n      swap1\n        /* \"contracts/18_SendingEthers.sol\":2290:2293  123 */\n      0x7b\n        /* \"contracts/18_SendingEthers.sol\":2231:2294  abi.encodeWithSignature(\"foo(string,uint256)\", \"call foo\", 123) */\n      add(0x24, mload(0x40))\n      tag_8\n      swap2\n      swap1\n      tag_9\n      jump\t// in\n    tag_8:\n      mload(0x40)\n      0x20\n      dup2\n      dup4\n      sub\n      sub\n      dup2\n      mstore\n      swap1\n      0x40\n      mstore\n      and(not(0xffffffffffffffffffffffffffffffffffffffffffffffffffffffff), 0x24ccab8f00000000000000000000000000000000000000000000000000000000)\n      0x20\n      dup3\n      add\n      dup1\n      mload\n      0xffffffffffffffffffffffffffffffffffffffffffffffffffffffff\n      dup4\n      dup2\n      dup4\n      and\n      or\n      dup4\n      mstore\n      pop\n      pop\n      pop\n      pop\n        /* \"contracts/18_SendingEthers.sol\":2179:2304  _addr.call{value:msg.value, gas:5000}(... */\n      mload(0x40)\n      tag_10\n      swap2\n      swap1\n      tag_11\n      jump\t// in\n    tag_10:\n      0x00\n      mload(0x40)\n      dup1\n      dup4\n      sub\n      dup2\n      dup6\n      dup9\n      dup9\n      call\n      swap4\n      pop\n      pop\n      pop\n      pop\n      returndatasize\n      dup1\n      0x00\n      dup2\n      eq\n      tag_14\n      jumpi\n      mload(0x40)\n      swap2\n      pop\n      and(add(returndatasize, 0x3f), not(0x1f))\n      dup3\n      add\n      0x40\n      mstore\n      returndatasize\n      dup3\n      mstore\n      returndatasize\n      0x00\n      0x20\n      dup5\n      add\n      returndatacopy\n      jump(tag_13)\n    tag_14:\n      0x60\n      swap2\n      pop\n    tag_13:\n      pop\n        /* \"contracts/18_SendingEthers.sol\":2145:2304  (bool success, bytes memory data)=_addr.call{value:msg.value, gas:5000}(... */\n      swap2\n      pop\n      swap2\n      pop\n        /* \"contracts/18_SendingEthers.sol\":2320:2343  Response(success, data) */\n      0x13848c3e38f8886f3f5d2ad9dff80d8092c2bbb8efd5b887a99c2c6cfc09ac2a\n        /* \"contracts/18_SendingEthers.sol\":2329:2336  success */\n      dup3\n        /* \"contracts/18_SendingEthers.sol\":2338:2342  data */\n      dup3\n        /* \"contracts/18_SendingEthers.sol\":2320:2343  Response(success, data) */\n      mload(0x40)\n      tag_15\n      swap3\n      swap2\n      swap1\n      tag_16\n      jump\t// in\n    tag_15:\n      mload(0x40)\n      dup1\n      swap2\n      sub\n      swap1\n      log1\n        /* \"contracts/18_SendingEthers.sol\":2135:2349  {... */\n      pop\n      pop\n        /* \"contracts/18_SendingEthers.sol\":2076:2349  function testCallFoo(address payable _addr) public payable {... */\n      pop\n      jump\t// out\n        /* \"#utility.yul\":88:205   */\n    tag_18:\n        /* \"#utility.yul\":197:198   */\n      0x00\n        /* \"#utility.yul\":194:195   */\n      dup1\n        /* \"#utility.yul\":187:199   */\n      revert\n        /* \"#utility.yul\":334:460   */\n    tag_20:\n        /* \"#utility.yul\":371:378   */\n      0x00\n        /* \"#utility.yul\":411:453   */\n      0xffffffffffffffffffffffffffffffffffffffff\n        /* \"#utility.yul\":404:409   */\n      dup3\n        /* \"#utility.yul\":400:454   */\n      and\n        /* \"#utility.yul\":389:454   */\n      swap1\n      pop\n        /* \"#utility.yul\":334:460   */\n      swap2\n      swap1\n      pop\n      jump\t// out\n        /* \"#utility.yul\":466:570   */\n    tag_21:\n        /* \"#utility.yul\":511:518   */\n      0x00\n        /* \"#utility.yul\":540:564   */\n      tag_47\n        /* \"#utility.yul\":558:563   */\n      dup3\n        /* \"#utility.yul\":540:564   */\n      tag_20\n      jump\t// in\n    tag_47:\n        /* \"#utility.yul\":529:564   */\n      swap1\n      pop\n        /* \"#utility.yul\":466:570   */\n      swap2\n      swap1\n      pop\n      jump\t// out\n        /* \"#utility.yul\":576:714   */\n    tag_22:\n        /* \"#utility.yul\":657:689   */\n      tag_49\n        /* \"#utility.yul\":683:688   */\n      dup2\n        /* \"#utility.yul\":657:689   */\n      tag_21\n      jump\t// in\n    tag_49:\n        /* \"#utility.yul\":650:655   */\n      dup2\n        /* \"#utility.yul\":647:690   */\n      eq\n        /* \"#utility.yul\":637:708   */\n      tag_50\n      jumpi\n        /* \"#utility.yul\":704:705   */\n      0x00\n        /* \"#utility.yul\":701:702   */\n      dup1\n        /* \"#utility.yul\":694:706   */\n      revert\n        /* \"#utility.yul\":637:708   */\n    tag_50:\n        /* \"#utility.yul\":576:714   */\n      pop\n      jump\t// out\n        /* \"#utility.yul\":720:875   */\n    tag_23:\n        /* \"#utility.yul\":774:779   */\n      0x00\n        /* \"#utility.yul\":812:818   */\n      dup2\n        /* \"#utility.yul\":799:819   */\n      calldataload\n        /* \"#utility.yul\":790:819   */\n      swap1\n      pop\n        /* \"#utility.yul\":828:869   */\n      tag_52\n        /* \"#utility.yul\":863:868   */\n      dup2\n        /* \"#utility.yul\":828:869   */\n      tag_22\n      jump\t// in\n    tag_52:\n        /* \"#utility.yul\":720:875   */\n      swap3\n      swap2\n      pop\n      pop\n      jump\t// out\n        /* \"#utility.yul\":881:1226   */\n    tag_5:\n        /* \"#utility.yul\":948:954   */\n      0x00\n        /* \"#utility.yul\":997:999   */\n      0x20\n        /* \"#utility.yul\":985:994   */\n      dup3\n        /* \"#utility.yul\":976:983   */\n      dup5\n        /* \"#utility.yul\":972:995   */\n      sub\n        /* \"#utility.yul\":968:1000   */\n      slt\n        /* \"#utility.yul\":965:1084   */\n      iszero\n      tag_54\n      jumpi\n        /* \"#utility.yul\":1003:1082   */\n      tag_55\n      tag_18\n      jump\t// in\n    tag_55:\n        /* \"#utility.yul\":965:1084   */\n    tag_54:\n        /* \"#utility.yul\":1123:1124   */\n      0x00\n        /* \"#utility.yul\":1148:1209   */\n      tag_56\n        /* \"#utility.yul\":1201:1208   */\n      dup5\n        /* \"#utility.yul\":1192:1198   */\n      dup3\n        /* \"#utility.yul\":1181:1190   */\n      dup6\n        /* \"#utility.yul\":1177:1199   */\n      add\n        /* \"#utility.yul\":1148:1209   */\n      tag_23\n      jump\t// in\n    tag_56:\n        /* \"#utility.yul\":1138:1209   */\n      swap2\n      pop\n        /* \"#utility.yul\":1094:1219   */\n      pop\n        /* \"#utility.yul\":881:1226   */\n      swap3\n      swap2\n      pop\n      pop\n      jump\t// out\n        /* \"#utility.yul\":1232:1401   */\n    tag_24:\n        /* \"#utility.yul\":1316:1327   */\n      0x00\n        /* \"#utility.yul\":1350:1356   */\n      dup3\n        /* \"#utility.yul\":1345:1348   */\n      dup3\n        /* \"#utility.yul\":1338:1357   */\n      mstore\n        /* \"#utility.yul\":1390:1394   */\n      0x20\n        /* \"#utility.yul\":1385:1388   */\n      dup3\n        /* \"#utility.yul\":1381:1395   */\n      add\n        /* \"#utility.yul\":1366:1395   */\n      swap1\n      pop\n        /* \"#utility.yul\":1232:1401   */\n      swap3\n      swap2\n      pop\n      pop\n      jump\t// out\n        /* \"#utility.yul\":1407:1565   */\n    tag_25:\n        /* \"#utility.yul\":1547:1557   */\n      0x63616c6c20666f6f000000000000000000000000000000000000000000000000\n        /* \"#utility.yul\":1543:1544   */\n      0x00\n        /* \"#utility.yul\":1535:1541   */\n      dup3\n        /* \"#utility.yul\":1531:1545   */\n      add\n        /* \"#utility.yul\":1524:1558   */\n      mstore\n        /* \"#utility.yul\":1407:1565   */\n      pop\n      jump\t// out\n        /* \"#utility.yul\":1571:1936   */\n    tag_26:\n        /* \"#utility.yul\":1713:1716   */\n      0x00\n        /* \"#utility.yul\":1734:1800   */\n      tag_60\n        /* \"#utility.yul\":1798:1799   */\n      0x08\n        /* \"#utility.yul\":1793:1796   */\n      dup4\n        /* \"#utility.yul\":1734:1800   */\n      tag_24\n      jump\t// in\n    tag_60:\n        /* \"#utility.yul\":1727:1800   */\n      swap2\n      pop\n        /* \"#utility.yul\":1809:1902   */\n      tag_61\n        /* \"#utility.yul\":1898:1901   */\n      dup3\n        /* \"#utility.yul\":1809:1902   */\n      tag_25\n      jump\t// in\n    tag_61:\n        /* \"#utility.yul\":1927:1929   */\n      0x20\n        /* \"#utility.yul\":1922:1925   */\n      dup3\n        /* \"#utility.yul\":1918:1930   */\n      add\n        /* \"#utility.yul\":1911:1930   */\n      swap1\n      pop\n        /* \"#utility.yul\":1571:1936   */\n      swap2\n      swap1\n      pop\n      jump\t// out\n        /* \"#utility.yul\":1942:2029   */\n    tag_27:\n        /* \"#utility.yul\":1989:1996   */\n      0x00\n        /* \"#utility.yul\":2018:2023   */\n      dup2\n        /* \"#utility.yul\":2007:2023   */\n      swap1\n      pop\n        /* \"#utility.yul\":1942:2029   */\n      swap2\n      swap1\n      pop\n      jump\t// out\n        /* \"#utility.yul\":2035:2121   */\n    tag_28:\n        /* \"#utility.yul\":2070:2077   */\n      0x00\n        /* \"#utility.yul\":2110:2114   */\n      0xff\n        /* \"#utility.yul\":2103:2108   */\n      dup3\n        /* \"#utility.yul\":2099:2115   */\n      and\n        /* \"#utility.yul\":2088:2115   */\n      swap1\n      pop\n        /* \"#utility.yul\":2035:2121   */\n      swap2\n      swap1\n      pop\n      jump\t// out\n        /* \"#utility.yul\":2127:2187   */\n    tag_29:\n        /* \"#utility.yul\":2155:2158   */\n      0x00\n        /* \"#utility.yul\":2176:2181   */\n      dup2\n        /* \"#utility.yul\":2169:2181   */\n      swap1\n      pop\n        /* \"#utility.yul\":2127:2187   */\n      swap2\n      swap1\n      pop\n      jump\t// out\n        /* \"#utility.yul\":2193:2351   */\n    tag_30:\n        /* \"#utility.yul\":2251:2260   */\n      0x00\n        /* \"#utility.yul\":2284:2345   */\n      tag_66\n        /* \"#utility.yul\":2300:2344   */\n      tag_67\n        /* \"#utility.yul\":2309:2343   */\n      tag_68\n        /* \"#utility.yul\":2337:2342   */\n      dup5\n        /* \"#utility.yul\":2309:2343   */\n      tag_27\n      jump\t// in\n    tag_68:\n        /* \"#utility.yul\":2300:2344   */\n      tag_29\n      jump\t// in\n    tag_67:\n        /* \"#utility.yul\":2284:2345   */\n      tag_28\n      jump\t// in\n    tag_66:\n        /* \"#utility.yul\":2271:2345   */\n      swap1\n      pop\n        /* \"#utility.yul\":2193:2351   */\n      swap2\n      swap1\n      pop\n      jump\t// out\n        /* \"#utility.yul\":2357:2504   */\n    tag_31:\n        /* \"#utility.yul\":2452:2497   */\n      tag_70\n        /* \"#utility.yul\":2491:2496   */\n      dup2\n        /* \"#utility.yul\":2452:2497   */\n      tag_30\n      jump\t// in\n    tag_70:\n        /* \"#utility.yul\":2447:2450   */\n      dup3\n        /* \"#utility.yul\":2440:2498   */\n      mstore\n        /* \"#utility.yul\":2357:2504   */\n      pop\n      pop\n      jump\t// out\n        /* \"#utility.yul\":2510:3055   */\n    tag_9:\n        /* \"#utility.yul\":2712:2716   */\n      0x00\n        /* \"#utility.yul\":2750:2752   */\n      0x40\n        /* \"#utility.yul\":2739:2748   */\n      dup3\n        /* \"#utility.yul\":2735:2753   */\n      add\n        /* \"#utility.yul\":2727:2753   */\n      swap1\n      pop\n        /* \"#utility.yul\":2799:2808   */\n      dup2\n        /* \"#utility.yul\":2793:2797   */\n      dup2\n        /* \"#utility.yul\":2789:2809   */\n      sub\n        /* \"#utility.yul\":2785:2786   */\n      0x00\n        /* \"#utility.yul\":2774:2783   */\n      dup4\n        /* \"#utility.yul\":2770:2787   */\n      add\n        /* \"#utility.yul\":2763:2810   */\n      mstore\n        /* \"#utility.yul\":2827:2958   */\n      tag_72\n        /* \"#utility.yul\":2953:2957   */\n      dup2\n        /* \"#utility.yul\":2827:2958   */\n      tag_26\n      jump\t// in\n    tag_72:\n        /* \"#utility.yul\":2819:2958   */\n      swap1\n      pop\n        /* \"#utility.yul\":2968:3048   */\n      tag_73\n        /* \"#utility.yul\":3044:3046   */\n      0x20\n        /* \"#utility.yul\":3033:3042   */\n      dup4\n        /* \"#utility.yul\":3029:3047   */\n      add\n        /* \"#utility.yul\":3020:3026   */\n      dup5\n        /* \"#utility.yul\":2968:3048   */\n      tag_31\n      jump\t// in\n    tag_73:\n        /* \"#utility.yul\":2510:3055   */\n      swap3\n      swap2\n      pop\n      pop\n      jump\t// out\n        /* \"#utility.yul\":3061:3159   */\n    tag_32:\n        /* \"#utility.yul\":3112:3118   */\n      0x00\n        /* \"#utility.yul\":3146:3151   */\n      dup2\n        /* \"#utility.yul\":3140:3152   */\n      mload\n        /* \"#utility.yul\":3130:3152   */\n      swap1\n      pop\n        /* \"#utility.yul\":3061:3159   */\n      swap2\n      swap1\n      pop\n      jump\t// out\n        /* \"#utility.yul\":3165:3312   */\n    tag_33:\n        /* \"#utility.yul\":3266:3277   */\n      0x00\n        /* \"#utility.yul\":3303:3306   */\n      dup2\n        /* \"#utility.yul\":3288:3306   */\n      swap1\n      pop\n        /* \"#utility.yul\":3165:3312   */\n      swap3\n      swap2\n      pop\n      pop\n      jump\t// out\n        /* \"#utility.yul\":3318:3457   */\n    tag_34:\n        /* \"#utility.yul\":3407:3413   */\n      dup3\n        /* \"#utility.yul\":3402:3405   */\n      dup2\n        /* \"#utility.yul\":3397:3400   */\n      dup4\n        /* \"#utility.yul\":3391:3414   */\n      mcopy\n        /* \"#utility.yul\":3448:3449   */\n      0x00\n        /* \"#utility.yul\":3439:3445   */\n      dup4\n        /* \"#utility.yul\":3434:3437   */\n      dup4\n        /* \"#utility.yul\":3430:3446   */\n      add\n        /* \"#utility.yul\":3423:3450   */\n      mstore\n        /* \"#utility.yul\":3318:3457   */\n      pop\n      pop\n      pop\n      jump\t// out\n        /* \"#utility.yul\":3463:3849   */\n    tag_35:\n        /* \"#utility.yul\":3567:3570   */\n      0x00\n        /* \"#utility.yul\":3595:3633   */\n      tag_78\n        /* \"#utility.yul\":3627:3632   */\n      dup3\n        /* \"#utility.yul\":3595:3633   */\n      tag_32\n      jump\t// in\n    tag_78:\n        /* \"#utility.yul\":3649:3737   */\n      tag_79\n        /* \"#utility.yul\":3730:3736   */\n      dup2\n        /* \"#utility.yul\":3725:3728   */\n      dup6\n        /* \"#utility.yul\":3649:3737   */\n      tag_33\n      jump\t// in\n    tag_79:\n        /* \"#utility.yul\":3642:3737   */\n      swap4\n      pop\n        /* \"#utility.yul\":3746:3811   */\n      tag_80\n        /* \"#utility.yul\":3804:3810   */\n      dup2\n        /* \"#utility.yul\":3799:3802   */\n      dup6\n        /* \"#utility.yul\":3792:3796   */\n      0x20\n        /* \"#utility.yul\":3785:3790   */\n      dup7\n        /* \"#utility.yul\":3781:3797   */\n      add\n        /* \"#utility.yul\":3746:3811   */\n      tag_34\n      jump\t// in\n    tag_80:\n        /* \"#utility.yul\":3836:3842   */\n      dup1\n        /* \"#utility.yul\":3831:3834   */\n      dup5\n        /* \"#utility.yul\":3827:3843   */\n      add\n        /* \"#utility.yul\":3820:3843   */\n      swap2\n      pop\n        /* \"#utility.yul\":3571:3849   */\n      pop\n        /* \"#utility.yul\":3463:3849   */\n      swap3\n      swap2\n      pop\n      pop\n      jump\t// out\n        /* \"#utility.yul\":3855:4126   */\n    tag_11:\n        /* \"#utility.yul\":3985:3988   */\n      0x00\n        /* \"#utility.yul\":4007:4100   */\n      tag_82\n        /* \"#utility.yul\":4096:4099   */\n      dup3\n        /* \"#utility.yul\":4087:4093   */\n      dup5\n        /* \"#utility.yul\":4007:4100   */\n      tag_35\n      jump\t// in\n    tag_82:\n        /* \"#utility.yul\":4000:4100   */\n      swap2\n      pop\n        /* \"#utility.yul\":4117:4120   */\n      dup2\n        /* \"#utility.yul\":4110:4120   */\n      swap1\n      pop\n        /* \"#utility.yul\":3855:4126   */\n      swap3\n      swap2\n      pop\n      pop\n      jump\t// out\n        /* \"#utility.yul\":4132:4222   */\n    tag_36:\n        /* \"#utility.yul\":4166:4173   */\n      0x00\n        /* \"#utility.yul\":4209:4214   */\n      dup2\n        /* \"#utility.yul\":4202:4215   */\n      iszero\n        /* \"#utility.yul\":4195:4216   */\n      iszero\n        /* \"#utility.yul\":4184:4216   */\n      swap1\n      pop\n        /* \"#utility.yul\":4132:4222   */\n      swap2\n      swap1\n      pop\n      jump\t// out\n        /* \"#utility.yul\":4228:4337   */\n    tag_37:\n        /* \"#utility.yul\":4309:4330   */\n      tag_85\n        /* \"#utility.yul\":4324:4329   */\n      dup2\n        /* \"#utility.yul\":4309:4330   */\n      tag_36\n      jump\t// in\n    tag_85:\n        /* \"#utility.yul\":4304:4307   */\n      dup3\n        /* \"#utility.yul\":4297:4331   */\n      mstore\n        /* \"#utility.yul\":4228:4337   */\n      pop\n      pop\n      jump\t// out\n        /* \"#utility.yul\":4343:4511   */\n    tag_38:\n        /* \"#utility.yul\":4426:4437   */\n      0x00\n        /* \"#utility.yul\":4460:4466   */\n      dup3\n        /* \"#utility.yul\":4455:4458   */\n      dup3\n        /* \"#utility.yul\":4448:4467   */\n      mstore\n        /* \"#utility.yul\":4500:4504   */\n      0x20\n        /* \"#utility.yul\":4495:4498   */\n      dup3\n        /* \"#utility.yul\":4491:4505   */\n      add\n        /* \"#utility.yul\":4476:4505   */\n      swap1\n      pop\n        /* \"#utility.yul\":4343:4511   */\n      swap3\n      swap2\n      pop\n      pop\n      jump\t// out\n        /* \"#utility.yul\":4517:4619   */\n    tag_39:\n        /* \"#utility.yul\":4558:4564   */\n      0x00\n        /* \"#utility.yul\":4609:4611   */\n      0x1f\n        /* \"#utility.yul\":4605:4612   */\n      not\n        /* \"#utility.yul\":4600:4602   */\n      0x1f\n        /* \"#utility.yul\":4593:4598   */\n      dup4\n        /* \"#utility.yul\":4589:4603   */\n      add\n        /* \"#utility.yul\":4585:4613   */\n      and\n        /* \"#utility.yul\":4575:4613   */\n      swap1\n      pop\n        /* \"#utility.yul\":4517:4619   */\n      swap2\n      swap1\n      pop\n      jump\t// out\n        /* \"#utility.yul\":4625:4998   */\n    tag_40:\n        /* \"#utility.yul\":4711:4714   */\n      0x00\n        /* \"#utility.yul\":4739:4777   */\n      tag_89\n        /* \"#utility.yul\":4771:4776   */\n      dup3\n        /* \"#utility.yul\":4739:4777   */\n      tag_32\n      jump\t// in\n    tag_89:\n        /* \"#utility.yul\":4793:4863   */\n      tag_90\n        /* \"#utility.yul\":4856:4862   */\n      dup2\n        /* \"#utility.yul\":4851:4854   */\n      dup6\n        /* \"#utility.yul\":4793:4863   */\n      tag_38\n      jump\t// in\n    tag_90:\n        /* \"#utility.yul\":4786:4863   */\n      swap4\n      pop\n        /* \"#utility.yul\":4872:4937   */\n      tag_91\n        /* \"#utility.yul\":4930:4936   */\n      dup2\n        /* \"#utility.yul\":4925:4928   */\n      dup6\n        /* \"#utility.yul\":4918:4922   */\n      0x20\n        /* \"#utility.yul\":4911:4916   */\n      dup7\n        /* \"#utility.yul\":4907:4923   */\n      add\n        /* \"#utility.yul\":4872:4937   */\n      tag_34\n      jump\t// in\n    tag_91:\n        /* \"#utility.yul\":4962:4991   */\n      tag_92\n        /* \"#utility.yul\":4984:4990   */\n      dup2\n        /* \"#utility.yul\":4962:4991   */\n      tag_39\n      jump\t// in\n    tag_92:\n        /* \"#utility.yul\":4957:4960   */\n      dup5\n        /* \"#utility.yul\":4953:4992   */\n      add\n        /* \"#utility.yul\":4946:4992   */\n      swap2\n      pop\n        /* \"#utility.yul\":4715:4998   */\n      pop\n        /* \"#utility.yul\":4625:4998   */\n      swap3\n      swap2\n      pop\n      pop\n      jump\t// out\n        /* \"#utility.yul\":5004:5411   */\n    tag_16:\n        /* \"#utility.yul\":5137:5141   */\n      0x00\n        /* \"#utility.yul\":5175:5177   */\n      0x40\n        /* \"#utility.yul\":5164:5173   */\n      dup3\n        /* \"#utility.yul\":5160:5178   */\n      add\n        /* \"#utility.yul\":5152:5178   */\n      swap1\n      pop\n        /* \"#utility.yul\":5188:5253   */\n      tag_94\n        /* \"#utility.yul\":5250:5251   */\n      0x00\n        /* \"#utility.yul\":5239:5248   */\n      dup4\n        /* \"#utility.yul\":5235:5252   */\n      add\n        /* \"#utility.yul\":5226:5232   */\n      dup6\n        /* \"#utility.yul\":5188:5253   */\n      tag_37\n      jump\t// in\n    tag_94:\n        /* \"#utility.yul\":5300:5309   */\n      dup2\n        /* \"#utility.yul\":5294:5298   */\n      dup2\n        /* \"#utility.yul\":5290:5310   */\n      sub\n        /* \"#utility.yul\":5285:5287   */\n      0x20\n        /* \"#utility.yul\":5274:5283   */\n      dup4\n        /* \"#utility.yul\":5270:5288   */\n      add\n        /* \"#utility.yul\":5263:5311   */\n      mstore\n        /* \"#utility.yul\":5328:5404   */\n      tag_95\n        /* \"#utility.yul\":5399:5403   */\n      dup2\n        /* \"#utility.yul\":5390:5396   */\n      dup5\n        /* \"#utility.yul\":5328:5404   */\n      tag_40\n      jump\t// in\n    tag_95:\n        /* \"#utility.yul\":5320:5404   */\n      swap1\n      pop\n        /* \"#utility.yul\":5004:5411   */\n      swap4\n      swap3\n      pop\n      pop\n      pop\n      jump\t// out\n\n    auxdata: 0xa2646970667358221220f1dd1e20b234abc30cb6373965a9f7e887cd93a00d9710f0590575211aca1df664736f6c634300081a0033\n}\n",
				"bytecode": {
					"linkReferences": {},
					"object": "6080604052348015600e575f80fd5b506104158061001c5f395ff3fe60806040526004361061001d575f3560e01c806387ba617914610021575b5f80fd5b61003b600480360381019061003691906101d8565b61003d565b005b5f808273ffffffffffffffffffffffffffffffffffffffff163461138890607b60405160240161006d91906102ab565b6040516020818303038152906040527f24ccab8f000000000000000000000000000000000000000000000000000000007bffffffffffffffffffffffffffffffffffffffffffffffffffffffff19166020820180517bffffffffffffffffffffffffffffffffffffffffffffffffffffffff83818316178352505050506040516100f79190610329565b5f60405180830381858888f193505050503d805f8114610132576040519150601f19603f3d011682016040523d82523d5f602084013e610137565b606091505b50915091507f13848c3e38f8886f3f5d2ad9dff80d8092c2bbb8efd5b887a99c2c6cfc09ac2a828260405161016d9291906103b1565b60405180910390a1505050565b5f80fd5b5f73ffffffffffffffffffffffffffffffffffffffff82169050919050565b5f6101a78261017e565b9050919050565b6101b78161019d565b81146101c1575f80fd5b50565b5f813590506101d2816101ae565b92915050565b5f602082840312156101ed576101ec61017a565b5b5f6101fa848285016101c4565b91505092915050565b5f82825260208201905092915050565b7f63616c6c20666f6f0000000000000000000000000000000000000000000000005f82015250565b5f610247600883610203565b915061025282610213565b602082019050919050565b5f819050919050565b5f60ff82169050919050565b5f819050919050565b5f61029561029061028b8461025d565b610272565b610266565b9050919050565b6102a58161027b565b82525050565b5f6040820190508181035f8301526102c28161023b565b90506102d1602083018461029c565b92915050565b5f81519050919050565b5f81905092915050565b8281835e5f83830152505050565b5f610303826102d7565b61030d81856102e1565b935061031d8185602086016102eb565b80840191505092915050565b5f61033482846102f9565b915081905092915050565b5f8115159050919050565b6103538161033f565b82525050565b5f82825260208201905092915050565b5f601f19601f8301169050919050565b5f610383826102d7565b61038d8185610359565b935061039d8185602086016102eb565b6103a681610369565b840191505092915050565b5f6040820190506103c45f83018561034a565b81810360208301526103d68184610379565b9050939250505056fea2646970667358221220f1dd1e20b234abc30cb6373965a9f7e887cd93a00d9710f0590575211aca1df664736f6c634300081a0033",
					"opcodes": "PUSH1 0x80 PUSH1 0x40 MSTORE CALLVALUE DUP1 ISZERO PUSH1 0xE JUMPI PUSH0 DUP1 REVERT JUMPDEST POP PUSH2 0x415 DUP1 PUSH2 0x1C PUSH0 CODECOPY PUSH0 RETURN INVALID PUSH1 0x80 PUSH1 0x40 MSTORE PUSH1 0x4 CALLDATASIZE LT PUSH2 0x1D JUMPI PUSH0 CALLDATALOAD PUSH1 0xE0 SHR DUP1 PUSH4 0x87BA6179 EQ PUSH2 0x21 JUMPI JUMPDEST PUSH0 DUP1 REVERT JUMPDEST PUSH2 0x3B PUSH1 0x4 DUP1 CALLDATASIZE SUB DUP2 ADD SWAP1 PUSH2 0x36 SWAP2 SWAP1 PUSH2 0x1D8 JUMP JUMPDEST PUSH2 0x3D JUMP JUMPDEST STOP JUMPDEST PUSH0 DUP1 DUP3 PUSH20 0xFFFFFFFFFFFFFFFFFFFFFFFFFFFFFFFFFFFFFFFF AND CALLVALUE PUSH2 0x1388 SWAP1 PUSH1 0x7B PUSH1 0x40 MLOAD PUSH1 0x24 ADD PUSH2 0x6D SWAP2 SWAP1 PUSH2 0x2AB JUMP JUMPDEST PUSH1 0x40 MLOAD PUSH1 0x20 DUP2 DUP4 SUB SUB DUP2 MSTORE SWAP1 PUSH1 0x40 MSTORE PUSH32 0x24CCAB8F00000000000000000000000000000000000000000000000000000000 PUSH28 0xFFFFFFFFFFFFFFFFFFFFFFFFFFFFFFFFFFFFFFFFFFFFFFFFFFFFFFFF NOT AND PUSH1 0x20 DUP3 ADD DUP1 MLOAD PUSH28 0xFFFFFFFFFFFFFFFFFFFFFFFFFFFFFFFFFFFFFFFFFFFFFFFFFFFFFFFF DUP4 DUP2 DUP4 AND OR DUP4 MSTORE POP POP POP POP PUSH1 0x40 MLOAD PUSH2 0xF7 SWAP2 SWAP1 PUSH2 0x329 JUMP JUMPDEST PUSH0 PUSH1 0x40 MLOAD DUP1 DUP4 SUB DUP2 DUP6 DUP9 DUP9 CALL SWAP4 POP POP POP POP RETURNDATASIZE DUP1 PUSH0 DUP2 EQ PUSH2 0x132 JUMPI PUSH1 0x40 MLOAD SWAP2 POP PUSH1 0x1F NOT PUSH1 0x3F RETURNDATASIZE ADD AND DUP3 ADD PUSH1 0x40 MSTORE RETURNDATASIZE DUP3 MSTORE RETURNDATASIZE PUSH0 PUSH1 0x20 DUP5 ADD RETURNDATACOPY PUSH2 0x137 JUMP JUMPDEST PUSH1 0x60 SWAP2 POP JUMPDEST POP SWAP2 POP SWAP2 POP PUSH32 0x13848C3E38F8886F3F5D2AD9DFF80D8092C2BBB8EFD5B887A99C2C6CFC09AC2A DUP3 DUP3 PUSH1 0x40 MLOAD PUSH2 0x16D SWAP3 SWAP2 SWAP1 PUSH2 0x3B1 JUMP JUMPDEST PUSH1 0x40 MLOAD DUP1 SWAP2 SUB SWAP1 LOG1 POP POP POP JUMP JUMPDEST PUSH0 DUP1 REVERT JUMPDEST PUSH0 PUSH20 0xFFFFFFFFFFFFFFFFFFFFFFFFFFFFFFFFFFFFFFFF DUP3 AND SWAP1 POP SWAP2 SWAP1 POP JUMP JUMPDEST PUSH0 PUSH2 0x1A7 DUP3 PUSH2 0x17E JUMP JUMPDEST SWAP1 POP SWAP2 SWAP1 POP JUMP JUMPDEST PUSH2 0x1B7 DUP2 PUSH2 0x19D JUMP JUMPDEST DUP2 EQ PUSH2 0x1C1 JUMPI PUSH0 DUP1 REVERT JUMPDEST POP JUMP JUMPDEST PUSH0 DUP2 CALLDATALOAD SWAP1 POP PUSH2 0x1D2 DUP2 PUSH2 0x1AE JUMP JUMPDEST SWAP3 SWAP2 POP POP JUMP JUMPDEST PUSH0 PUSH1 0x20 DUP3 DUP5 SUB SLT ISZERO PUSH2 0x1ED JUMPI PUSH2 0x1EC PUSH2 0x17A JUMP JUMPDEST JUMPDEST PUSH0 PUSH2 0x1FA DUP5 DUP3 DUP6 ADD PUSH2 0x1C4 JUMP JUMPDEST SWAP2 POP POP SWAP3 SWAP2 POP POP JUMP JUMPDEST PUSH0 DUP3 DUP3 MSTORE PUSH1 0x20 DUP3 ADD SWAP1 POP SWAP3 SWAP2 POP POP JUMP JUMPDEST PUSH32 0x63616C6C20666F6F000000000000000000000000000000000000000000000000 PUSH0 DUP3 ADD MSTORE POP JUMP JUMPDEST PUSH0 PUSH2 0x247 PUSH1 0x8 DUP4 PUSH2 0x203 JUMP JUMPDEST SWAP2 POP PUSH2 0x252 DUP3 PUSH2 0x213 JUMP JUMPDEST PUSH1 0x20 DUP3 ADD SWAP1 POP SWAP2 SWAP1 POP JUMP JUMPDEST PUSH0 DUP2 SWAP1 POP SWAP2 SWAP1 POP JUMP JUMPDEST PUSH0 PUSH1 0xFF DUP3 AND SWAP1 POP SWAP2 SWAP1 POP JUMP JUMPDEST PUSH0 DUP2 SWAP1 POP SWAP2 SWAP1 POP JUMP JUMPDEST PUSH0 PUSH2 0x295 PUSH2 0x290 PUSH2 0x28B DUP5 PUSH2 0x25D JUMP JUMPDEST PUSH2 0x272 JUMP JUMPDEST PUSH2 0x266 JUMP JUMPDEST SWAP1 POP SWAP2 SWAP1 POP JUMP JUMPDEST PUSH2 0x2A5 DUP2 PUSH2 0x27B JUMP JUMPDEST DUP3 MSTORE POP POP JUMP JUMPDEST PUSH0 PUSH1 0x40 DUP3 ADD SWAP1 POP DUP2 DUP2 SUB PUSH0 DUP4 ADD MSTORE PUSH2 0x2C2 DUP2 PUSH2 0x23B JUMP JUMPDEST SWAP1 POP PUSH2 0x2D1 PUSH1 0x20 DUP4 ADD DUP5 PUSH2 0x29C JUMP JUMPDEST SWAP3 SWAP2 POP POP JUMP JUMPDEST PUSH0 DUP2 MLOAD SWAP1 POP SWAP2 SWAP1 POP JUMP JUMPDEST PUSH0 DUP2 SWAP1 POP SWAP3 SWAP2 POP POP JUMP JUMPDEST DUP3 DUP2 DUP4 MCOPY PUSH0 DUP4 DUP4 ADD MSTORE POP POP POP JUMP JUMPDEST PUSH0 PUSH2 0x303 DUP3 PUSH2 0x2D7 JUMP JUMPDEST PUSH2 0x30D DUP2 DUP6 PUSH2 0x2E1 JUMP JUMPDEST SWAP4 POP PUSH2 0x31D DUP2 DUP6 PUSH1 0x20 DUP7 ADD PUSH2 0x2EB JUMP JUMPDEST DUP1 DUP5 ADD SWAP2 POP POP SWAP3 SWAP2 POP POP JUMP JUMPDEST PUSH0 PUSH2 0x334 DUP3 DUP5 PUSH2 0x2F9 JUMP JUMPDEST SWAP2 POP DUP2 SWAP1 POP SWAP3 SWAP2 POP POP JUMP JUMPDEST PUSH0 DUP2 ISZERO ISZERO SWAP1 POP SWAP2 SWAP1 POP JUMP JUMPDEST PUSH2 0x353 DUP2 PUSH2 0x33F JUMP JUMPDEST DUP3 MSTORE POP POP JUMP JUMPDEST PUSH0 DUP3 DUP3 MSTORE PUSH1 0x20 DUP3 ADD SWAP1 POP SWAP3 SWAP2 POP POP JUMP JUMPDEST PUSH0 PUSH1 0x1F NOT PUSH1 0x1F DUP4 ADD AND SWAP1 POP SWAP2 SWAP1 POP JUMP JUMPDEST PUSH0 PUSH2 0x383 DUP3 PUSH2 0x2D7 JUMP JUMPDEST PUSH2 0x38D DUP2 DUP6 PUSH2 0x359 JUMP JUMPDEST SWAP4 POP PUSH2 0x39D DUP2 DUP6 PUSH1 0x20 DUP7 ADD PUSH2 0x2EB JUMP JUMPDEST PUSH2 0x3A6 DUP2 PUSH2 0x369 JUMP JUMPDEST DUP5 ADD SWAP2 POP POP SWAP3 SWAP2 POP POP JUMP JUMPDEST PUSH0 PUSH1 0x40 DUP3 ADD SWAP1 POP PUSH2 0x3C4 PUSH0 DUP4 ADD DUP6 PUSH2 0x34A JUMP JUMPDEST DUP2 DUP2 SUB PUSH1 0x20 DUP4 ADD MSTORE PUSH2 0x3D6 DUP2 DUP5 PUSH2 0x379 JUMP JUMPDEST SWAP1 POP SWAP4 SWAP3 POP POP POP JUMP INVALID LOG2 PUSH5 0x6970667358 0x22 SLT KECCAK256 CALL 0xDD 0x1E KECCAK256 0xB2 CALLVALUE 0xAB 0xC3 0xC 0xB6 CALLDATACOPY CODECOPY PUSH6 0xA9F7E887CD93 LOG0 0xD SWAP8 LT CREATE MSIZE SDIV PUSH22 0x211ACA1DF664736F6C634300081A0033000000000000 "
				},
				"gasEstimates": {
					"creation": {
						"codeDepositCost": "209000",
						"executionCost": "249",
						"totalCost": "209249"
					},
					"external": {
						"testCallFoo(address)": "infinite"
					}
				},
				"methodIdentifiers": {
					"testCallFoo(address)": "87ba6179"
				}
			},
			"storageLayout": {
				"storage": [],
				"types": null
			},
			"userdoc": {
				"kind": "user",
				"methods": {},
				"version": 1
			}
		}
	}
}