{
	"contracts/4_solidityExample.sol": {
		"SolidityExample": {
			"abi": [
				{
					"inputs": [],
					"stateMutability": "nonpayable",
					"type": "constructor"
				},
				{
					"inputs": [],
					"name": "amount",
					"outputs": [
						{
							"internalType": "uint256",
							"name": "",
							"type": "uint256"
						}
					],
					"stateMutability": "view",
					"type": "function"
				},
				{
					"inputs": [],
					"name": "decrement",
					"outputs": [],
					"stateMutability": "nonpayable",
					"type": "function"
				},
				{
					"inputs": [],
					"name": "doSomething",
					"outputs": [
						{
							"internalType": "uint256",
							"name": "",
							"type": "uint256"
						}
					],
					"stateMutability": "payable",
					"type": "function"
				},
				{
					"inputs": [
						{
							"internalType": "uint256",
							"name": "",
							"type": "uint256"
						}
					],
					"name": "donores",
					"outputs": [
						{
							"internalType": "uint256",
							"name": "",
							"type": "uint256"
						}
					],
					"stateMutability": "view",
					"type": "function"
				},
				{
					"inputs": [
						{
							"internalType": "uint256",
							"name": "_value",
							"type": "uint256"
						}
					],
					"name": "foo",
					"outputs": [
						{
							"internalType": "uint256",
							"name": "",
							"type": "uint256"
						}
					],
					"stateMutability": "pure",
					"type": "function"
				},
				{
					"inputs": [
						{
							"internalType": "uint256",
							"name": "_value",
							"type": "uint256"
						}
					],
					"name": "fooT",
					"outputs": [
						{
							"internalType": "uint256",
							"name": "",
							"type": "uint256"
						}
					],
					"stateMutability": "pure",
					"type": "function"
				},
				{
					"inputs": [],
					"name": "get",
					"outputs": [
						{
							"internalType": "uint256",
							"name": "",
							"type": "uint256"
						}
					],
					"stateMutability": "view",
					"type": "function"
				},
				{
					"inputs": [],
					"name": "increment",
					"outputs": [],
					"stateMutability": "nonpayable",
					"type": "function"
				},
				{
					"inputs": [],
					"name": "sender",
					"outputs": [
						{
							"internalType": "address",
							"name": "",
							"type": "address"
						}
					],
					"stateMutability": "view",
					"type": "function"
				}
			],
			"devdoc": {
				"kind": "dev",
				"methods": {},
				"version": 1
			},
			"evm": {
				"assembly": "    /* \"contracts/4_solidityExample.sol\":58:1288  contract SolidityExample{... */\n  mstore(0x40, 0x80)\n    /* \"contracts/4_solidityExample.sol\":156:185  uint[] public donores=[2,3,5] */\n  mload(0x40)\n  dup1\n  0x60\n  add\n  0x40\n  mstore\n  dup1\n    /* \"contracts/4_solidityExample.sol\":179:180  2 */\n  0x02\n    /* \"contracts/4_solidityExample.sol\":156:185  uint[] public donores=[2,3,5] */\n  0xff\n  and\n  dup2\n  mstore\n  0x20\n  add\n    /* \"contracts/4_solidityExample.sol\":181:182  3 */\n  0x03\n    /* \"contracts/4_solidityExample.sol\":156:185  uint[] public donores=[2,3,5] */\n  0xff\n  and\n  dup2\n  mstore\n  0x20\n  add\n    /* \"contracts/4_solidityExample.sol\":183:184  5 */\n  0x05\n    /* \"contracts/4_solidityExample.sol\":156:185  uint[] public donores=[2,3,5] */\n  0xff\n  and\n  dup2\n  mstore\n  pop\n  0x03\n  swap1\n  0x03\n  tag_1\n  swap3\n  swap2\n  swap1\n  tag_2\n  jump\t// in\ntag_1:\n  pop\n    /* \"contracts/4_solidityExample.sol\":191:230  constructor(){... */\n  callvalue\n  dup1\n  iszero\n  tag_3\n  jumpi\n  revert(0x00, 0x00)\ntag_3:\n  pop\n    /* \"contracts/4_solidityExample.sol\":222:223  0 */\n  0x00\n    /* \"contracts/4_solidityExample.sol\":214:219  count */\n  0x00\n    /* \"contracts/4_solidityExample.sol\":214:223  count = 0 */\n  dup2\n  swap1\n  sstore\n  pop\n    /* \"contracts/4_solidityExample.sol\":58:1288  contract SolidityExample{... */\n  jump(tag_6)\ntag_2:\n  dup3\n  dup1\n  sload\n  dup3\n  dup3\n  sstore\n  swap1\n  0x00\n  mstore\n  keccak256(0x00, 0x20)\n  swap1\n  dup2\n  add\n  swap3\n  dup3\n  iszero\n  tag_7\n  jumpi\n  swap2\n  0x20\n  mul\n  dup3\n  add\ntag_8:\n  dup3\n  dup2\n  gt\n  iszero\n  tag_9\n  jumpi\n  dup3\n  mload\n  dup3\n  swap1\n  0xff\n  and\n  swap1\n  sstore\n  swap2\n  0x20\n  add\n  swap2\n  swap1\n  0x01\n  add\n  swap1\n  jump(tag_8)\ntag_9:\ntag_7:\n  pop\n  swap1\n  pop\n  tag_10\n  swap2\n  swap1\n  tag_11\n  jump\t// in\ntag_10:\n  pop\n  swap1\n  jump\t// out\ntag_11:\ntag_12:\n  dup1\n  dup3\n  gt\n  iszero\n  tag_13\n  jumpi\n  0x00\n  dup2\n  0x00\n  swap1\n  sstore\n  pop\n  0x01\n  add\n  jump(tag_12)\ntag_13:\n  pop\n  swap1\n  jump\t// out\ntag_6:\n  dataSize(sub_0)\n  dup1\n  dataOffset(sub_0)\n  0x00\n  codecopy\n  0x00\n  return\nstop\n\nsub_0: assembly {\n        /* \"contracts/4_solidityExample.sol\":58:1288  contract SolidityExample{... */\n      mstore(0x40, 0x80)\n      jumpi(tag_1, lt(calldatasize, 0x04))\n      shr(0xe0, calldataload(0x00))\n      dup1\n      0x6d4ce63c\n      gt\n      tag_11\n      jumpi\n      dup1\n      0x6d4ce63c\n      eq\n      tag_6\n      jumpi\n      dup1\n      0x82692679\n      eq\n      tag_7\n      jumpi\n      dup1\n      0xaa8c217c\n      eq\n      tag_8\n      jumpi\n      dup1\n      0xd09de08a\n      eq\n      tag_9\n      jumpi\n      dup1\n      0xd82b675a\n      eq\n      tag_10\n      jumpi\n      jump(tag_1)\n    tag_11:\n      dup1\n      0x193c6b76\n      eq\n      tag_2\n      jumpi\n      dup1\n      0x2baeceb7\n      eq\n      tag_3\n      jumpi\n      dup1\n      0x2fbebd38\n      eq\n      tag_4\n      jumpi\n      dup1\n      0x67e404ce\n      eq\n      tag_5\n      jumpi\n    tag_1:\n      revert(0x00, 0x00)\n        /* \"contracts/4_solidityExample.sol\":951:1067  function fooT(uint _value)public pure returns (uint){... */\n    tag_2:\n      callvalue\n      dup1\n      iszero\n      tag_12\n      jumpi\n      revert(0x00, 0x00)\n    tag_12:\n      pop\n      tag_13\n      0x04\n      dup1\n      calldatasize\n      sub\n      dup2\n      add\n      swap1\n      tag_14\n      swap2\n      swap1\n      tag_15\n      jump\t// in\n    tag_14:\n      tag_16\n      jump\t// in\n    tag_13:\n      mload(0x40)\n      tag_17\n      swap2\n      swap1\n      tag_18\n      jump\t// in\n    tag_17:\n      mload(0x40)\n      dup1\n      swap2\n      sub\n      swap1\n      return\n        /* \"contracts/4_solidityExample.sol\":373:499  function decrement()public{... */\n    tag_3:\n      callvalue\n      dup1\n      iszero\n      tag_19\n      jumpi\n      revert(0x00, 0x00)\n    tag_19:\n      pop\n      tag_20\n      tag_21\n      jump\t// in\n    tag_20:\n      stop\n        /* \"contracts/4_solidityExample.sol\":722:945  function foo(uint _value) public pure returns(uint){... */\n    tag_4:\n      callvalue\n      dup1\n      iszero\n      tag_22\n      jumpi\n      revert(0x00, 0x00)\n    tag_22:\n      pop\n      tag_23\n      0x04\n      dup1\n      calldatasize\n      sub\n      dup2\n      add\n      swap1\n      tag_24\n      swap2\n      swap1\n      tag_15\n      jump\t// in\n    tag_24:\n      tag_25\n      jump\t// in\n    tag_23:\n      mload(0x40)\n      tag_26\n      swap2\n      swap1\n      tag_18\n      jump\t// in\n    tag_26:\n      mload(0x40)\n      dup1\n      swap2\n      sub\n      swap1\n      return\n        /* \"contracts/4_solidityExample.sol\":104:125  address public sender */\n    tag_5:\n      callvalue\n      dup1\n      iszero\n      tag_27\n      jumpi\n      revert(0x00, 0x00)\n    tag_27:\n      pop\n      tag_28\n      tag_29\n      jump\t// in\n    tag_28:\n      mload(0x40)\n      tag_30\n      swap2\n      swap1\n      tag_31\n      jump\t// in\n    tag_30:\n      mload(0x40)\n      dup1\n      swap2\n      sub\n      swap1\n      return\n        /* \"contracts/4_solidityExample.sol\":236:307  function get() public view returns (uint){... */\n    tag_6:\n      callvalue\n      dup1\n      iszero\n      tag_32\n      jumpi\n      revert(0x00, 0x00)\n    tag_32:\n      pop\n      tag_33\n      tag_34\n      jump\t// in\n    tag_33:\n      mload(0x40)\n      tag_35\n      swap2\n      swap1\n      tag_18\n      jump\t// in\n    tag_35:\n      mload(0x40)\n      dup1\n      swap2\n      sub\n      swap1\n      return\n        /* \"contracts/4_solidityExample.sol\":505:700  function doSomething() public payable returns (uint) {... */\n    tag_7:\n      tag_36\n      tag_37\n      jump\t// in\n    tag_36:\n      mload(0x40)\n      tag_38\n      swap2\n      swap1\n      tag_18\n      jump\t// in\n    tag_38:\n      mload(0x40)\n      dup1\n      swap2\n      sub\n      swap1\n      return\n        /* \"contracts/4_solidityExample.sol\":131:149  uint public amount */\n    tag_8:\n      callvalue\n      dup1\n      iszero\n      tag_39\n      jumpi\n      revert(0x00, 0x00)\n    tag_39:\n      pop\n      tag_40\n      tag_41\n      jump\t// in\n    tag_40:\n      mload(0x40)\n      tag_42\n      swap2\n      swap1\n      tag_18\n      jump\t// in\n    tag_42:\n      mload(0x40)\n      dup1\n      swap2\n      sub\n      swap1\n      return\n        /* \"contracts/4_solidityExample.sol\":313:367  function increment()public{... */\n    tag_9:\n      callvalue\n      dup1\n      iszero\n      tag_43\n      jumpi\n      revert(0x00, 0x00)\n    tag_43:\n      pop\n      tag_44\n      tag_45\n      jump\t// in\n    tag_44:\n      stop\n        /* \"contracts/4_solidityExample.sol\":156:185  uint[] public donores=[2,3,5] */\n    tag_10:\n      callvalue\n      dup1\n      iszero\n      tag_46\n      jumpi\n      revert(0x00, 0x00)\n    tag_46:\n      pop\n      tag_47\n      0x04\n      dup1\n      calldatasize\n      sub\n      dup2\n      add\n      swap1\n      tag_48\n      swap2\n      swap1\n      tag_15\n      jump\t// in\n    tag_48:\n      tag_49\n      jump\t// in\n    tag_47:\n      mload(0x40)\n      tag_50\n      swap2\n      swap1\n      tag_18\n      jump\t// in\n    tag_50:\n      mload(0x40)\n      dup1\n      swap2\n      sub\n      swap1\n      return\n        /* \"contracts/4_solidityExample.sol\":951:1067  function fooT(uint _value)public pure returns (uint){... */\n    tag_16:\n        /* \"contracts/4_solidityExample.sol\":998:1002  uint */\n      0x00\n        /* \"contracts/4_solidityExample.sol\":1032:1034  10 */\n      0x0a\n        /* \"contracts/4_solidityExample.sol\":1023:1029  _value */\n      dup3\n        /* \"contracts/4_solidityExample.sol\":1023:1034  _value < 10 */\n      lt\n        /* \"contracts/4_solidityExample.sol\":1023:1060  _value < 10 ? 0 : _value < 20 ? 1 : 2 */\n      tag_52\n      jumpi\n        /* \"contracts/4_solidityExample.sol\":1050:1052  20 */\n      0x14\n        /* \"contracts/4_solidityExample.sol\":1041:1047  _value */\n      dup3\n        /* \"contracts/4_solidityExample.sol\":1041:1052  _value < 20 */\n      lt\n        /* \"contracts/4_solidityExample.sol\":1041:1060  _value < 20 ? 1 : 2 */\n      tag_53\n      jumpi\n        /* \"contracts/4_solidityExample.sol\":1059:1060  2 */\n      0x02\n        /* \"contracts/4_solidityExample.sol\":1041:1060  _value < 20 ? 1 : 2 */\n      jump(tag_54)\n    tag_53:\n        /* \"contracts/4_solidityExample.sol\":1055:1056  1 */\n      0x01\n        /* \"contracts/4_solidityExample.sol\":1041:1060  _value < 20 ? 1 : 2 */\n    tag_54:\n        /* \"contracts/4_solidityExample.sol\":1023:1060  _value < 10 ? 0 : _value < 20 ? 1 : 2 */\n      jump(tag_55)\n    tag_52:\n        /* \"contracts/4_solidityExample.sol\":1037:1038  0 */\n      0x00\n        /* \"contracts/4_solidityExample.sol\":1023:1060  _value < 10 ? 0 : _value < 20 ? 1 : 2 */\n    tag_55:\n        /* \"contracts/4_solidityExample.sol\":1015:1060  return  _value < 10 ? 0 : _value < 20 ? 1 : 2 */\n      0xff\n      and\n      swap1\n      pop\n        /* \"contracts/4_solidityExample.sol\":951:1067  function fooT(uint _value)public pure returns (uint){... */\n      swap2\n      swap1\n      pop\n      jump\t// out\n        /* \"contracts/4_solidityExample.sol\":373:499  function decrement()public{... */\n    tag_21:\n        /* \"contracts/4_solidityExample.sol\":426:427  1 */\n      0x01\n        /* \"contracts/4_solidityExample.sol\":417:422  count */\n      sload(0x00)\n        /* \"contracts/4_solidityExample.sol\":417:427  count >= 1 */\n      lt\n      iszero\n        /* \"contracts/4_solidityExample.sol\":409:472  require(count >= 1, \"can not decrease, count is less than one\") */\n      tag_57\n      jumpi\n      mload(0x40)\n      0x08c379a000000000000000000000000000000000000000000000000000000000\n      dup2\n      mstore\n      0x04\n      add\n      tag_58\n      swap1\n      tag_59\n      jump\t// in\n    tag_58:\n      mload(0x40)\n      dup1\n      swap2\n      sub\n      swap1\n      revert\n    tag_57:\n        /* \"contracts/4_solidityExample.sol\":491:492  1 */\n      0x01\n        /* \"contracts/4_solidityExample.sol\":482:487  count */\n      0x00\n      0x00\n        /* \"contracts/4_solidityExample.sol\":482:492  count -= 1 */\n      dup3\n      dup3\n      sload\n      tag_60\n      swap2\n      swap1\n      tag_61\n      jump\t// in\n    tag_60:\n      swap3\n      pop\n      pop\n      dup2\n      swap1\n      sstore\n      pop\n        /* \"contracts/4_solidityExample.sol\":373:499  function decrement()public{... */\n      jump\t// out\n        /* \"contracts/4_solidityExample.sol\":722:945  function foo(uint _value) public pure returns(uint){... */\n    tag_25:\n        /* \"contracts/4_solidityExample.sol\":768:772  uint */\n      0x00\n        /* \"contracts/4_solidityExample.sol\":798:800  10 */\n      0x0a\n        /* \"contracts/4_solidityExample.sol\":789:795  _value */\n      dup3\n        /* \"contracts/4_solidityExample.sol\":789:800  _value < 10 */\n      lt\n        /* \"contracts/4_solidityExample.sol\":786:939  if(_value < 10){... */\n      iszero\n      tag_63\n      jumpi\n        /* \"contracts/4_solidityExample.sol\":825:826  0 */\n      0x00\n        /* \"contracts/4_solidityExample.sol\":817:826  return  0 */\n      swap1\n      pop\n      jump(tag_62)\n        /* \"contracts/4_solidityExample.sol\":786:939  if(_value < 10){... */\n    tag_63:\n        /* \"contracts/4_solidityExample.sol\":857:859  20 */\n      0x14\n        /* \"contracts/4_solidityExample.sol\":848:854  _value */\n      dup3\n        /* \"contracts/4_solidityExample.sol\":848:859  _value < 20 */\n      lt\n        /* \"contracts/4_solidityExample.sol\":845:939  if(_value < 20){... */\n      iszero\n      tag_65\n      jumpi\n        /* \"contracts/4_solidityExample.sol\":882:883  1 */\n      0x01\n        /* \"contracts/4_solidityExample.sol\":875:883  return 1 */\n      swap1\n      pop\n      jump(tag_62)\n        /* \"contracts/4_solidityExample.sol\":845:939  if(_value < 20){... */\n    tag_65:\n        /* \"contracts/4_solidityExample.sol\":924:925  2 */\n      0x02\n        /* \"contracts/4_solidityExample.sol\":916:925  return  2 */\n      swap1\n      pop\n        /* \"contracts/4_solidityExample.sol\":722:945  function foo(uint _value) public pure returns(uint){... */\n    tag_62:\n      swap2\n      swap1\n      pop\n      jump\t// out\n        /* \"contracts/4_solidityExample.sol\":104:125  address public sender */\n    tag_29:\n      0x01\n      0x00\n      swap1\n      sload\n      swap1\n      0x0100\n      exp\n      swap1\n      div\n      0xffffffffffffffffffffffffffffffffffffffff\n      and\n      dup2\n      jump\t// out\n        /* \"contracts/4_solidityExample.sol\":236:307  function get() public view returns (uint){... */\n    tag_34:\n        /* \"contracts/4_solidityExample.sol\":272:276  uint */\n      0x00\n        /* \"contracts/4_solidityExample.sol\":295:300  count */\n      sload(0x00)\n        /* \"contracts/4_solidityExample.sol\":287:300  return  count */\n      swap1\n      pop\n        /* \"contracts/4_solidityExample.sol\":236:307  function get() public view returns (uint){... */\n      swap1\n      jump\t// out\n        /* \"contracts/4_solidityExample.sol\":505:700  function doSomething() public payable returns (uint) {... */\n    tag_37:\n        /* \"contracts/4_solidityExample.sol\":552:556  uint */\n      0x00\n        /* \"contracts/4_solidityExample.sol\":567:581  uint timestamp */\n      0x00\n        /* \"contracts/4_solidityExample.sol\":598:607  msg.value */\n      callvalue\n        /* \"contracts/4_solidityExample.sol\":590:596  amount */\n      0x02\n      0x00\n        /* \"contracts/4_solidityExample.sol\":590:607  amount+=msg.value */\n      dup3\n      dup3\n      sload\n      tag_69\n      swap2\n      swap1\n      tag_70\n      jump\t// in\n    tag_69:\n      swap3\n      pop\n      pop\n      dup2\n      swap1\n      sstore\n      pop\n        /* \"contracts/4_solidityExample.sol\":626:641  block.timestamp */\n      timestamp\n        /* \"contracts/4_solidityExample.sol\":616:641  timestamp=block.timestamp */\n      swap1\n      pop\n        /* \"contracts/4_solidityExample.sol\":657:667  msg.sender */\n      caller\n        /* \"contracts/4_solidityExample.sol\":650:656  sender */\n      0x01\n      0x00\n        /* \"contracts/4_solidityExample.sol\":650:667  sender=msg.sender */\n      0x0100\n      exp\n      dup2\n      sload\n      dup2\n      0xffffffffffffffffffffffffffffffffffffffff\n      mul\n      not\n      and\n      swap1\n      dup4\n      0xffffffffffffffffffffffffffffffffffffffff\n      and\n      mul\n      or\n      swap1\n      sstore\n      pop\n        /* \"contracts/4_solidityExample.sol\":684:693  timestamp */\n      dup1\n        /* \"contracts/4_solidityExample.sol\":676:693  return  timestamp */\n      swap2\n      pop\n      pop\n        /* \"contracts/4_solidityExample.sol\":505:700  function doSomething() public payable returns (uint) {... */\n      swap1\n      jump\t// out\n        /* \"contracts/4_solidityExample.sol\":131:149  uint public amount */\n    tag_41:\n      sload(0x02)\n      dup2\n      jump\t// out\n        /* \"contracts/4_solidityExample.sol\":313:367  function increment()public{... */\n    tag_45:\n        /* \"contracts/4_solidityExample.sol\":359:360  1 */\n      0x01\n        /* \"contracts/4_solidityExample.sol\":350:355  count */\n      0x00\n      0x00\n        /* \"contracts/4_solidityExample.sol\":350:360  count += 1 */\n      dup3\n      dup3\n      sload\n      tag_72\n      swap2\n      swap1\n      tag_70\n      jump\t// in\n    tag_72:\n      swap3\n      pop\n      pop\n      dup2\n      swap1\n      sstore\n      pop\n        /* \"contracts/4_solidityExample.sol\":313:367  function increment()public{... */\n      jump\t// out\n        /* \"contracts/4_solidityExample.sol\":156:185  uint[] public donores=[2,3,5] */\n    tag_49:\n      0x03\n      dup2\n      dup2\n      sload\n      dup2\n      lt\n      tag_73\n      jumpi\n      0x00\n      dup1\n      revert\n    tag_73:\n      swap1\n      0x00\n      mstore\n      keccak256(0x00, 0x20)\n      add\n      0x00\n      swap2\n      pop\n      swap1\n      pop\n      sload\n      dup2\n      jump\t// out\n        /* \"#utility.yul\":88:205   */\n    tag_76:\n        /* \"#utility.yul\":197:198   */\n      0x00\n        /* \"#utility.yul\":194:195   */\n      0x00\n        /* \"#utility.yul\":187:199   */\n      revert\n        /* \"#utility.yul\":334:411   */\n    tag_78:\n        /* \"#utility.yul\":371:378   */\n      0x00\n        /* \"#utility.yul\":400:405   */\n      dup2\n        /* \"#utility.yul\":389:405   */\n      swap1\n      pop\n        /* \"#utility.yul\":334:411   */\n      swap2\n      swap1\n      pop\n      jump\t// out\n        /* \"#utility.yul\":417:539   */\n    tag_79:\n        /* \"#utility.yul\":490:514   */\n      tag_95\n        /* \"#utility.yul\":508:513   */\n      dup2\n        /* \"#utility.yul\":490:514   */\n      tag_78\n      jump\t// in\n    tag_95:\n        /* \"#utility.yul\":483:488   */\n      dup2\n        /* \"#utility.yul\":480:515   */\n      eq\n        /* \"#utility.yul\":470:533   */\n      tag_96\n      jumpi\n        /* \"#utility.yul\":529:530   */\n      0x00\n        /* \"#utility.yul\":526:527   */\n      0x00\n        /* \"#utility.yul\":519:531   */\n      revert\n        /* \"#utility.yul\":470:533   */\n    tag_96:\n        /* \"#utility.yul\":417:539   */\n      pop\n      jump\t// out\n        /* \"#utility.yul\":545:684   */\n    tag_80:\n        /* \"#utility.yul\":591:596   */\n      0x00\n        /* \"#utility.yul\":629:635   */\n      dup2\n        /* \"#utility.yul\":616:636   */\n      calldataload\n        /* \"#utility.yul\":607:636   */\n      swap1\n      pop\n        /* \"#utility.yul\":645:678   */\n      tag_98\n        /* \"#utility.yul\":672:677   */\n      dup2\n        /* \"#utility.yul\":645:678   */\n      tag_79\n      jump\t// in\n    tag_98:\n        /* \"#utility.yul\":545:684   */\n      swap3\n      swap2\n      pop\n      pop\n      jump\t// out\n        /* \"#utility.yul\":690:1019   */\n    tag_15:\n        /* \"#utility.yul\":749:755   */\n      0x00\n        /* \"#utility.yul\":798:800   */\n      0x20\n        /* \"#utility.yul\":786:795   */\n      dup3\n        /* \"#utility.yul\":777:784   */\n      dup5\n        /* \"#utility.yul\":773:796   */\n      sub\n        /* \"#utility.yul\":769:801   */\n      slt\n        /* \"#utility.yul\":766:885   */\n      iszero\n      tag_100\n      jumpi\n        /* \"#utility.yul\":804:883   */\n      tag_101\n      tag_76\n      jump\t// in\n    tag_101:\n        /* \"#utility.yul\":766:885   */\n    tag_100:\n        /* \"#utility.yul\":924:925   */\n      0x00\n        /* \"#utility.yul\":949:1002   */\n      tag_102\n        /* \"#utility.yul\":994:1001   */\n      dup5\n        /* \"#utility.yul\":985:991   */\n      dup3\n        /* \"#utility.yul\":974:983   */\n      dup6\n        /* \"#utility.yul\":970:992   */\n      add\n        /* \"#utility.yul\":949:1002   */\n      tag_80\n      jump\t// in\n    tag_102:\n        /* \"#utility.yul\":939:1002   */\n      swap2\n      pop\n        /* \"#utility.yul\":895:1012   */\n      pop\n        /* \"#utility.yul\":690:1019   */\n      swap3\n      swap2\n      pop\n      pop\n      jump\t// out\n        /* \"#utility.yul\":1025:1143   */\n    tag_81:\n        /* \"#utility.yul\":1112:1136   */\n      tag_104\n        /* \"#utility.yul\":1130:1135   */\n      dup2\n        /* \"#utility.yul\":1112:1136   */\n      tag_78\n      jump\t// in\n    tag_104:\n        /* \"#utility.yul\":1107:1110   */\n      dup3\n        /* \"#utility.yul\":1100:1137   */\n      mstore\n        /* \"#utility.yul\":1025:1143   */\n      pop\n      pop\n      jump\t// out\n        /* \"#utility.yul\":1149:1371   */\n    tag_18:\n        /* \"#utility.yul\":1242:1246   */\n      0x00\n        /* \"#utility.yul\":1280:1282   */\n      0x20\n        /* \"#utility.yul\":1269:1278   */\n      dup3\n        /* \"#utility.yul\":1265:1283   */\n      add\n        /* \"#utility.yul\":1257:1283   */\n      swap1\n      pop\n        /* \"#utility.yul\":1293:1364   */\n      tag_106\n        /* \"#utility.yul\":1361:1362   */\n      0x00\n        /* \"#utility.yul\":1350:1359   */\n      dup4\n        /* \"#utility.yul\":1346:1363   */\n      add\n        /* \"#utility.yul\":1337:1343   */\n      dup5\n        /* \"#utility.yul\":1293:1364   */\n      tag_81\n      jump\t// in\n    tag_106:\n        /* \"#utility.yul\":1149:1371   */\n      swap3\n      swap2\n      pop\n      pop\n      jump\t// out\n        /* \"#utility.yul\":1377:1503   */\n    tag_82:\n        /* \"#utility.yul\":1414:1421   */\n      0x00\n        /* \"#utility.yul\":1454:1496   */\n      0xffffffffffffffffffffffffffffffffffffffff\n        /* \"#utility.yul\":1447:1452   */\n      dup3\n        /* \"#utility.yul\":1443:1497   */\n      and\n        /* \"#utility.yul\":1432:1497   */\n      swap1\n      pop\n        /* \"#utility.yul\":1377:1503   */\n      swap2\n      swap1\n      pop\n      jump\t// out\n        /* \"#utility.yul\":1509:1605   */\n    tag_83:\n        /* \"#utility.yul\":1546:1553   */\n      0x00\n        /* \"#utility.yul\":1575:1599   */\n      tag_109\n        /* \"#utility.yul\":1593:1598   */\n      dup3\n        /* \"#utility.yul\":1575:1599   */\n      tag_82\n      jump\t// in\n    tag_109:\n        /* \"#utility.yul\":1564:1599   */\n      swap1\n      pop\n        /* \"#utility.yul\":1509:1605   */\n      swap2\n      swap1\n      pop\n      jump\t// out\n        /* \"#utility.yul\":1611:1729   */\n    tag_84:\n        /* \"#utility.yul\":1698:1722   */\n      tag_111\n        /* \"#utility.yul\":1716:1721   */\n      dup2\n        /* \"#utility.yul\":1698:1722   */\n      tag_83\n      jump\t// in\n    tag_111:\n        /* \"#utility.yul\":1693:1696   */\n      dup3\n        /* \"#utility.yul\":1686:1723   */\n      mstore\n        /* \"#utility.yul\":1611:1729   */\n      pop\n      pop\n      jump\t// out\n        /* \"#utility.yul\":1735:1957   */\n    tag_31:\n        /* \"#utility.yul\":1828:1832   */\n      0x00\n        /* \"#utility.yul\":1866:1868   */\n      0x20\n        /* \"#utility.yul\":1855:1864   */\n      dup3\n        /* \"#utility.yul\":1851:1869   */\n      add\n        /* \"#utility.yul\":1843:1869   */\n      swap1\n      pop\n        /* \"#utility.yul\":1879:1950   */\n      tag_113\n        /* \"#utility.yul\":1947:1948   */\n      0x00\n        /* \"#utility.yul\":1936:1945   */\n      dup4\n        /* \"#utility.yul\":1932:1949   */\n      add\n        /* \"#utility.yul\":1923:1929   */\n      dup5\n        /* \"#utility.yul\":1879:1950   */\n      tag_84\n      jump\t// in\n    tag_113:\n        /* \"#utility.yul\":1735:1957   */\n      swap3\n      swap2\n      pop\n      pop\n      jump\t// out\n        /* \"#utility.yul\":1963:2132   */\n    tag_85:\n        /* \"#utility.yul\":2047:2058   */\n      0x00\n        /* \"#utility.yul\":2081:2087   */\n      dup3\n        /* \"#utility.yul\":2076:2079   */\n      dup3\n        /* \"#utility.yul\":2069:2088   */\n      mstore\n        /* \"#utility.yul\":2121:2125   */\n      0x20\n        /* \"#utility.yul\":2116:2119   */\n      dup3\n        /* \"#utility.yul\":2112:2126   */\n      add\n        /* \"#utility.yul\":2097:2126   */\n      swap1\n      pop\n        /* \"#utility.yul\":1963:2132   */\n      swap3\n      swap2\n      pop\n      pop\n      jump\t// out\n        /* \"#utility.yul\":2138:2365   */\n    tag_86:\n        /* \"#utility.yul\":2278:2312   */\n      0x63616e206e6f742064656372656173652c20636f756e74206973206c65737320\n        /* \"#utility.yul\":2274:2275   */\n      0x00\n        /* \"#utility.yul\":2266:2272   */\n      dup3\n        /* \"#utility.yul\":2262:2276   */\n      add\n        /* \"#utility.yul\":2255:2313   */\n      mstore\n        /* \"#utility.yul\":2347:2357   */\n      0x7468616e206f6e65000000000000000000000000000000000000000000000000\n        /* \"#utility.yul\":2342:2344   */\n      0x20\n        /* \"#utility.yul\":2334:2340   */\n      dup3\n        /* \"#utility.yul\":2330:2345   */\n      add\n        /* \"#utility.yul\":2323:2358   */\n      mstore\n        /* \"#utility.yul\":2138:2365   */\n      pop\n      jump\t// out\n        /* \"#utility.yul\":2371:2737   */\n    tag_87:\n        /* \"#utility.yul\":2513:2516   */\n      0x00\n        /* \"#utility.yul\":2534:2601   */\n      tag_117\n        /* \"#utility.yul\":2598:2600   */\n      0x28\n        /* \"#utility.yul\":2593:2596   */\n      dup4\n        /* \"#utility.yul\":2534:2601   */\n      tag_85\n      jump\t// in\n    tag_117:\n        /* \"#utility.yul\":2527:2601   */\n      swap2\n      pop\n        /* \"#utility.yul\":2610:2703   */\n      tag_118\n        /* \"#utility.yul\":2699:2702   */\n      dup3\n        /* \"#utility.yul\":2610:2703   */\n      tag_86\n      jump\t// in\n    tag_118:\n        /* \"#utility.yul\":2728:2730   */\n      0x40\n        /* \"#utility.yul\":2723:2726   */\n      dup3\n        /* \"#utility.yul\":2719:2731   */\n      add\n        /* \"#utility.yul\":2712:2731   */\n      swap1\n      pop\n        /* \"#utility.yul\":2371:2737   */\n      swap2\n      swap1\n      pop\n      jump\t// out\n        /* \"#utility.yul\":2743:3162   */\n    tag_59:\n        /* \"#utility.yul\":2909:2913   */\n      0x00\n        /* \"#utility.yul\":2947:2949   */\n      0x20\n        /* \"#utility.yul\":2936:2945   */\n      dup3\n        /* \"#utility.yul\":2932:2950   */\n      add\n        /* \"#utility.yul\":2924:2950   */\n      swap1\n      pop\n        /* \"#utility.yul\":2996:3005   */\n      dup2\n        /* \"#utility.yul\":2990:2994   */\n      dup2\n        /* \"#utility.yul\":2986:3006   */\n      sub\n        /* \"#utility.yul\":2982:2983   */\n      0x00\n        /* \"#utility.yul\":2971:2980   */\n      dup4\n        /* \"#utility.yul\":2967:2984   */\n      add\n        /* \"#utility.yul\":2960:3007   */\n      mstore\n        /* \"#utility.yul\":3024:3155   */\n      tag_120\n        /* \"#utility.yul\":3150:3154   */\n      dup2\n        /* \"#utility.yul\":3024:3155   */\n      tag_87\n      jump\t// in\n    tag_120:\n        /* \"#utility.yul\":3016:3155   */\n      swap1\n      pop\n        /* \"#utility.yul\":2743:3162   */\n      swap2\n      swap1\n      pop\n      jump\t// out\n        /* \"#utility.yul\":3168:3348   */\n    tag_88:\n        /* \"#utility.yul\":3216:3293   */\n      0x4e487b7100000000000000000000000000000000000000000000000000000000\n        /* \"#utility.yul\":3213:3214   */\n      0x00\n        /* \"#utility.yul\":3206:3294   */\n      mstore\n        /* \"#utility.yul\":3313:3317   */\n      0x11\n        /* \"#utility.yul\":3310:3311   */\n      0x04\n        /* \"#utility.yul\":3303:3318   */\n      mstore\n        /* \"#utility.yul\":3337:3341   */\n      0x24\n        /* \"#utility.yul\":3334:3335   */\n      0x00\n        /* \"#utility.yul\":3327:3342   */\n      revert\n        /* \"#utility.yul\":3354:3548   */\n    tag_61:\n        /* \"#utility.yul\":3394:3398   */\n      0x00\n        /* \"#utility.yul\":3414:3434   */\n      tag_123\n        /* \"#utility.yul\":3432:3433   */\n      dup3\n        /* \"#utility.yul\":3414:3434   */\n      tag_78\n      jump\t// in\n    tag_123:\n        /* \"#utility.yul\":3409:3434   */\n      swap2\n      pop\n        /* \"#utility.yul\":3448:3468   */\n      tag_124\n        /* \"#utility.yul\":3466:3467   */\n      dup4\n        /* \"#utility.yul\":3448:3468   */\n      tag_78\n      jump\t// in\n    tag_124:\n        /* \"#utility.yul\":3443:3468   */\n      swap3\n      pop\n        /* \"#utility.yul\":3492:3493   */\n      dup3\n        /* \"#utility.yul\":3489:3490   */\n      dup3\n        /* \"#utility.yul\":3485:3494   */\n      sub\n        /* \"#utility.yul\":3477:3494   */\n      swap1\n      pop\n        /* \"#utility.yul\":3516:3517   */\n      dup2\n        /* \"#utility.yul\":3510:3514   */\n      dup2\n        /* \"#utility.yul\":3507:3518   */\n      gt\n        /* \"#utility.yul\":3504:3541   */\n      iszero\n      tag_125\n      jumpi\n        /* \"#utility.yul\":3521:3539   */\n      tag_126\n      tag_88\n      jump\t// in\n    tag_126:\n        /* \"#utility.yul\":3504:3541   */\n    tag_125:\n        /* \"#utility.yul\":3354:3548   */\n      swap3\n      swap2\n      pop\n      pop\n      jump\t// out\n        /* \"#utility.yul\":3554:3745   */\n    tag_70:\n        /* \"#utility.yul\":3594:3597   */\n      0x00\n        /* \"#utility.yul\":3613:3633   */\n      tag_128\n        /* \"#utility.yul\":3631:3632   */\n      dup3\n        /* \"#utility.yul\":3613:3633   */\n      tag_78\n      jump\t// in\n    tag_128:\n        /* \"#utility.yul\":3608:3633   */\n      swap2\n      pop\n        /* \"#utility.yul\":3647:3667   */\n      tag_129\n        /* \"#utility.yul\":3665:3666   */\n      dup4\n        /* \"#utility.yul\":3647:3667   */\n      tag_78\n      jump\t// in\n    tag_129:\n        /* \"#utility.yul\":3642:3667   */\n      swap3\n      pop\n        /* \"#utility.yul\":3690:3691   */\n      dup3\n        /* \"#utility.yul\":3687:3688   */\n      dup3\n        /* \"#utility.yul\":3683:3692   */\n      add\n        /* \"#utility.yul\":3676:3692   */\n      swap1\n      pop\n        /* \"#utility.yul\":3711:3714   */\n      dup1\n        /* \"#utility.yul\":3708:3709   */\n      dup3\n        /* \"#utility.yul\":3705:3715   */\n      gt\n        /* \"#utility.yul\":3702:3738   */\n      iszero\n      tag_130\n      jumpi\n        /* \"#utility.yul\":3718:3736   */\n      tag_131\n      tag_88\n      jump\t// in\n    tag_131:\n        /* \"#utility.yul\":3702:3738   */\n    tag_130:\n        /* \"#utility.yul\":3554:3745   */\n      swap3\n      swap2\n      pop\n      pop\n      jump\t// out\n\n    auxdata: 0xa26469706673582212200e45d1e561e1c44532fd084158b434dc2cb25279d170222cb580979dde57f4f164736f6c634300081c0033\n}\n",
				"bytecode": {
					"linkReferences": {},
					"object": "60806040526040518060600160405280600260ff168152602001600360ff168152602001600560ff1681525060039060036039929190604f565b503480156044575f5ffd5b505f5f8190555060b3565b828054828255905f5260205f20908101928215608b579160200282015b82811115608a578251829060ff16905591602001919060010190606c565b5b50905060969190609a565b5090565b5b8082111560af575f815f905550600101609b565b5090565b6105d8806100c05f395ff3fe608060405260043610610085575f3560e01c80636d4ce63c116100585780636d4ce63c14610141578063826926791461016b578063aa8c217c14610189578063d09de08a146101b3578063d82b675a146101c957610085565b8063193c6b76146100895780632baeceb7146100c55780632fbebd38146100db57806367e404ce14610117575b5f5ffd5b348015610094575f5ffd5b506100af60048036038101906100aa91906103c6565b610205565b6040516100bc9190610400565b60405180910390f35b3480156100d0575f5ffd5b506100d9610231565b005b3480156100e6575f5ffd5b5061010160048036038101906100fc91906103c6565b610290565b60405161010e9190610400565b60405180910390f35b348015610122575f5ffd5b5061012b6102be565b6040516101389190610458565b60405180910390f35b34801561014c575f5ffd5b506101556102e3565b6040516101629190610400565b60405180910390f35b6101736102eb565b6040516101809190610400565b60405180910390f35b348015610194575f5ffd5b5061019d61034f565b6040516101aa9190610400565b60405180910390f35b3480156101be575f5ffd5b506101c7610355565b005b3480156101d4575f5ffd5b506101ef60048036038101906101ea91906103c6565b61036f565b6040516101fc9190610400565b60405180910390f35b5f600a8210610225576014821061021d576002610220565b60015b610227565b5f5b60ff169050919050565b60015f541015610276576040517f08c379a000000000000000000000000000000000000000000000000000000000815260040161026d906104f1565b60405180910390fd5b60015f5f828254610287919061053c565b92505081905550565b5f600a8210156102a2575f90506102b9565b60148210156102b457600190506102b9565b600290505b919050565b60015f9054906101000a900473ffffffffffffffffffffffffffffffffffffffff1681565b5f5f54905090565b5f5f3460025f8282546102fe919061056f565b925050819055504290503360015f6101000a81548173ffffffffffffffffffffffffffffffffffffffff021916908373ffffffffffffffffffffffffffffffffffffffff1602179055508091505090565b60025481565b60015f5f828254610366919061056f565b92505081905550565b6003818154811061037e575f80fd5b905f5260205f20015f915090505481565b5f5ffd5b5f819050919050565b6103a581610393565b81146103af575f5ffd5b50565b5f813590506103c08161039c565b92915050565b5f602082840312156103db576103da61038f565b5b5f6103e8848285016103b2565b91505092915050565b6103fa81610393565b82525050565b5f6020820190506104135f8301846103f1565b92915050565b5f73ffffffffffffffffffffffffffffffffffffffff82169050919050565b5f61044282610419565b9050919050565b61045281610438565b82525050565b5f60208201905061046b5f830184610449565b92915050565b5f82825260208201905092915050565b7f63616e206e6f742064656372656173652c20636f756e74206973206c657373205f8201527f7468616e206f6e65000000000000000000000000000000000000000000000000602082015250565b5f6104db602883610471565b91506104e682610481565b604082019050919050565b5f6020820190508181035f830152610508816104cf565b9050919050565b7f4e487b71000000000000000000000000000000000000000000000000000000005f52601160045260245ffd5b5f61054682610393565b915061055183610393565b92508282039050818111156105695761056861050f565b5b92915050565b5f61057982610393565b915061058483610393565b925082820190508082111561059c5761059b61050f565b5b9291505056fea26469706673582212200e45d1e561e1c44532fd084158b434dc2cb25279d170222cb580979dde57f4f164736f6c634300081c0033",
					"opcodes": "PUSH1 0x80 PUSH1 0x40 MSTORE PUSH1 0x40 MLOAD DUP1 PUSH1 0x60 ADD PUSH1 0x40 MSTORE DUP1 PUSH1 0x2 PUSH1 0xFF AND DUP2 MSTORE PUSH1 0x20 ADD PUSH1 0x3 PUSH1 0xFF AND DUP2 MSTORE PUSH1 0x20 ADD PUSH1 0x5 PUSH1 0xFF AND DUP2 MSTORE POP PUSH1 0x3 SWAP1 PUSH1 0x3 PUSH1 0x39 SWAP3 SWAP2 SWAP1 PUSH1 0x4F JUMP JUMPDEST POP CALLVALUE DUP1 ISZERO PUSH1 0x44 JUMPI PUSH0 PUSH0 REVERT JUMPDEST POP PUSH0 PUSH0 DUP2 SWAP1 SSTORE POP PUSH1 0xB3 JUMP JUMPDEST DUP3 DUP1 SLOAD DUP3 DUP3 SSTORE SWAP1 PUSH0 MSTORE PUSH1 0x20 PUSH0 KECCAK256 SWAP1 DUP2 ADD SWAP3 DUP3 ISZERO PUSH1 0x8B JUMPI SWAP2 PUSH1 0x20 MUL DUP3 ADD JUMPDEST DUP3 DUP2 GT ISZERO PUSH1 0x8A JUMPI DUP3 MLOAD DUP3 SWAP1 PUSH1 0xFF AND SWAP1 SSTORE SWAP2 PUSH1 0x20 ADD SWAP2 SWAP1 PUSH1 0x1 ADD SWAP1 PUSH1 0x6C JUMP JUMPDEST JUMPDEST POP SWAP1 POP PUSH1 0x96 SWAP2 SWAP1 PUSH1 0x9A JUMP JUMPDEST POP SWAP1 JUMP JUMPDEST JUMPDEST DUP1 DUP3 GT ISZERO PUSH1 0xAF JUMPI PUSH0 DUP2 PUSH0 SWAP1 SSTORE POP PUSH1 0x1 ADD PUSH1 0x9B JUMP JUMPDEST POP SWAP1 JUMP JUMPDEST PUSH2 0x5D8 DUP1 PUSH2 0xC0 PUSH0 CODECOPY PUSH0 RETURN INVALID PUSH1 0x80 PUSH1 0x40 MSTORE PUSH1 0x4 CALLDATASIZE LT PUSH2 0x85 JUMPI PUSH0 CALLDATALOAD PUSH1 0xE0 SHR DUP1 PUSH4 0x6D4CE63C GT PUSH2 0x58 JUMPI DUP1 PUSH4 0x6D4CE63C EQ PUSH2 0x141 JUMPI DUP1 PUSH4 0x82692679 EQ PUSH2 0x16B JUMPI DUP1 PUSH4 0xAA8C217C EQ PUSH2 0x189 JUMPI DUP1 PUSH4 0xD09DE08A EQ PUSH2 0x1B3 JUMPI DUP1 PUSH4 0xD82B675A EQ PUSH2 0x1C9 JUMPI PUSH2 0x85 JUMP JUMPDEST DUP1 PUSH4 0x193C6B76 EQ PUSH2 0x89 JUMPI DUP1 PUSH4 0x2BAECEB7 EQ PUSH2 0xC5 JUMPI DUP1 PUSH4 0x2FBEBD38 EQ PUSH2 0xDB JUMPI DUP1 PUSH4 0x67E404CE EQ PUSH2 0x117 JUMPI JUMPDEST PUSH0 PUSH0 REVERT JUMPDEST CALLVALUE DUP1 ISZERO PUSH2 0x94 JUMPI PUSH0 PUSH0 REVERT JUMPDEST POP PUSH2 0xAF PUSH1 0x4 DUP1 CALLDATASIZE SUB DUP2 ADD SWAP1 PUSH2 0xAA SWAP2 SWAP1 PUSH2 0x3C6 JUMP JUMPDEST PUSH2 0x205 JUMP JUMPDEST PUSH1 0x40 MLOAD PUSH2 0xBC SWAP2 SWAP1 PUSH2 0x400 JUMP JUMPDEST PUSH1 0x40 MLOAD DUP1 SWAP2 SUB SWAP1 RETURN JUMPDEST CALLVALUE DUP1 ISZERO PUSH2 0xD0 JUMPI PUSH0 PUSH0 REVERT JUMPDEST POP PUSH2 0xD9 PUSH2 0x231 JUMP JUMPDEST STOP JUMPDEST CALLVALUE DUP1 ISZERO PUSH2 0xE6 JUMPI PUSH0 PUSH0 REVERT JUMPDEST POP PUSH2 0x101 PUSH1 0x4 DUP1 CALLDATASIZE SUB DUP2 ADD SWAP1 PUSH2 0xFC SWAP2 SWAP1 PUSH2 0x3C6 JUMP JUMPDEST PUSH2 0x290 JUMP JUMPDEST PUSH1 0x40 MLOAD PUSH2 0x10E SWAP2 SWAP1 PUSH2 0x400 JUMP JUMPDEST PUSH1 0x40 MLOAD DUP1 SWAP2 SUB SWAP1 RETURN JUMPDEST CALLVALUE DUP1 ISZERO PUSH2 0x122 JUMPI PUSH0 PUSH0 REVERT JUMPDEST POP PUSH2 0x12B PUSH2 0x2BE JUMP JUMPDEST PUSH1 0x40 MLOAD PUSH2 0x138 SWAP2 SWAP1 PUSH2 0x458 JUMP JUMPDEST PUSH1 0x40 MLOAD DUP1 SWAP2 SUB SWAP1 RETURN JUMPDEST CALLVALUE DUP1 ISZERO PUSH2 0x14C JUMPI PUSH0 PUSH0 REVERT JUMPDEST POP PUSH2 0x155 PUSH2 0x2E3 JUMP JUMPDEST PUSH1 0x40 MLOAD PUSH2 0x162 SWAP2 SWAP1 PUSH2 0x400 JUMP JUMPDEST PUSH1 0x40 MLOAD DUP1 SWAP2 SUB SWAP1 RETURN JUMPDEST PUSH2 0x173 PUSH2 0x2EB JUMP JUMPDEST PUSH1 0x40 MLOAD PUSH2 0x180 SWAP2 SWAP1 PUSH2 0x400 JUMP JUMPDEST PUSH1 0x40 MLOAD DUP1 SWAP2 SUB SWAP1 RETURN JUMPDEST CALLVALUE DUP1 ISZERO PUSH2 0x194 JUMPI PUSH0 PUSH0 REVERT JUMPDEST POP PUSH2 0x19D PUSH2 0x34F JUMP JUMPDEST PUSH1 0x40 MLOAD PUSH2 0x1AA SWAP2 SWAP1 PUSH2 0x400 JUMP JUMPDEST PUSH1 0x40 MLOAD DUP1 SWAP2 SUB SWAP1 RETURN JUMPDEST CALLVALUE DUP1 ISZERO PUSH2 0x1BE JUMPI PUSH0 PUSH0 REVERT JUMPDEST POP PUSH2 0x1C7 PUSH2 0x355 JUMP JUMPDEST STOP JUMPDEST CALLVALUE DUP1 ISZERO PUSH2 0x1D4 JUMPI PUSH0 PUSH0 REVERT JUMPDEST POP PUSH2 0x1EF PUSH1 0x4 DUP1 CALLDATASIZE SUB DUP2 ADD SWAP1 PUSH2 0x1EA SWAP2 SWAP1 PUSH2 0x3C6 JUMP JUMPDEST PUSH2 0x36F JUMP JUMPDEST PUSH1 0x40 MLOAD PUSH2 0x1FC SWAP2 SWAP1 PUSH2 0x400 JUMP JUMPDEST PUSH1 0x40 MLOAD DUP1 SWAP2 SUB SWAP1 RETURN JUMPDEST PUSH0 PUSH1 0xA DUP3 LT PUSH2 0x225 JUMPI PUSH1 0x14 DUP3 LT PUSH2 0x21D JUMPI PUSH1 0x2 PUSH2 0x220 JUMP JUMPDEST PUSH1 0x1 JUMPDEST PUSH2 0x227 JUMP JUMPDEST PUSH0 JUMPDEST PUSH1 0xFF AND SWAP1 POP SWAP2 SWAP1 POP JUMP JUMPDEST PUSH1 0x1 PUSH0 SLOAD LT ISZERO PUSH2 0x276 JUMPI PUSH1 0x40 MLOAD PUSH32 0x8C379A000000000000000000000000000000000000000000000000000000000 DUP2 MSTORE PUSH1 0x4 ADD PUSH2 0x26D SWAP1 PUSH2 0x4F1 JUMP JUMPDEST PUSH1 0x40 MLOAD DUP1 SWAP2 SUB SWAP1 REVERT JUMPDEST PUSH1 0x1 PUSH0 PUSH0 DUP3 DUP3 SLOAD PUSH2 0x287 SWAP2 SWAP1 PUSH2 0x53C JUMP JUMPDEST SWAP3 POP POP DUP2 SWAP1 SSTORE POP JUMP JUMPDEST PUSH0 PUSH1 0xA DUP3 LT ISZERO PUSH2 0x2A2 JUMPI PUSH0 SWAP1 POP PUSH2 0x2B9 JUMP JUMPDEST PUSH1 0x14 DUP3 LT ISZERO PUSH2 0x2B4 JUMPI PUSH1 0x1 SWAP1 POP PUSH2 0x2B9 JUMP JUMPDEST PUSH1 0x2 SWAP1 POP JUMPDEST SWAP2 SWAP1 POP JUMP JUMPDEST PUSH1 0x1 PUSH0 SWAP1 SLOAD SWAP1 PUSH2 0x100 EXP SWAP1 DIV PUSH20 0xFFFFFFFFFFFFFFFFFFFFFFFFFFFFFFFFFFFFFFFF AND DUP2 JUMP JUMPDEST PUSH0 PUSH0 SLOAD SWAP1 POP SWAP1 JUMP JUMPDEST PUSH0 PUSH0 CALLVALUE PUSH1 0x2 PUSH0 DUP3 DUP3 SLOAD PUSH2 0x2FE SWAP2 SWAP1 PUSH2 0x56F JUMP JUMPDEST SWAP3 POP POP DUP2 SWAP1 SSTORE POP TIMESTAMP SWAP1 POP CALLER PUSH1 0x1 PUSH0 PUSH2 0x100 EXP DUP2 SLOAD DUP2 PUSH20 0xFFFFFFFFFFFFFFFFFFFFFFFFFFFFFFFFFFFFFFFF MUL NOT AND SWAP1 DUP4 PUSH20 0xFFFFFFFFFFFFFFFFFFFFFFFFFFFFFFFFFFFFFFFF AND MUL OR SWAP1 SSTORE POP DUP1 SWAP2 POP POP SWAP1 JUMP JUMPDEST PUSH1 0x2 SLOAD DUP2 JUMP JUMPDEST PUSH1 0x1 PUSH0 PUSH0 DUP3 DUP3 SLOAD PUSH2 0x366 SWAP2 SWAP1 PUSH2 0x56F JUMP JUMPDEST SWAP3 POP POP DUP2 SWAP1 SSTORE POP JUMP JUMPDEST PUSH1 0x3 DUP2 DUP2 SLOAD DUP2 LT PUSH2 0x37E JUMPI PUSH0 DUP1 REVERT JUMPDEST SWAP1 PUSH0 MSTORE PUSH1 0x20 PUSH0 KECCAK256 ADD PUSH0 SWAP2 POP SWAP1 POP SLOAD DUP2 JUMP JUMPDEST PUSH0 PUSH0 REVERT JUMPDEST PUSH0 DUP2 SWAP1 POP SWAP2 SWAP1 POP JUMP JUMPDEST PUSH2 0x3A5 DUP2 PUSH2 0x393 JUMP JUMPDEST DUP2 EQ PUSH2 0x3AF JUMPI PUSH0 PUSH0 REVERT JUMPDEST POP JUMP JUMPDEST PUSH0 DUP2 CALLDATALOAD SWAP1 POP PUSH2 0x3C0 DUP2 PUSH2 0x39C JUMP JUMPDEST SWAP3 SWAP2 POP POP JUMP JUMPDEST PUSH0 PUSH1 0x20 DUP3 DUP5 SUB SLT ISZERO PUSH2 0x3DB JUMPI PUSH2 0x3DA PUSH2 0x38F JUMP JUMPDEST JUMPDEST PUSH0 PUSH2 0x3E8 DUP5 DUP3 DUP6 ADD PUSH2 0x3B2 JUMP JUMPDEST SWAP2 POP POP SWAP3 SWAP2 POP POP JUMP JUMPDEST PUSH2 0x3FA DUP2 PUSH2 0x393 JUMP JUMPDEST DUP3 MSTORE POP POP JUMP JUMPDEST PUSH0 PUSH1 0x20 DUP3 ADD SWAP1 POP PUSH2 0x413 PUSH0 DUP4 ADD DUP5 PUSH2 0x3F1 JUMP JUMPDEST SWAP3 SWAP2 POP POP JUMP JUMPDEST PUSH0 PUSH20 0xFFFFFFFFFFFFFFFFFFFFFFFFFFFFFFFFFFFFFFFF DUP3 AND SWAP1 POP SWAP2 SWAP1 POP JUMP JUMPDEST PUSH0 PUSH2 0x442 DUP3 PUSH2 0x419 JUMP JUMPDEST SWAP1 POP SWAP2 SWAP1 POP JUMP JUMPDEST PUSH2 0x452 DUP2 PUSH2 0x438 JUMP JUMPDEST DUP3 MSTORE POP POP JUMP JUMPDEST PUSH0 PUSH1 0x20 DUP3 ADD SWAP1 POP PUSH2 0x46B PUSH0 DUP4 ADD DUP5 PUSH2 0x449 JUMP JUMPDEST SWAP3 SWAP2 POP POP JUMP JUMPDEST PUSH0 DUP3 DUP3 MSTORE PUSH1 0x20 DUP3 ADD SWAP1 POP SWAP3 SWAP2 POP POP JUMP JUMPDEST PUSH32 0x63616E206E6F742064656372656173652C20636F756E74206973206C65737320 PUSH0 DUP3 ADD MSTORE PUSH32 0x7468616E206F6E65000000000000000000000000000000000000000000000000 PUSH1 0x20 DUP3 ADD MSTORE POP JUMP JUMPDEST PUSH0 PUSH2 0x4DB PUSH1 0x28 DUP4 PUSH2 0x471 JUMP JUMPDEST SWAP2 POP PUSH2 0x4E6 DUP3 PUSH2 0x481 JUMP JUMPDEST PUSH1 0x40 DUP3 ADD SWAP1 POP SWAP2 SWAP1 POP JUMP JUMPDEST PUSH0 PUSH1 0x20 DUP3 ADD SWAP1 POP DUP2 DUP2 SUB PUSH0 DUP4 ADD MSTORE PUSH2 0x508 DUP2 PUSH2 0x4CF JUMP JUMPDEST SWAP1 POP SWAP2 SWAP1 POP JUMP JUMPDEST PUSH32 0x4E487B7100000000000000000000000000000000000000000000000000000000 PUSH0 MSTORE PUSH1 0x11 PUSH1 0x4 MSTORE PUSH1 0x24 PUSH0 REVERT JUMPDEST PUSH0 PUSH2 0x546 DUP3 PUSH2 0x393 JUMP JUMPDEST SWAP2 POP PUSH2 0x551 DUP4 PUSH2 0x393 JUMP JUMPDEST SWAP3 POP DUP3 DUP3 SUB SWAP1 POP DUP2 DUP2 GT ISZERO PUSH2 0x569 JUMPI PUSH2 0x568 PUSH2 0x50F JUMP JUMPDEST JUMPDEST SWAP3 SWAP2 POP POP JUMP JUMPDEST PUSH0 PUSH2 0x579 DUP3 PUSH2 0x393 JUMP JUMPDEST SWAP2 POP PUSH2 0x584 DUP4 PUSH2 0x393 JUMP JUMPDEST SWAP3 POP DUP3 DUP3 ADD SWAP1 POP DUP1 DUP3 GT ISZERO PUSH2 0x59C JUMPI PUSH2 0x59B PUSH2 0x50F JUMP JUMPDEST JUMPDEST SWAP3 SWAP2 POP POP JUMP INVALID LOG2 PUSH5 0x6970667358 0x22 SLT KECCAK256 0xE GASLIMIT 0xD1 0xE5 PUSH2 0xE1C4 GASLIMIT ORIGIN REVERT ADDMOD COINBASE PC 0xB4 CALLVALUE 0xDC 0x2C 0xB2 MSTORE PUSH26 0xD170222CB580979DDE57F4F164736F6C634300081C0033000000 "
				},
				"gasEstimates": {
					"creation": {
						"codeDepositCost": "299200",
						"executionCost": "infinite",
						"totalCost": "infinite"
					},
					"external": {
						"amount()": "2469",
						"decrement()": "infinite",
						"doSomething()": "infinite",
						"donores(uint256)": "infinite",
						"foo(uint256)": "infinite",
						"fooT(uint256)": "infinite",
						"get()": "2431",
						"increment()": "infinite",
						"sender()": "2575"
					}
				},
				"methodIdentifiers": {
					"amount()": "aa8c217c",
					"decrement()": "2baeceb7",
					"doSomething()": "82692679",
					"donores(uint256)": "d82b675a",
					"foo(uint256)": "2fbebd38",
					"fooT(uint256)": "193c6b76",
					"get()": "6d4ce63c",
					"increment()": "d09de08a",
					"sender()": "67e404ce"
				}
			},
			"storageLayout": {
				"storage": [
					{
						"astId": 3,
						"contract": "contracts/4_solidityExample.sol:SolidityExample",
						"label": "count",
						"offset": 0,
						"slot": "0",
						"type": "t_uint256"
					},
					{
						"astId": 5,
						"contract": "contracts/4_solidityExample.sol:SolidityExample",
						"label": "sender",
						"offset": 0,
						"slot": "1",
						"type": "t_address"
					},
					{
						"astId": 7,
						"contract": "contracts/4_solidityExample.sol:SolidityExample",
						"label": "amount",
						"offset": 0,
						"slot": "2",
						"type": "t_uint256"
					},
					{
						"astId": 14,
						"contract": "contracts/4_solidityExample.sol:SolidityExample",
						"label": "donores",
						"offset": 0,
						"slot": "3",
						"type": "t_array(t_uint256)dyn_storage"
					}
				],
				"types": {
					"t_address": {
						"encoding": "inplace",
						"label": "address",
						"numberOfBytes": "20"
					},
					"t_array(t_uint256)dyn_storage": {
						"base": "t_uint256",
						"encoding": "dynamic_array",
						"label": "uint256[]",
						"numberOfBytes": "32"
					},
					"t_uint256": {
						"encoding": "inplace",
						"label": "uint256",
						"numberOfBytes": "32"
					}
				}
			},
			"userdoc": {
				"kind": "user",
				"methods": {},
				"version": 1
			}
		}
	}
}