{
	"data": {
		"bytecode": {
			"linkReferences": {},
			"object": "6080604052348015600e575f5ffd5b5061039b8061001c5f395ff3fe608060405234801561000f575f5ffd5b5060043610610029575f3560e01c80635c512e8b1461002d575b5f5ffd5b610047600480360381019061004291906102aa565b61005d565b604051610054919061034c565b60405180910390f35b5f9392505050565b5f604051905090565b5f5ffd5b5f5ffd5b5f73ffffffffffffffffffffffffffffffffffffffff82169050919050565b5f61009f82610076565b9050919050565b6100af81610095565b81146100b9575f5ffd5b50565b5f813590506100ca816100a6565b92915050565b5f5ffd5b5f5ffd5b5f601f19601f8301169050919050565b7f4e487b71000000000000000000000000000000000000000000000000000000005f52604160045260245ffd5b61011e826100d8565b810181811067ffffffffffffffff8211171561013d5761013c6100e8565b5b80604052505050565b5f61014f610065565b905061015b8282610115565b919050565b5f67ffffffffffffffff82111561017a576101796100e8565b5b610183826100d8565b9050602081019050919050565b828183375f83830152505050565b5f6101b06101ab84610160565b610146565b9050828152602081018484840111156101cc576101cb6100d4565b5b6101d7848285610190565b509392505050565b5f82601f8301126101f3576101f26100d0565b5b813561020384826020860161019e565b91505092915050565b5f67ffffffffffffffff821115610226576102256100e8565b5b61022f826100d8565b9050602081019050919050565b5f61024e6102498461020c565b610146565b90508281526020810184848401111561026a576102696100d4565b5b610275848285610190565b509392505050565b5f82601f830112610291576102906100d0565b5b81356102a184826020860161023c565b91505092915050565b5f5f5f606084860312156102c1576102c061006e565b5b5f6102ce868287016100bc565b935050602084013567ffffffffffffffff8111156102ef576102ee610072565b5b6102fb868287016101df565b925050604084013567ffffffffffffffff81111561031c5761031b610072565b5b6103288682870161027d565b9150509250925092565b5f8115159050919050565b61034681610332565b82525050565b5f60208201905061035f5f83018461033d565b9291505056fea264697066735822122065846522e3b5cb029bd899d7489dd59fdabe6ca341a0e08fb98bc9549d01f6ee64736f6c634300081c0033",
			"opcodes": "PUSH1 0x80 PUSH1 0x40 MSTORE CALLVALUE DUP1 ISZERO PUSH1 0xE JUMPI PUSH0 PUSH0 REVERT JUMPDEST POP PUSH2 0x39B DUP1 PUSH2 0x1C PUSH0 CODECOPY PUSH0 RETURN INVALID PUSH1 0x80 PUSH1 0x40 MSTORE CALLVALUE DUP1 ISZERO PUSH2 0xF JUMPI PUSH0 PUSH0 REVERT JUMPDEST POP PUSH1 0x4 CALLDATASIZE LT PUSH2 0x29 JUMPI PUSH0 CALLDATALOAD PUSH1 0xE0 SHR DUP1 PUSH4 0x5C512E8B EQ PUSH2 0x2D JUMPI JUMPDEST PUSH0 PUSH0 REVERT JUMPDEST PUSH2 0x47 PUSH1 0x4 DUP1 CALLDATASIZE SUB DUP2 ADD SWAP1 PUSH2 0x42 SWAP2 SWAP1 PUSH2 0x2AA JUMP JUMPDEST PUSH2 0x5D JUMP JUMPDEST PUSH1 0x40 MLOAD PUSH2 0x54 SWAP2 SWAP1 PUSH2 0x34C JUMP JUMPDEST PUSH1 0x40 MLOAD DUP1 SWAP2 SUB SWAP1 RETURN JUMPDEST PUSH0 SWAP4 SWAP3 POP POP POP JUMP JUMPDEST PUSH0 PUSH1 0x40 MLOAD SWAP1 POP SWAP1 JUMP JUMPDEST PUSH0 PUSH0 REVERT JUMPDEST PUSH0 PUSH0 REVERT JUMPDEST PUSH0 PUSH20 0xFFFFFFFFFFFFFFFFFFFFFFFFFFFFFFFFFFFFFFFF DUP3 AND SWAP1 POP SWAP2 SWAP1 POP JUMP JUMPDEST PUSH0 PUSH2 0x9F DUP3 PUSH2 0x76 JUMP JUMPDEST SWAP1 POP SWAP2 SWAP1 POP JUMP JUMPDEST PUSH2 0xAF DUP2 PUSH2 0x95 JUMP JUMPDEST DUP2 EQ PUSH2 0xB9 JUMPI PUSH0 PUSH0 REVERT JUMPDEST POP JUMP JUMPDEST PUSH0 DUP2 CALLDATALOAD SWAP1 POP PUSH2 0xCA DUP2 PUSH2 0xA6 JUMP JUMPDEST SWAP3 SWAP2 POP POP JUMP JUMPDEST PUSH0 PUSH0 REVERT JUMPDEST PUSH0 PUSH0 REVERT JUMPDEST PUSH0 PUSH1 0x1F NOT PUSH1 0x1F DUP4 ADD AND SWAP1 POP SWAP2 SWAP1 POP JUMP JUMPDEST PUSH32 0x4E487B7100000000000000000000000000000000000000000000000000000000 PUSH0 MSTORE PUSH1 0x41 PUSH1 0x4 MSTORE PUSH1 0x24 PUSH0 REVERT JUMPDEST PUSH2 0x11E DUP3 PUSH2 0xD8 JUMP JUMPDEST DUP2 ADD DUP2 DUP2 LT PUSH8 0xFFFFFFFFFFFFFFFF DUP3 GT OR ISZERO PUSH2 0x13D JUMPI PUSH2 0x13C PUSH2 0xE8 JUMP JUMPDEST JUMPDEST DUP1 PUSH1 0x40 MSTORE POP POP POP JUMP JUMPDEST PUSH0 PUSH2 0x14F PUSH2 0x65 JUMP JUMPDEST SWAP1 POP PUSH2 0x15B DUP3 DUP3 PUSH2 0x115 JUMP JUMPDEST SWAP2 SWAP1 POP JUMP JUMPDEST PUSH0 PUSH8 0xFFFFFFFFFFFFFFFF DUP3 GT ISZERO PUSH2 0x17A JUMPI PUSH2 0x179 PUSH2 0xE8 JUMP JUMPDEST JUMPDEST PUSH2 0x183 DUP3 PUSH2 0xD8 JUMP JUMPDEST SWAP1 POP PUSH1 0x20 DUP2 ADD SWAP1 POP SWAP2 SWAP1 POP JUMP JUMPDEST DUP3 DUP2 DUP4 CALLDATACOPY PUSH0 DUP4 DUP4 ADD MSTORE POP POP POP JUMP JUMPDEST PUSH0 PUSH2 0x1B0 PUSH2 0x1AB DUP5 PUSH2 0x160 JUMP JUMPDEST PUSH2 0x146 JUMP JUMPDEST SWAP1 POP DUP3 DUP2 MSTORE PUSH1 0x20 DUP2 ADD DUP5 DUP5 DUP5 ADD GT ISZERO PUSH2 0x1CC JUMPI PUSH2 0x1CB PUSH2 0xD4 JUMP JUMPDEST JUMPDEST PUSH2 0x1D7 DUP5 DUP3 DUP6 PUSH2 0x190 JUMP JUMPDEST POP SWAP4 SWAP3 POP POP POP JUMP JUMPDEST PUSH0 DUP3 PUSH1 0x1F DUP4 ADD SLT PUSH2 0x1F3 JUMPI PUSH2 0x1F2 PUSH2 0xD0 JUMP JUMPDEST JUMPDEST DUP2 CALLDATALOAD PUSH2 0x203 DUP5 DUP3 PUSH1 0x20 DUP7 ADD PUSH2 0x19E JUMP JUMPDEST SWAP2 POP POP SWAP3 SWAP2 POP POP JUMP JUMPDEST PUSH0 PUSH8 0xFFFFFFFFFFFFFFFF DUP3 GT ISZERO PUSH2 0x226 JUMPI PUSH2 0x225 PUSH2 0xE8 JUMP JUMPDEST JUMPDEST PUSH2 0x22F DUP3 PUSH2 0xD8 JUMP JUMPDEST SWAP1 POP PUSH1 0x20 DUP2 ADD SWAP1 POP SWAP2 SWAP1 POP JUMP JUMPDEST PUSH0 PUSH2 0x24E PUSH2 0x249 DUP5 PUSH2 0x20C JUMP JUMPDEST PUSH2 0x146 JUMP JUMPDEST SWAP1 POP DUP3 DUP2 MSTORE PUSH1 0x20 DUP2 ADD DUP5 DUP5 DUP5 ADD GT ISZERO PUSH2 0x26A JUMPI PUSH2 0x269 PUSH2 0xD4 JUMP JUMPDEST JUMPDEST PUSH2 0x275 DUP5 DUP3 DUP6 PUSH2 0x190 JUMP JUMPDEST POP SWAP4 SWAP3 POP POP POP JUMP JUMPDEST PUSH0 DUP3 PUSH1 0x1F DUP4 ADD SLT PUSH2 0x291 JUMPI PUSH2 0x290 PUSH2 0xD0 JUMP JUMPDEST JUMPDEST DUP2 CALLDATALOAD PUSH2 0x2A1 DUP5 DUP3 PUSH1 0x20 DUP7 ADD PUSH2 0x23C JUMP JUMPDEST SWAP2 POP POP SWAP3 SWAP2 POP POP JUMP JUMPDEST PUSH0 PUSH0 PUSH0 PUSH1 0x60 DUP5 DUP7 SUB SLT ISZERO PUSH2 0x2C1 JUMPI PUSH2 0x2C0 PUSH2 0x6E JUMP JUMPDEST JUMPDEST PUSH0 PUSH2 0x2CE DUP7 DUP3 DUP8 ADD PUSH2 0xBC JUMP JUMPDEST SWAP4 POP POP PUSH1 0x20 DUP5 ADD CALLDATALOAD PUSH8 0xFFFFFFFFFFFFFFFF DUP2 GT ISZERO PUSH2 0x2EF JUMPI PUSH2 0x2EE PUSH2 0x72 JUMP JUMPDEST JUMPDEST PUSH2 0x2FB DUP7 DUP3 DUP8 ADD PUSH2 0x1DF JUMP JUMPDEST SWAP3 POP POP PUSH1 0x40 DUP5 ADD CALLDATALOAD PUSH8 0xFFFFFFFFFFFFFFFF DUP2 GT ISZERO PUSH2 0x31C JUMPI PUSH2 0x31B PUSH2 0x72 JUMP JUMPDEST JUMPDEST PUSH2 0x328 DUP7 DUP3 DUP8 ADD PUSH2 0x27D JUMP JUMPDEST SWAP2 POP POP SWAP3 POP SWAP3 POP SWAP3 JUMP JUMPDEST PUSH0 DUP2 ISZERO ISZERO SWAP1 POP SWAP2 SWAP1 POP JUMP JUMPDEST PUSH2 0x346 DUP2 PUSH2 0x332 JUMP JUMPDEST DUP3 MSTORE POP POP JUMP JUMPDEST PUSH0 PUSH1 0x20 DUP3 ADD SWAP1 POP PUSH2 0x35F PUSH0 DUP4 ADD DUP5 PUSH2 0x33D JUMP JUMPDEST SWAP3 SWAP2 POP POP JUMP INVALID LOG2 PUSH5 0x6970667358 0x22 SLT KECCAK256 PUSH6 0x846522E3B5CB MUL SWAP12 0xD8 SWAP10 0xD7 BASEFEE SWAP14 0xD5 SWAP16 0xDA 0xBE PUSH13 0xA341A0E08FB98BC9549D01F6EE PUSH5 0x736F6C6343 STOP ADDMOD SHR STOP CALLER "
		},
		"gasEstimates": {
			"creation": {
				"codeDepositCost": "184600",
				"executionCost": "224",
				"totalCost": "184824"
			},
			"external": {
				"verifySig(address,string,bytes)": "infinite"
			}
		},
		"methodIdentifiers": {
			"verifySig(address,string,bytes)": "5c512e8b"
		}
	},
	"abi": [
		{
			"inputs": [
				{
					"internalType": "address",
					"name": "signer",
					"type": "address"
				},
				{
					"internalType": "string",
					"name": "message",
					"type": "string"
				},
				{
					"internalType": "bytes",
					"name": "sig",
					"type": "bytes"
				}
			],
			"name": "verifySig",
			"outputs": [
				{
					"internalType": "bool",
					"name": "",
					"type": "bool"
				}
			],
			"stateMutability": "pure",
			"type": "function"
		}
	]
}