{
	"data": {
		"bytecode": {
			"linkReferences": {},
			"object": "6080604052348015600e575f5ffd5b506102538061001c5f395ff3fe608060405234801561000f575f5ffd5b506004361061003f575f3560e01c80632093fd931461004357806321319fee146100635780636887344014610083575b5f5ffd5b61004b6100a5565b60405161005a93929190610162565b60405180910390f35b61006b6100b8565b60405161007a93929190610197565b60405180910390f35b61008b6100d2565b60405161009c9594939291906101cc565b60405180910390f35b5f5f5f6001806002925092509250909192565b5f5f5f600292508260019250826003925092509250909192565b5f5f5f5f5f5f5f5f6100e26100a5565b9250925061ffff1692505f5f600460056006925050915084848484849950995099509950995050505050509091929394565b5f61ffff82169050919050565b61012a81610114565b82525050565b5f8115159050919050565b61014481610130565b82525050565b5f819050919050565b61015c8161014a565b82525050565b5f6060820190506101755f830186610121565b610182602083018561013b565b61018f6040830184610153565b949350505050565b5f6060820190506101aa5f830186610153565b6101b7602083018561013b565b6101c46040830184610153565b949350505050565b5f60a0820190506101df5f830188610153565b6101ec602083018761013b565b6101f96040830186610153565b6102066060830185610153565b6102136080830184610153565b969550505050505056fea26469706673582212206a15eb934a411bb45ca2146329730d847d8086b9e407a7db3883d6ae2401ee4064736f6c634300081c0033",
			"opcodes": "PUSH1 0x80 PUSH1 0x40 MSTORE CALLVALUE DUP1 ISZERO PUSH1 0xE JUMPI PUSH0 PUSH0 REVERT JUMPDEST POP PUSH2 0x253 DUP1 PUSH2 0x1C PUSH0 CODECOPY PUSH0 RETURN INVALID PUSH1 0x80 PUSH1 0x40 MSTORE CALLVALUE DUP1 ISZERO PUSH2 0xF JUMPI PUSH0 PUSH0 REVERT JUMPDEST POP PUSH1 0x4 CALLDATASIZE LT PUSH2 0x3F JUMPI PUSH0 CALLDATALOAD PUSH1 0xE0 SHR DUP1 PUSH4 0x2093FD93 EQ PUSH2 0x43 JUMPI DUP1 PUSH4 0x21319FEE EQ PUSH2 0x63 JUMPI DUP1 PUSH4 0x68873440 EQ PUSH2 0x83 JUMPI JUMPDEST PUSH0 PUSH0 REVERT JUMPDEST PUSH2 0x4B PUSH2 0xA5 JUMP JUMPDEST PUSH1 0x40 MLOAD PUSH2 0x5A SWAP4 SWAP3 SWAP2 SWAP1 PUSH2 0x162 JUMP JUMPDEST PUSH1 0x40 MLOAD DUP1 SWAP2 SUB SWAP1 RETURN JUMPDEST PUSH2 0x6B PUSH2 0xB8 JUMP JUMPDEST PUSH1 0x40 MLOAD PUSH2 0x7A SWAP4 SWAP3 SWAP2 SWAP1 PUSH2 0x197 JUMP JUMPDEST PUSH1 0x40 MLOAD DUP1 SWAP2 SUB SWAP1 RETURN JUMPDEST PUSH2 0x8B PUSH2 0xD2 JUMP JUMPDEST PUSH1 0x40 MLOAD PUSH2 0x9C SWAP6 SWAP5 SWAP4 SWAP3 SWAP2 SWAP1 PUSH2 0x1CC JUMP JUMPDEST PUSH1 0x40 MLOAD DUP1 SWAP2 SUB SWAP1 RETURN JUMPDEST PUSH0 PUSH0 PUSH0 PUSH1 0x1 DUP1 PUSH1 0x2 SWAP3 POP SWAP3 POP SWAP3 POP SWAP1 SWAP2 SWAP3 JUMP JUMPDEST PUSH0 PUSH0 PUSH0 PUSH1 0x2 SWAP3 POP DUP3 PUSH1 0x1 SWAP3 POP DUP3 PUSH1 0x3 SWAP3 POP SWAP3 POP SWAP3 POP SWAP1 SWAP2 SWAP3 JUMP JUMPDEST PUSH0 PUSH0 PUSH0 PUSH0 PUSH0 PUSH0 PUSH0 PUSH0 PUSH2 0xE2 PUSH2 0xA5 JUMP JUMPDEST SWAP3 POP SWAP3 POP PUSH2 0xFFFF AND SWAP3 POP PUSH0 PUSH0 PUSH1 0x4 PUSH1 0x5 PUSH1 0x6 SWAP3 POP POP SWAP2 POP DUP5 DUP5 DUP5 DUP5 DUP5 SWAP10 POP SWAP10 POP SWAP10 POP SWAP10 POP SWAP10 POP POP POP POP POP POP SWAP1 SWAP2 SWAP3 SWAP4 SWAP5 JUMP JUMPDEST PUSH0 PUSH2 0xFFFF DUP3 AND SWAP1 POP SWAP2 SWAP1 POP JUMP JUMPDEST PUSH2 0x12A DUP2 PUSH2 0x114 JUMP JUMPDEST DUP3 MSTORE POP POP JUMP JUMPDEST PUSH0 DUP2 ISZERO ISZERO SWAP1 POP SWAP2 SWAP1 POP JUMP JUMPDEST PUSH2 0x144 DUP2 PUSH2 0x130 JUMP JUMPDEST DUP3 MSTORE POP POP JUMP JUMPDEST PUSH0 DUP2 SWAP1 POP SWAP2 SWAP1 POP JUMP JUMPDEST PUSH2 0x15C DUP2 PUSH2 0x14A JUMP JUMPDEST DUP3 MSTORE POP POP JUMP JUMPDEST PUSH0 PUSH1 0x60 DUP3 ADD SWAP1 POP PUSH2 0x175 PUSH0 DUP4 ADD DUP7 PUSH2 0x121 JUMP JUMPDEST PUSH2 0x182 PUSH1 0x20 DUP4 ADD DUP6 PUSH2 0x13B JUMP JUMPDEST PUSH2 0x18F PUSH1 0x40 DUP4 ADD DUP5 PUSH2 0x153 JUMP JUMPDEST SWAP5 SWAP4 POP POP POP POP JUMP JUMPDEST PUSH0 PUSH1 0x60 DUP3 ADD SWAP1 POP PUSH2 0x1AA PUSH0 DUP4 ADD DUP7 PUSH2 0x153 JUMP JUMPDEST PUSH2 0x1B7 PUSH1 0x20 DUP4 ADD DUP6 PUSH2 0x13B JUMP JUMPDEST PUSH2 0x1C4 PUSH1 0x40 DUP4 ADD DUP5 PUSH2 0x153 JUMP JUMPDEST SWAP5 SWAP4 POP POP POP POP JUMP JUMPDEST PUSH0 PUSH1 0xA0 DUP3 ADD SWAP1 POP PUSH2 0x1DF PUSH0 DUP4 ADD DUP9 PUSH2 0x153 JUMP JUMPDEST PUSH2 0x1EC PUSH1 0x20 DUP4 ADD DUP8 PUSH2 0x13B JUMP JUMPDEST PUSH2 0x1F9 PUSH1 0x40 DUP4 ADD DUP7 PUSH2 0x153 JUMP JUMPDEST PUSH2 0x206 PUSH1 0x60 DUP4 ADD DUP6 PUSH2 0x153 JUMP JUMPDEST PUSH2 0x213 PUSH1 0x80 DUP4 ADD DUP5 PUSH2 0x153 JUMP JUMPDEST SWAP7 SWAP6 POP POP POP POP POP POP JUMP INVALID LOG2 PUSH5 0x6970667358 0x22 SLT KECCAK256 PUSH11 0x15EB934A411BB45CA21463 0x29 PUSH20 0xD847D8086B9E407A7DB3883D6AE2401EE406473 PUSH16 0x6C634300081C00330000000000000000 "
		},
		"gasEstimates": {
			"creation": {
				"codeDepositCost": "119000",
				"executionCost": "163",
				"totalCost": "119163"
			},
			"external": {
				"destructuringAssignments()": "infinite",
				"namedValuse()": "infinite",
				"returnmany()": "546"
			}
		},
		"methodIdentifiers": {
			"destructuringAssignments()": "68873440",
			"namedValuse()": "21319fee",
			"returnmany()": "2093fd93"
		}
	},
	"abi": [
		{
			"inputs": [],
			"name": "destructuringAssignments",
			"outputs": [
				{
					"internalType": "uint256",
					"name": "",
					"type": "uint256"
				},
				{
					"internalType": "bool",
					"name": "",
					"type": "bool"
				},
				{
					"internalType": "uint256",
					"name": "",
					"type": "uint256"
				},
				{
					"internalType": "uint256",
					"name": "",
					"type": "uint256"
				},
				{
					"internalType": "uint256",
					"name": "",
					"type": "uint256"
				}
			],
			"stateMutability": "pure",
			"type": "function"
		},
		{
			"inputs": [],
			"name": "namedValuse",
			"outputs": [
				{
					"internalType": "uint256",
					"name": "x",
					"type": "uint256"
				},
				{
					"internalType": "bool",
					"name": "b",
					"type": "bool"
				},
				{
					"internalType": "uint256",
					"name": "y",
					"type": "uint256"
				}
			],
			"stateMutability": "pure",
			"type": "function"
		},
		{
			"inputs": [],
			"name": "returnmany",
			"outputs": [
				{
					"internalType": "uint16",
					"name": "",
					"type": "uint16"
				},
				{
					"internalType": "bool",
					"name": "",
					"type": "bool"
				},
				{
					"internalType": "uint256",
					"name": "",
					"type": "uint256"
				}
			],
			"stateMutability": "pure",
			"type": "function"
		}
	]
}